:020000040800F2
:10000000204100209D010008A5010008A70100086B
:10001000A9010008AB010008AD01000800000000C4
:10002000000000000000000000000000AF01000818
:10003000B101000800000000B3010008B50100088C
:10004000B7010008B7010008B7010008B7010008B0
:10005000B7010008B7010008B7010008B7010008A0
:10006000B7010008B7010008B7010008B701000890
:10007000B7010008B7010008B7010008B701000880
:10008000B7010008B7010008B7010008B701000870
:10009000B7010008B7010008B7010008B701000860
:1000A000B7010008B7010008B7010008B701000850
:1000B000B7010008B7010008B7010008B701000840
:1000C000B7010008B7010008B7010008B701000830
:1000D000B7010008951E0008CD1E0008B7010008F2
:1000E000B7010008B7010008B701000800F002F8E6
:1000F00000F045F80AA090E8000C82448344AAF17D
:100100000107DA4501D100F03AF8AFF2090EBAE87A
:100110000F0013F0010F18BFFB1A43F0010318473B
:10012000E04C0000004D0000103A24BF78C878C1B0
:10013000FAD8520724BF30C830C144BF04680C60ED
:10014000704700000023002400250026103A28BF35
:1001500078C1FBD8520728BF30C148BF0B60704739
:10016000642900F0AB80782900F0E480732900F066
:100170000683002070471FB51FBD10B510BD00F0ED
:100180006DFB1146FFF7F7FF04F03EF800F08BFB24
:1001900003B4FFF7F2FF03BC00F092FB094880476D
:1001A00009480047FEE7FEE7FEE7FEE7FEE7FEE759
:1001B000FEE7FEE7FEE7FEE704480549054A064B71
:1001C00070470000ED1D0008ED000008203B0020F6
:1001D00020410020203D0020203D00200FB4044994
:1001E00010B503AA029800F0CFFA10BC5DF814FB1A
:1001F000380600200FB41CB5074B06AA7B4469469D
:100200000090059800F091FA0020694600F0A0FAED
:100210001CBC5DF814FB00005105000070B50446DD
:1002200085690068C10601D5302600E02026C00798
:1002300007D070BDD4E9012130469047206A401CA8
:1002400020626D1EF6D570BD70B5044685690078D4
:10025000C00707D170BDD4E9012120209047206A52
:10026000401C20626D1EF6D570BD70B50C4605466B
:10027000012A05D02878800600D5EA69002302E02B
:10028000012305E05B1C934202D2E05C0028F9D117
:10029000A869E618C01AA861286A18442862284686
:1002A000FFF7BCFF04E0D5E9012114F8010B9047EA
:1002B000B442F8D32846FFF7C7FF70BD2DE9F041DF
:1002C0000646002410687529314616A510D0AFF3F4
:1002D0000080002802DA404213A507E031688A074F
:1002E00001D512A502E0490704D511A5012401E0BA
:1002F000AFF3008000210A2206F1240709E0B0FBD9
:10030000F2FCB0FBF2F302FB1C00303078541846CC
:10031000491C0028F3D123462A463046BDE8F04167
:1003200000F0A4B9000000002D0000002B00000028
:100330002000000070B504460D4621461068AFF35A
:1003400000802188090502D50F4A7A4402E00E4A4E
:100350007A440E32002104F1240305E000F00F0678
:100360000009965D5E54491C0028F7D120780023CF
:10037000000704D5702D02D009B1022311322046A6
:10038000BDE8704000F072B98C4400002DE9F05FC8
:10039000894604464FF0000ADFF874B1FB44C0F808
:1003A00020A02046E1688847002874D0252806D080
:1003B000D4E901219047206A401C2062F1E7002621
:1003C0005F462046E16888472028054607DB312D37
:1003D00005D2781910F8200C08B10643F1E7B007F0
:1003E00001D526F00406C4F81CA00027C4F818A004
:1003F0002A2D09D0284604F0E9F938B304EB870820
:10040000303DC8F8185019E059F8041B204604EB99
:1004100087029161E1688847012F054618D1E0699C
:10042000002820DA26F020061DE0D8F8180000EB9E
:10043000800005EB40003038C8F818002046E1681D
:100440008847054604F0C2F90028EED1012F0AD0F2
:100450002E2D08D12046E16888477F1C0546022FD3
:1004600046F02006C4DBA069002803DA404246F0CB
:100470000106A061F00701D026F010066C2D0BD00C
:10048000682D09D04C2D39D06A2D35D0742D35D03A
:100490007A2D33D016E038E0E1682F4620468847B1
:1004A000B842054609D16C2F26D04FF48060E16830
:1004B000064320468847054604E06C2F1AD04FF4C7
:1004C000807006430DB3A5F14100192802D82035EC
:1004D00046F400664A462946204626604E46FFF707
:1004E0003FFE80B101280BD0F61D26F0070000F179
:1004F000080956E74020E4E78020D8E70020D6E747
:1005000006F104094DE7284652E7206ABDE8F09F4E
:100510006244000010B5044603E003F0E7FA401C13
:1005200009D014F8010B05490028F6D1BDE81040A8
:100530000A2003F0DBBA4FF0FF3010BD3806002070
:1005400010B5431C02E010F8011B71B18107FAD10C
:100550004FF0013202C88C1A8C4314EAC211F9D050
:10056000C01A0A0603D0C01E10BDC01A10BD0A046E
:1005700001D0801E10BD0902FCD0401E10BD032A10
:1005800040F2308010F0030C00F0158011F8013BB0
:10059000BCF1020F624498BF11F801CB00F8013B97
:1005A00038BF11F8013BA2F1040298BF00F801CB5B
:1005B00038BF00F8013B11F0030300F0F780083A60
:1005C000C0F0088051F8043B083A51F804CBA0E889
:1005D0000810F5E7121D5CBF51F8043B40F8043BDE
:1005E000AFF30080D20724BF11F8013B11F801CB13
:1005F00048BF11F8012B24BF00F8013B00F801CBE4
:1006000048BF00F8012B704702F0FF0343EA0322C2
:1006100042EA024200F0FEB84FF0000200B5134675
:1006200094469646203922BFA0E80C50A0E80C5012
:10063000B1F12001BFF4F7AF090728BFA0E80C50C3
:1006400048BF0CC05DF804EB890028BF40F8042BBC
:1006500008BF704748BF20F8022B11F0804F18BF29
:1006600000F8012B70477047704770472DE9F0473D
:100670000D4699469246044600F124080168880612
:1006800004D5E06921F01001216000E00120A842BA
:1006900001DD471B00E00027A1697A1902EB090080
:1006A000081AA0612078C00602D42046FFF7B6FDE4
:1006B000002608E0D4E901211AF806009047206AD4
:1006C000401C761C20624E45F4DB2078C0060AD51B
:1006D0002046FFF7A3FD06E0D4E901213020904732
:1006E000206A401C2062381EA7F10107F4DC07E0F5
:1006F000D4E9012118F805009047206A401C2062C7
:10070000281EA5F10105F3DC2046FFF79DFD2078AA
:10071000000602D50220BDE8F0870120FBE70000BB
:1007200001694A1C02610878704700B58FB0CDE9B5
:1007300001310021059105497944CDE903101146A5
:100740006846FFF723FE0FB000BD0000E5FFFFFF86
:100750000A6802F8010B0A60704710B5436913B1CB
:10076000AFF3008001E0FFF780FD012010BD12789B
:1007700000F124010A7000224A700122EDE711689D
:100780004FF0FF32E9E70000074B70B50D467B44A0
:10079000FFF7CBFF0446284600F05CF810B14FF09D
:1007A000FF3070BD204670BD5B33000010B5203AAD
:1007B000C0F00B80B1E81850A0E81850B1E818500C
:1007C000A0E81850203ABFF4F5AF5FEA027C24BFDE
:1007D000B1E81850A0E8185044BF18C918C0BDE8C7
:1007E00010405FEA827C24BF51F8043B40F8043B90
:1007F00008BF7047D20728BF31F8023B48BF11F845
:10080000012B28BF20F8023B48BF00F8012B70479E
:100810004FF000020429C0F0128010F0030C3FF4E6
:10082000FDAECCF1040CBCF1020F18BF00F8012B97
:10083000A8BF20F8022BA1EB0C01FFF7EFBE5FEA87
:10084000C17C24BF00F8012B00F8012B48BF00F841
:10085000012B7047007B00F080007047754600F068
:100860002BF8AE4605006946534620F00700854642
:1008700018B020B5FFF7A0FCBDE820404FF00006FF
:100880004FF000074FF000084FF0000BAC46ACE80B
:10089000C009ACE8C009ACE8C009ACE8C00921F067
:1008A00007018D46704710B50446AFF3008020461F
:1008B000BDE81040FFF76CBC00487047680000209E
:1008C00001491820ABBEFEE7260002007047000079
:1008D00070B584B00446012001AD8DF80E000DF115
:1008E0000E02052001212B4600F0B4F8C6B236B145
:1008F000013D00BF15F8010FA047013EFAD104B039
:1009000070BD0000B0B543F6DC2240F29064C2F244
:1009100000020123C2F20004136043F6D8222588A6
:10092000C2F2000200231360485540F6D405C2F21B
:10093000000520882A680130022A20800DD0012A73
:1009400023D00ABB80B202281ED10878A52806BF92
:100950000120286000F062F8B0BD40F29261C2F25E
:100960000001098882B20431914218BFB0BD40F243
:100970009761C2F2000101220A7040F6DE01C2F264
:100980000001088000F04AF8B0BD80B20428FBD115
:100990008878C97800F022F840F29261C2F2000132
:1009A000088002202860B0BD70B584B004460120E4
:1009B00001AD8DF80E000DF10E02012001212B4634
:1009C00000F048F8C6B236B1013D00BF15F8010F7E
:1009D000A047013EFAD104B070BD000040EA0120FA
:1009E00070470000B0B54FF6FF72A9B14FF0000C90
:1009F0004AF2010E10F80C305A4008238EEA5204D5
:100A0000D507A3F1010308BF54081A042246F5D103
:100A10000CF1010C8C45EDD190B2B0BD40F290606C
:100A2000C2F200000021018040F29260C2F2000098
:100A3000018043F6D820C2F20000016043F6DC20BA
:100A4000C2F20000016040F6D400C2F20000016072
:100A5000704700008C2982BF4FF6FF7000B27047CC
:100A60002DE9F041A6B00D46A5218DF80500A81C82
:100A70000DF104088DF80410ADF8060008F104002B
:100A800011462A461C46FFF77AFD2E1DF1B240465C
:100A9000FFF7A8FFB6B20746ADF8940020464146DE
:100AA0003246FFF76CFDA753A81D26B0BDE8F04104
:100AB00000B2704770B584B00446012001AD8DF8D6
:100AC0000E000DF10E02032001212B46FFF7C2FF9D
:100AD000C6B236B1013D00BF15F8010FA047013E77
:100AE000FAD104B070BD0000F0B5A1B000271446E3
:100AF0000D4606461E901F9701F0D2F8209028461A
:100B0000CDE91B5701F0CCF820991BAA1EABCDE90B
:100B1000143240F204031D90084418A9C2F20003E5
:100B20001A906846169103F11001502218941997F3
:100B300051F8047B043A40F8047BF9D10FCB03F061
:100B40001BF9304601F0ACF844F6E117C0F6000797
:100B5000024638463146FFF741FB284601F0A0F82F
:100B6000024638462946FFF739FB204601F098F83F
:100B7000024638462146FFF731FB21B0F0BD0000A8
:100B80002DE9F04381B00446408804F104090D4684
:100B900000EB090111F8020C11F8011C4FF6FF7867
:100BA000FFF71CFF2678A4F890006078678805F8A6
:100BB000046B05F8030CBA1E2846494625F8027C4A
:100BC000FFF7DDFCB4F89090A52EA5F88C9008D125
:100BD000B81CC1B22046FFF705FF814508BF07F1E9
:100BE00004080FFA88F001B0BDE8F083B0B5044600
:100BF0004FF4302000F0C2F8042818BFB0BD42F214
:100C00001005C4F20205286840F0020028606C60FC
:100C1000286840F0400028604FF4302000F0AEF823
:100C2000296841F6FD7211402960B0BD42F20C0006
:100C3000C4F202000168C9071CBF012070470168A7
:100C4000490744BF022070470068C0064FF0030008
:100C500058BF04207047000070B504464FF6FF707F
:100C6000C0F60100001B00F03DF960B10546012609
:100C70002046FFF7BBFFAE4205D204F5806404288E
:100C800006F10106F4D0002070BD000080B500F030
:100C90002FF880BD80B500F061F880BDF0B581B05F
:100CA000E2B14FF6FB7714460D460646C0F6010743
:100CB0003068B84212D83068296800F023F8042858
:100CC0000FD130682968006888420DD13068013C36
:100CD00000F1040005F104053060E9D1002001B005
:100CE000F0BD012001B0F0BD022001B0F0BD000058
:100CF00042F21000C4F20200016841F0800101607C
:100D00007047000070B582B00546002001904FF496
:100D100000500C4600F032F804281CD142F21006B4
:100D2000C4F20206306840F0010030604FF4005019
:100D30002C8000F023F8042808D1A81C0190019809
:100D4000210C01804FF4005000F018F8316841F692
:100D5000FE721140316002B070BD000042F204002A
:100D600040F22311C4F20200C4F26751016048F658
:100D7000AB11CCF6EF5101607047000010B504468E
:100D8000FFF754FF34B100BF012803D1FFF74EFF36
:100D9000013CF9D1002C08BF052010BD70B584B00E
:100DA0000446012001AD8DF80E000DF10E02042065
:100DB00001212B46FFF74EFEC6B236B1013D00BF02
:100DC00015F8010FA047013EFAD104B070BD000034
:100DD0004EF21001CEF200010A68C00822F00402AF
:100DE0000A6040F29661C2F2000108704FF47A7115
:100DF000484340F29461C2F200010880704700004D
:100E000040F29461C2F200010A884EF21001CEF263
:100E1000000150434860002088600120086000BF46
:100E2000086800F001100128FAD0002008608860EE
:100E3000704700002DE9F0418A6802F00F0CD306DC
:100E400044BF4B684CEA030C09880B0621D00568A7
:100E500000234FF001084FF00F0E002608E000BFFE
:100E6000282A08BF47610136082E03F104030FD07A
:100E700008FA06F70F42F6D00EFA03F425EA040446
:100E80000CFA03F5482A45EA0405E9D10761EAE7C7
:100E90000560B1F5807F38BFBDE8F081446800236C
:100EA0004FF4807E4FF00F08002607E0282A08BF85
:100EB00047610136082E03F1040310D00EFA06F73D
:100EC00007EA0105BD42F4D108FA03F5AC430CFA78
:100ED00003F5482A44EA0504E8D10761E9E74460DC
:100EE000BDE8F081810A0122830518BF02EB902141
:100EF0000846704784B02DE9F047C2B00DF5947CE8
:100F00008CE80F009DF829010138042800F2A28026
:100F1000DDF8BC814AAEDFE800F003390D5228004D
:100F200064A0FFF7F7FA0A20FFF76AFF4046FFF7D1
:100F30003BFD8FE006F140052846341D02F07CFBA6
:100F400006F1220120462A46FFF7CEFD284600F092
:100F5000A7FE024644F6E110C0F600002946FFF75E
:100F60003DF94046FFF7A6FD74E071683CA0FFF72D
:100F700035F94046FFF7ACFC6420FFF741FF46F22D
:100F80000000C0F6000002F0E9FE63E0684606F1EA
:100F900010018022CDF8848051F8043B043A40F8D7
:100FA000043BF9D111F8012B00F8012B11F8012BAA
:100FB00000F8012B96E80F0001F04AF84AE000F033
:100FC0008DFD40F29864C2F200040020726806F1C0
:100FD0000809C4E9000026A04946A260FFF7FEF810
:100FE000484600F05DFE0246606027A04946FFF7D4
:100FF000F5F8FFF74FFEA068FFF72EFED4E900607A
:10100000B0421ED922AF04F1080A15E0384680210B
:10101000FFF702FB484639462A46334600F086FD74
:10102000216820220844206050463946FFF736FEEA
:10103000D4E90060B04204D9851B802DE6D9802513
:10104000E8E719A03146FFF7C9F8FFF71FFE404651
:10105000FFF7A4FE42B0BDE8F04704B0704700BF00
:10106000416464726573733A2025780A00000000B9
:101070004E616D653A202573202D20616464726590
:1010800073733A2025780A004B6963682074687589
:101090006F632066696C65202573206C6120256470
:1010A0002062797465730A006F66667365743A200E
:1010B00025640A00426F6F744C6F61646572204D45
:1010C0006F64650010B540F60001C4F201010A68C2
:1010D00044F20C4442F496420A6041F21C01C4F20C
:1010E00002010A68C4F2000442F400320A6040F2CD
:1010F0000001C2F2000109684200B1FBF2F2B1FB4B
:10110000F0F0110961F31F1024F8040C208840F05E
:101110002C002080262001F00FF9208840F4005098
:10112000208010BD10B5044600F08CFE40F297619F
:10113000C2F20001087801284FF0000018BF10BD6E
:1011400043F6DC22C2F20002106040F6DE02C2F278
:101150000002128808700120228010BD70B588B08E
:10116000044609200021FF2200F0E8FBC5B2002D53
:1011700040F0278104A810210122012500F09EFBE8
:10118000002840F01E810A200021FF2200F0D6FB3B
:10119000C5B2002D40F015816846102101220126BC
:1011A00000F08CFB08B102250BE19DF810009DF8C2
:1011B00011109DF812209DF8133085092570C0F399
:1011C000830500F003006570A070E1702271637107
:1011D0009DF8140000220001E0809DF81500E188D0
:1011E00041EA101100F00F00E18020729DF8160016
:1011F000C1096172C0F38011A172C0F34011E172A4
:10120000C0F3001100F003008002217362732061BB
:101210009DF81700216941EA800020619DF81800BF
:10122000216941EA90112161C0F3C201217500F0EA
:10123000070161759DF819104B09A375C1F382036D
:10124000E375062303EA410323769DF81A30257ED1
:1012500045EAD3152576C3F384056576182505EA96
:10126000C303A3769DF81B30A57E45EA531503F012
:101270001F03A576E3769DF81C30DD092577C3F3BF
:1012800041156577C3F38205A5770C2505EA83032D
:10129000E3779DF81D30E57F45EA9315E577C3F3C5
:1012A000401584F8205084F8212003F0010284F8CE
:1012B00022209DF81E20D30984F82330C2F3801326
:1012C00084F82430C2F3401384F82530C2F30013AD
:1012D00084F82630C2F3810302F0030284F8273039
:1012E00084F828209DF81F20520884F8292084F8CB
:1012F0002A6094F84E20042A04D10002206120695B
:101300000844206120694FF40071C004C4E9110150
:101310009DF800009DF801109DF802209DF8033013
:1013200084F82C000802E085E08D00251043E0855C
:10133000180620639DF80400216B41EA00402063F9
:101340009DF80500216B41EA002020639DF806000E
:10135000216B084320639DF8070084F834009DF852
:10136000080084F835009DF809000006A0639DF888
:101370000A00A16B41EA0040A0639DF80B00A16B3D
:1013800041EA0020A0639DF80C00A16B0843A06314
:101390009DF80D0094F83C1041EA101100F00F0088
:1013A000000284F83C10E0879DF80E00E18F0843AE
:1013B000E0879DF80F00400884F84000012084F881
:1013C0004100284608B070BD70B50024FF2000F031
:1013D0001BFB092C04F10104F8D3002440F6FE7530
:1013E00000200021952200F0A9FAC0B2012803D004
:1013F000AC4204F10104F3D301281CBF012070BDED
:1014000008204FF4D571872200F0CEFAC0B201282F
:101410004CD0052840F0AB8040F2D044C2F200042A
:10142000012084F84E0040F61000C4F201001021A3
:101430000160FF2000F0E8FA002540F6FE7600BFCC
:1014400037200021002200F079FAC0B201282CD107
:1014500029200021002200F071FAC0B218B1B54273
:1014600005F10105ECD3A8B1002540F6FE7600BFDA
:1014700001200021002200F061FAC0B218B1B5428B
:1014800005F10105F4D300281CBF022070BD002027
:1014900084F84E00012000F0DDF83B2000210122FD
:1014A00000F04CFAC0B2002863D070BD40F61006C0
:1014B000FF20C4F2010600F0A7FAFF2000F0A4FA12
:1014C000FF2000F0A1FA0546FF2000F09DFA044637
:1014D00010203060FF2000F097FAE8B2012846D1D2
:1014E000E0B2AA2843D1002440F6FE75372000213F
:1014F000002200F023FAC0B20128D6D129204FF0F3
:101500008041002200F01AFAC0B218B1AC4204F1D6
:101510000104EBD300281CBF032070BD3A2000213A
:10152000002200F041FAC0B2002818BF70BDFF20B1
:1015300000F06AFA0446FF2000F066FAFF2000F08F
:1015400063FAFF2000F060FA10203060FF2000F006
:101550005BFA60064FF0040040F2D04158BF022011
:10156000C2F2000181F84E00012000F073F8002063
:1015700070BD10204FF40071FF2200F0DFF9C0B2FF
:10158000002808BF002070BDB0B50D4640F2D04124
:10159000C2F20001144691F84E200146042A4FF091
:1015A00012004FF0000218BF490200F0C7F9000610
:1015B0001CBF0120B0BD54B128464FF40071002279
:1015C00000F07CF9A0B9013C05F50075F4D10C20C0
:1015D00000210022002400F0B1F940F61000C4F20E
:1015E000010010210160FF2000F00EFA2046B0BD7E
:1015F0000C200021002200F0A1F940F61000C4F2F6
:101600000100102101600220B0BD000010B50C46A1
:1016100040F2D041C2F2000191F84E200146042A66
:101620004FF011004FF0000218BF490200F086F998
:1016300000061CBF012010BD20464FF4007101229E
:1016400000F03CF904460C200021002200F076F95D
:10165000E0B210BD80B586B04FF0827101914FF4B9
:10166000003102910121C0F2002103914FF4E021E9
:10167000CDF812101021002808BF382143F20000D5
:10168000ADF81010C4F2010001A900F027FB06B06C
:1016900080BD0000F0B583B04FF48050012100F010
:1016A000C1F90D20012100F0BDF9E02040F6000451
:1016B000ADF800001820C4F201046D460326029024
:1016C000204629460196FFF7B5FB102720462946FC
:1016D000ADF80070CDE90167FFF7ACFB0020276192
:1016E000FFF7B8FF04F52050012100F0EDFA03B038
:1016F000F0BD00002DE9F04381B0144640F2D04225
:10170000C2F2000292F84E200646042A18BF760262
:101710000D4622B117202146002200F00FF91920B2
:101720003146002200F00AF9000603D0012001B082
:10173000BDE8F08340F61009C4F201091020C9F891
:101740000400FF2000F060F95CB340F201080027BC
:10175000C0F20408FC2000F057F9002615F8010B30
:1017600000F052F9B6F5FF7F06F10106F6D9FF2029
:1017700000F04AF9FF2000F047F9FF2000F044F99B
:1017800000F01F000528464637D100BFFF2000F0BB
:101790003BF9FF2802D0013EF8D119E00137A742FA
:1017A000D8D1FD2000F030F9000618D00124C0F295
:1017B000040400BFFF2000F027F9FF2813D0013CEC
:1017C000F8D11020C9F80000052001B0BDE8F08371
:1017D0001020C9F80000032001B0BDE8F083042008
:1017E00001B0BDE8F0831020C9F80000FF2000F030
:1017F0000BF9002001B0BDE8F0831020C9F800000B
:10180000022001B0BDE8F08370B50C4640F2D04133
:10181000C2F2000191F84E200146042A4FF0180050
:101820004FF0000218BF490200F088F800061CBF04
:10183000012070BD40F61005C4F20105102068605B
:10184000FF2000F0E1F8FF2000F0DEF8FF2000F0BC
:10185000DBF8FE2000F0D8F8013C002614F8010F58
:1018600000F0D2F8B6F5FF7F06F10106F6D9FF20A9
:1018700000F0CAF8FF2000F0C7F8FF2000F0C4F81D
:1018800000F01F0005280DD10124C0F2040400BFA0
:10189000FF2000F0B9F848B9013CF9D110202860C8
:1018A000032070BD10202860022070BD1020286029
:1018B000FF2000F0A9F8002070BD00002DE9F043E2
:1018C00081B040F6100891460D460646C4F2010864
:1018D0001020002740F2CF74C8F80400FF2000F069
:1018E00093F8C0B2FE2803D0A74207F10107F5D351
:1018F000FE281BD13DB1013EFF2000F085F8013DDF
:1019000006F8010FF8D1FF2000F07EF8FF2000F06C
:101910007BF8B9F1000F05D01020C8F80000FF20B7
:1019200000F072F8002001B0BDE8F0831020C8F884
:101930000000012001B0BDE8F0830000F0B581B0E7
:10194000064640F61007FF2014460D46C4F2010774
:1019500000F05AF81020786046F0400000F054F88B
:10196000280E00F051F8C5F3074000F04DF8C5F31C
:10197000072000F049F8E8B200F046F8204600F0F1
:1019800043F80025FF2000F03FF8C4B2FF2C03D13C
:10199000C72D05F10105F5D310203860FF2000F0B8
:1019A00033F8204601B0F0BD70B50646FF2014465E
:1019B0000D4600F029F840F61400C4F20100102191
:1019C000016046F0400000F01FF8280E00F01CF8FF
:1019D000C5F3074000F018F8C5F3072000F014F82D
:1019E000E8B200F011F8204600F00EF8002400BF25
:1019F000FF2000F009F8C0B2FF2818BF70BDC72C47
:101A000004F10104F4D370BD43F20801C4F20101F2
:101A10000A889207FCD588800888C007FCD088888F
:101A200070470000002941F21801C4F202010A685F
:101A30000CBF22EA000010430860704710B541F265
:101A40000404C4F20204226802F00C02082A41F2E3
:101A50000022C0F27A021CD12368D4F800C0C3F37C
:101A6000834E5FEACC330EF1020C06D440F600122E
:101A7000C0F23D020CFB02F20BE023689B0302D490
:101A80000CFB02F205E040F60012C0F23D020CFB36
:101A900002F20260226844F61703C2F30312C0F692
:101AA00000039A5C0168D14041602268C2F30222BF
:101AB0009A5C21FA02F282602268C2F3C2229A5C26
:101AC00044F61303D140C1602268C0F60003C2F39C
:101AD00081329A5CB1FBF2F1016110BD80B540F238
:101AE000A461C2F20001002001F06CFB014641F646
:101AF000D420C2F200000029016008BF80BD02A00E
:101B0000FEF76CFB80BD00BF6D6F756E742066695B
:101B10006C6573797374656D2030206661696C65DE
:101B200064203A2025640A0D00000000F0B5ADF5F0
:101B30000B7D02AF15460E460146384601221C4673
:101B400001F056FB3846214601F096FA01AB3846C3
:101B500031462A4601F02CFC384601F083FA019800
:101B60000DF50B7DF0BD00002DE9F04F91B004465E
:101B700040F22850C2F200000F904FF48070109095
:101B80006846214601F0D8FB28B1074624A0394613
:101B9000FEF724FB40E02046FEF7D2FC09AD0646E6
:101BA0006846294601F0C8FC0746A8BB2644EB4618
:101BB0000FF29C080FF280090FF2800A09E000BFC3
:101BC00040462146FEF70AFB5846294601F0B4FC80
:101BD000E8B99DF82D002E28F6D0D0B10F9A1078D4
:101BE00000289DF82C0008BF05F10902C006E7D5C2
:101BF00030464946FEF7FEFA50462146FEF7EEFA19
:101C00002046FFF7B1FF30B900203070DCE707460F
:101C100002E0002700E00746384611B0BDE8F08F2B
:101C20007363616E2066696C6573206572726F7292
:101C3000203A2025640A0D002F2573007363616E1E
:101C40002066696C65202D2025730A0D00000000B8
:101C50007363616E2066696C65202D2025732F25C6
:101C6000730A0D00F0B5ADF50B7D02AF15460E46BB
:101C70000146384612221C4601F0BAFA384621467F
:101C800001F0FAF901AB384631462A4601F03CFD35
:101C9000384601F0E7F901980DF50B7DF0BD000025
:101CA00010B5ADF50A7D014601A8012201F0A0FAA8
:101CB00008B1002403E0049C01A801F0D3F92046F8
:101CC0000DF50A7D10BD00000288002918BF012112
:101CD00022F0400242EA8111018070472DE9F04173
:101CE00002880B8802F4415C4A88B1F804E043EAB8
:101CF0000C03CC881A430D8942EA0E024E89224316
:101D00008F892A43B1F80E8032433A4342EA0802EF
:101D10000280828B22F400628283098A0182BDE8FC
:101D2000F081000080B500F001F880BD82B041F282
:101D300004000021C4F202000191009150F8041C3B
:101D400041F4803140F8041C50F8041C01F40031C7
:101D50000091019901310191009919B90199B1F5E9
:101D6000A06FF1D150F8041C890354BF0021012158
:101D700000910099012936D142F20001C4F202011A
:101D80000A6842F010020A600A6822F003020A6040
:101D90000A6842F002020A6001680160016801609D
:101DA000016841F480610160016821F47C110160E7
:101DB000016841F4E811016050F8041C41F08071A1
:101DC00040F8041C50F8041C8901FBD5016821F07F
:101DD00003010160016841F002010160016801F046
:101DE0000C010829FAD102B07047000080B541F219
:101DF0000000C4F202000168002241F0010101600C
:101E00004168CFF6FF021140416001684FF6FF7252
:101E1000CFF6F66211400160016821F48021016073
:101E2000416821F4FE0141604FF41F018160FFF71A
:101E300079FF4EF60850CEF200004FF000610160CD
:101E400080BD000010B543F6DC20C2F2000000683F
:101E5000012812D143F6D824C2F200042068642875
:101E600007DB40F6DE00C2F2000000210180FEF731
:101E7000D5FD20680130206010BDFEF7CFFD10BDFC
:101E800044F20041C4F20001888000BF08880006C7
:101E9000FCD5704710B543F60004C4F20104204697
:101EA00040F2255100F040F848B1204600F0C8F853
:101EB00040F2C801C0B2C2F20001FEF723FD204685
:101EC00040F2255100F018F810BD000010B544F2A2
:101ED0000044C4F200042088800607D5A08840F2A0
:101EE000C801C0B2C2F20001FEF70CFD204640F26C
:101EF000255100F001F810BD090A012202FA01F192
:101F0000C9430180704700008289002918BF012160
:101F100022F4005242EA4131818170470088084032
:101F200018BF012070470000C1F34212022A06D0F8
:101F3000012A14BF00F1140200F10C0201E000F1CB
:101F400010021288008801F01F03090ADA40C84015
:101F5000104000F001007047C1F3421301F01F0C64
:101F60001421022B08BF1021012B4FF0010308BFE1
:101F70000C21002A03FA0CF243580CBF23EA020298
:101F80001A4342507047000070B586B00446008A7C
:101F90000D46C98820F4405008432082A0894EF69F
:101FA000F3110840A9882A896B8908431043184314
:101FB000A081A08AA98920F44070084301AEA082C4
:101FC0003046FFF73BFD43F6000106F10800C4F27E
:101FD00001018C4208BF06F10C0000681922B4F917
:101FE0000C1050432A680123B1F1FF3FC8BF022300
:101FF00002FA03F1B0FBF1F048F21F51C5F2EB1108
:10200000A0FB01235A096FF0630302FB0300B4F93C
:102010000C300326B3F1FF3FC8BF042600FA06F0D8
:1020200000F13200A0FB01014FF00700C8BF0F20F4
:1020300000EA511040EA0210208106B070BD000095
:1020400080886FF35F2070476FF35F218180704756
:1020500084B02DE9F0470DF1200C8CE80700C9B2DF
:10206000481E03280B9300F2FB80DDF8B48008AC17
:10207000DFE800F00251C2E343F6183743F6E021EF
:10208000C2F200070020C2F200013860086040F28E
:10209000640043F6E425C2F200004FF0FF31C2F2C3
:1020A0000005016028463221FEF7B6FAD4F8050093
:1020B000D4F8091040F28C6904F10D06C2F200094F
:1020C00038603046C9F80010FEF73AFA0246284652
:1020D0003146FEF754FA3046FEF732FA014644F62E
:1020E0001D20C0F60000FEF779F877A02946FEF71C
:1020F00075F8D9F8001079A0FEF770F839687CA05F
:10210000FEF76CF8284601F097FA3968012042463C
:1021100000F0F8F8A4E044F63120C0F60000FEF725
:102120005DF8617950A0FEF759F8D4F8061052A076
:10213000FEF754F843F6E029C2F20009D9F800107E
:10214000D4F8062040F2640A9142C2F2000A29D172
:102150004DA0FEF743F86579DAF8000004F10A06AD
:1021600031462A4600F08EFA43F6E427D4F80630CA
:10217000C2F20007CAF80000384631462A46FFF787
:1021800071FD3846FFF78CFD024644F6E110C0F6BB
:1021900000003946FEF722F86079D9F800100844AB
:1021A000C9F8000043F61830C2F20000D9F8001058
:1021B000006881424BD3D4F80620824247D1DAF836
:1021C0000000C14338A0CAF80010FEF707F840F23B
:1021D0008C61C2F20001DAF800000968884204D17B
:1021E000D9F8001034A0FDF7F9FFD4F8061002204A
:1021F000424600F087F833E044F63120C0F6000094
:102200000321FDF7EBFF43F6E02043F61831C2F25D
:102210000000C2F2000102680B689A4220D340F22B
:102220008C62C2F20002002313600B600360032083
:102230000121424600F066F812E0601D01F0FCF951
:1022400041F6E000C2F20000FFF78EFC08E013A0A8
:10225000FDF7C4FFD4F806100220424600F052F801
:10226000BDE8F04704B070476C656E677468202065
:102270003A2025640A0000006F66667365742020AA
:102280003A2025640A000000636F6D70653A2025CE
:1022900064202D202564210A00000000446F6E6533
:1022A0003A202564210A0000436865636B5F53751B
:1022B0006D3A2025780A0000446F6E652066696CCF
:1022C000653A202564210A006E616D65202020207A
:1022D0002020202020203A2025730A0063686563AF
:1022E0006B5F73756D20202020203A2025780A002E
:1022F00073697A65202020202020202020203A2089
:1023000025640A0070B588B003AD14468DF804004A
:10231000CDF8051001AA022005212B46FEF79AFBF5
:10232000C6B236B1013D00BF15F8010FA047013E0E
:10233000FAD108B070BD000000F01F00012101FAC1
:1023400000F04EF20411CEF2000108607047000068
:1023500010B5044640780A4604F13001012300F02C
:102360004BFE00281CBF032010BDB4F82E024AF615
:10237000552188421CBF022010BD94F8672094F8B4
:10238000683094F86610120244F2461042EA0342A2
:10239000C0F254001144814204BF002010BD94F8E3
:1023A000832094F8843094F88210120242EA0342A7
:1023B0001144081A18BF012010BD0000421E00BFC2
:1023C00012F8010F002818BF8842F9D170470000A9
:1023D0002DE9F041036815461F78A7F13002092A5C
:1023E00006D85F783A2F06BF02330360002200E070
:1023F0000022002A1CBF0B20BDE8F08140F2BC2067
:10240000C2F2000004680C60BCB3207868B1607848
:1024100000F00AFEC10708D140070A21002D18BFAD
:1024200001EAE0752846BDE8F08100202080002008
:1024300000F0AEFDC1071CBF0320BDE8F081002DF8
:102440001EBF10F004000A20BDE8F08120460021E4
:102450000025FFF77DFF012808D194F8F21179B12A
:10246000D4F8F65120462946FFF772FF58B10328E9
:102470000CBF01200D20BDE8F0810C20BDE8F081EB
:1024800000250028F3D1B4F83B00B0F5007F20D13F
:10249000B4F84600002808BF606D94F84030E06151
:1024A000591E0129E37014D894F83D104A1E0A40C1
:1024B000B1FA81F718BF01227F093A43A17008D110
:1024C00094F8417094F8422047EA02223F072281A3
:1024D00002D00D20BDE8F081B4F84370002F08BF92
:1024E000276DE68F002EF4D000FB03FE0EEB1213D7
:1024F00033449F42EDD3FF1A8F42EAD3B7FBF1F189
:1025000040F6F5774FF00108B94288BF4FF0020856
:102510004FF6F5772B44B94288BF4FF00308A3620A
:10252000AB194FF6F67601F1020CB142C4F818C0AF
:10253000236206D3002ACCD1E26D62624FEA8C029C
:102540000FE0002AC5D003EB0E02B8F1020F626261
:102550000FBF4FEA4C020CEB4C0201F0010303EBFE
:10256000520202F2FF12B0EB522FB2D34FF6F672C4
:102570004FF0FF3000269142E660206126D3B4F888
:10258000600004F1300142196078012366716261D4
:1025900000F032FDD0B9B4F82E024AF65521884237
:1025A00014D1206B45F25221C4F2611188420DD141
:1025B000D4F8140247F27221C6F24111884205D1C3
:1025C000D4F81C02D4F81812C4E9030140F2C02068
:1025D000C2F20000018884F8008001310180304699
:1025E000E180E6622671BDE8F0810000826902396F
:1025F000023A914224BF002070478278806A01FB32
:10260000020070472DE9F0470D460978804601F039
:10261000BF000D21484344F62709A0F10D0701260C
:102620000024C0F600094FF6FF7A06E050454FF04F
:1026300000061CD101340D2C12D019F80400002E14
:10264000285A80B2F2D001F05DF9FE2F16D8064666
:1026500038F8170001F056F986420FD10137E9E743
:10266000002E1CBF287810F0400003D10126304610
:10267000BDE8F08738F817000028F7D00020BDE843
:10268000F0870000B0B5002A08BFB0BD41F6B75EC4
:102690004FF0000CC0F2C14E11F80C305840082326
:1026A0008EEA5004C50708BF4408013B2046F7D115
:1026B0000CF1010C9445EFD1B0BD0000F0B581B034
:1026C0000D46044641B12046294601F05BFA022836
:1026D00009D2012001B0F0BDE76857B1A069874277
:1026E00028BF012706E0A1692F46884202D201B027
:1026F000F0BD01273E4600BFA0690136864228BFD3
:10270000022601D3022F0AD32046314601F03AFABD
:10271000411CECD030B10128E9D0BE42ECD1002000
:1027200001B0F0BD204631466FF0704201F0D8FE96
:10273000014635B129B920462946324601F0D0FE7E
:10274000014631B10120012908BF4FF0FF3001B02F
:10275000F0BD2069E660411C03D0013820610120F2
:102760006071304601B0F0BD2DE9F04F85B00D68C5
:102770008A46804601E000BF013528785C28FBD0FE
:102780002F28F9D02878D8F81C40202803D2042715
:102790000120002628E000260FF2E41908E000BF1F
:1027A00024F81670A8194078711C1F280E4618D9F5
:1027B0002F2813D05C2811D0FF2E46D0C0B20121A3
:1027C00001F07AF8002840D007467F28E8D848462C
:1027D0003946FFF7F3FD0028E2D036E0701C0027F1
:1027E00002E0481C04270E462844CAF8000066B3DD
:1027F00004EB460104E000BF013EA1F1020124D038
:1028000031F8020C2E28F7D02028F5D00025D8F872
:1028100018000D8020210B2201F076FD01E000BFA1
:10282000013534F815002E28FAD02028F8D0A01E43
:10283000002D18BF47F003075EB130F81620711E57
:102840002E2A0E46F8D1481C04E0062005B0BDE84B
:10285000F08F00200190A0F1010B082004900120CE
:1028600003904FF0000A4FF000090020029003E0AF
:1028700083450CD047F0030734F815602846202E16
:1028800005F10105F6D02E2EF2D0002E4FD004997E
:10289000894534D2834532D0802E0FD33046002173
:1028A00001F00AF838B144F63411C0F600010844CA
:1028B00010F8806C00E0002647F0020726B133A034
:1028C0003146FFF77BFD48B147F003075F26D8F894
:1028D000180000F8096009F10109CDE7A6F14100EF
:1028E00080B2192802D84AF0020AF0E7A6F1610086
:1028F00080B219289CBF4AF0010A203EE7E70299FE
:10290000C90747F0030111D1834518BF0F4601994C
:102910008D420CD80B2004900020039001204FEA38
:102920008A0A02904FF008090D46A5E70F46D8F82D
:10293000180047F002020178E52904BF0521017063
:102940000398C00718BF4FEA8A0A0AF003010AF089
:102950000C00032908BF17460C2808BF1746BA0702
:1029600007D4012908BF47F01007042808BF47F023
:102970000807D8F81800C772002005B0BDE8F08F2E
:10298000222A3A3C3E3F7C7F000000002B2C3B3D3E
:102990005B5D00002DE9F041804644F20500012115
:1029A000FFF740F840F2C42643F60005C2F20006E5
:1029B0004FF40070C4F20105308018200324A5F5FF
:1029C0004057C6E9014038463146FEF733FA4FF426
:1029D000806030800420C6E9014038463146FEF769
:1029E00029FA28460121FFF78FFA40F22861C2F246
:1029F0000001002088814FF44022C1E90080284670
:102A00008A60FFF7C1FA284640F225510122FFF7FC
:102A1000A3FA2520FFF790FCBDE8F08110B543F63E
:102A20000004C4F2010401462046FFF70DFB00BF7D
:102A300020468021FFF772FA0028F9D010BD00006F
:102A40002DE9F0410021044600F054FA002818BF97
:102A5000BDE8F081FF264FF6FF78FF272068216947
:102A600001F05EFC002846D165692978E52908D087
:102A7000002943D0E87A020700F03F000AD50F286A
:102A800008D0FF262046002100F03CF80028E5D0C1
:102A900032E000BF0F2819D1E0690028F2D04A06C1
:102AA00005D56F7BE28801F0BF010E462284F2B2A9
:102AB0009142E6D1697B8F42E3D12946FFF7A2FD1F
:102AC000013E002808BF4FF0FF36DBE7300604D197
:102AD000284601F019FE87420AD0A169A4F8208097
:102AE000C87AC007CDD1284601F0EEFB0028C8D136
:102AF0000020BDE8F0810120BDE8F0810420BDE8A0
:102B0000F08100002DE9F0470446C088471CBAB2A6
:102B1000BA420ED1206960B117F00F050CD02068C1
:102B2000002600EB45103030E78060613046BDE89C
:102B3000F0870420BDE8F0870E46E168013020618F
:102B400021B320688378013B13EA121FE7D101F01B
:102B500019F802283CBF0220BDE8F087804601300A
:102B60001CD020688169884560D3D6B1E168FFF741
:102B7000A5FD8046013018D0B8F1000F19D0B8F18A
:102B8000010F1AD14FF0000902264BE0206800899E
:102B9000824224BF0420BDE8F087C0E70120BDE8E1
:102BA000F0874FF0000904263CE04FF000090126B1
:102BB00038E04FF00009072634E0206800214FF08C
:102BC000000901F0ADFB08B101262BE020680021CF
:102BD00030304FF400724FF0000A01F095FB266888
:102BE00041463046FFF702FD2168F0628A789AB1CB
:102BF0004FF0000A01264FF000090E71084600212F
:102C000001F08EFB70B921680AF1010AC86A8A785E
:102C100001309245C862F0D3C86A4FF00109A0EBB9
:102C20000A00C862B9F1000F3FF480AF2068414646
:102C3000C4F80C80FFF7DAFC206170E770B5016919
:102C40000446C1B3FF25FF26206801F069FBA0BB45
:102C50006169087898B32E2822D0E52820D0CA7A56
:102C6000130702F03F0201D50F2A19D10F2A2CD1E8
:102C7000420605D54D7BE28800F0BF00064622845F
:102C8000F2B290420CD1487B854209D1E06901F053
:102C900089FB013E002808BF4FF0FF3601E000BF6E
:102CA000FF2620460021FFF72DFF48B921690029A2
:102CB000CAD1002004E0042002E0012000E004204A
:102CC00000281CBF0021216170BD300606D10846D6
:102CD00001F01AFD854201D10020F1E74FF6FF70A7
:102CE00020840020ECE700002DE9F04F83B0D0E90C
:102CF00006B68046684659460C2201F0F7FA9DF860
:102D00000BA05FEACA7026D000200127E9468BF8A5
:102D10000B00C8F81C0000BFBCB2584649463246FA
:102D2000234600F0EBFE4046FFF78AFE30B9632CE5
:102D300007F10107F0D30025642700E00546B8B28B
:102D4000642801D107259EE0042D40F09C808BF87B
:102D50000BA0C8F81C605FEA8A7002D44FF001092A
:102D600010E0002081B236F811200130002AF9D19C
:102D700001F119004EF64F41C4F6C461A0FB0101F8
:102D80004FEA91094046002100F0B4F805460028BA
:102D900079D100261FFA89F700240DE0200404F100
:102DA0000104A0B208BFB8F80660B8421AD0404685
:102DB0000121FFF7A7FE90B9D8F80000D8F810104D
:102DC00001F0AEFA40B9D8F814000078E528E5D053
:102DD0000028E3D00024EAE701259DBB04E0054676
:102DE00085BB01E000256DBB022F2AD3B1B240465E
:102DF00000F080F8054628BBD8F8180001F084FCE4
:102E00000646A9F101040127D8F80000D8F81010EF
:102E100001F086FAD8BBD8F81410D8F81C00E2B23A
:102E2000334600F0DDFDD8F8000000210771404670
:102E3000FFF768FE68BB013C20044FF00005E3D1BA
:102E400000E00025FDB9D8F80000D8F8101001F016
:102E500067FA4FF00105B0B9D8F8144000212046B8
:102E6000202201F051FAD8F8181020460B2201F068
:102E70003DFAD8F81800C07A00F018002073D8F88E
:102E8000000005710025284603B0BDE8F08F01253C
:102E9000D8E70546D6E70000F0B581B0018C0446BE
:102EA000C5884FF6FF708142204608BF294600F0D2
:102EB00021F808B101B0F0BDE5260127206821699D
:102EC00001F02EFA68B960690670E0882168A842AE
:102ED0000F7108D220460021FFF714FE0028EDD024
:102EE00002E0012000E00020042808BF022001B019
:102EF000F0BD0000F0B581B08268C180012A41D0E8
:102F0000044600680D4681698A423BD26AB19AB193
:102F10008078B5EB001F22D22F4620681146E26070
:102F2000FFF764FB00EB17100EE0017803290CBFDC
:102F3000426A0022002AEBD101890022A942E26004
:102F400020D9406A00EB1510216805F00F0201EB53
:102F500042113031C4E90401002001B0F0BD060186
:102F60002068114600F00EFE024601300DD0022A04
:102F700008D320688069824204D2AD1BAFB2BE4242
:102F8000EED9CAE7022001B0F0BD012001B0F0BDCA
:102F9000411E03293CBF0020704700281CBF0120B0
:102FA000704780B5FEF710FA002818BF012080BDD9
:102FB00070B501280D4614D0B8B940F2D046C2F21F
:102FC000000630461446FEF7C9F865B1032D0ED051
:102FD000012D0AD1D6E91101B0FBF1F020600020EB
:102FE00070BD042D01D2002070BD042070BDB06CF6
:102FF0002080002070BD000080B543B1012808D0BA
:1030000048B91046012B08D1FEF700FB08E0042068
:1030100080BD002080BD012080BD1A46FEF7B4FAB5
:10302000002818BF012080BD0021022888BF01218F
:103030000846704780B543B1012808D048B910460A
:10304000012B08D1FEF7E0FB08E0042080BD002042
:1030500080BD012080BD1A46FEF74CFB002818BF3A
:10306000012080BD10B5044600F098FA002804BF86
:103070000021216010BD000070B50446A2880068E0
:103080000D46114601F090FB002818BF70BDA079D5
:10309000010644BF022070BDD4E90216AE4228BF2B
:1030A0002E46800748BF2E460025002EA5604ED034
:1030B000206882784FEA422539B1721E0139B2FB8D
:1030C000F5F2B1FBF5F39A4204D2216931B36161A3
:1030D00031B93BE0684208406169A060361AA9B383
:1030E000AE4227D9A2792068920703D400F04AFDA6
:1030F000014603E0FFF7E2FA0146C8B1481C4DD093
:10310000022939D320688069814235D2A068761BB4
:103110002844AE426161A060E4D80BE00021FFF7D3
:10312000CDFA0146013039D0012925D02161CEE701
:1031300000212E46A068F2053044A06006D0206829
:10314000FFF754FAC0B100EB562500E000252089B6
:10315000C0052AD0A269954227D0A079400614D58F
:10316000206804F1240140780123FFF763FFA1796F
:1031700040B141F0800014E0A07940F08000A071DF
:10318000022070BD01F0BF00A071214651F8240B50
:103190002A4640780123FFF72FFF28B1A07940F09D
:1031A0008000A071012070BDA561D4E902018842B0
:1031B0009CBF002070BDA179E06041F02000A071AB
:1031C000002070BD00281CBF0B20704740F2BC2CB3
:1031D000C2F2000C5CF82030002B1CBF00221A70D9
:1031E00000291CBF00220A704CF8201000207047F4
:1031F0002DE9F0478EB0044600200D91206002F0CA
:103200001F0702F01E020DA804A9FFF7E1F805460A
:1032100001A80A9040F2D020C2F200000B9025B91C
:103220000D9904A800F014FC0546099E55EA060015
:1032300008BF062517F01C0F0CD0D5B3042D03D101
:1032400004A8FFF751FD0546099E47F00807002D29
:1032500069D137E0002D66D1F07AC10662D400F062
:103260000100B907404200EAE17000F00705002DB7
:103270005BD1049807F00801C06A47EA8107C4E9F6
:103280000706002D53D1A771307D717DB27E0004F9
:10329000F37E40EA0160104440EA03202061F069B7
:1032A0000499E0600020A060A0612160C888A0802F
:1032B0003DE0F07A10F0110F06BF082000EA470544
:1032C000072585BB38074FF000052CD500F0C0FC62
:1032D000C6F80E00307D717DB27E0004F37E40EAB8
:1032E0000160104440EA0329DDF810A00120B9F183
:1032F000000FF572F5617583B5828AF8040012D06B
:10330000DAF82C805046494601F06EF938B9A9F137
:103310000100CAF80C005046414601F001F805468C
:103320001DB9A6E70425002DA3D0002DABD028465B
:103330000EB0BDE8F087000010B584B004460391DC
:1033400003A821460022FFF743F808B104B010BDDE
:10335000684640F2D0220399C2F20002A0612046E2
:10336000E26100F075FBE8B9606988B1C17AC9060D
:1033700003D405200021A9B10DE0017D427D837EAB
:103380000904C07E41EA0261194441EA0020A060BC
:103390000020012131B120680021C088A080204692
:1033A000FFF7A8FD042808BF052004B010BD0000E9
:1033B0002DE9F04F81B004460F460068A1881646FB
:1033C00000229A461A6001F0EFF910B101B0BDE891
:1033D000F08FA079010600F1A080C00703D107207B
:1033E00001B0BDE8F08FD4E902014FF0000B081ADC
:1033F000B04238BF0646002E00F0878004F124005A
:10340000009027E02068009940784A460123FFF7A2
:10341000F3FD002840F08880C4F81890A0686FF38E
:103420005F20C0F500752044B54288BF354600F1E5
:10343000240138462A4600F059FFA0682F4428444A
:10344000A060DAF80000761B2844CAF800004FF0AC
:103450000000BBD0A168C805E0D120688278FF32A7
:1034600002EA51295FEA09620CD129B1616900F0D1
:1034700089FB012803D84CE02069012849D9411C67
:1034800052D06061256861692846FFF7AFF80028CF
:103490003FD05FFA89F1BBEB562F00EB010922D038
:1034A0004FEA5628AB7801EB080268789A4288BF49
:1034B000A3EB01085FFA88F339464A46FFF79CFD03
:1034C000A17970BB48060BD5A069A0EB0900404567
:1034D00006D2009907EB40204FF4007200F006FF7F
:1034E0004FEA4825A9E7A2694A4595D0A079400648
:1034F0007FF588AF687800990123FFF79BFDA179DC
:1035000078B901F0BF00A0717CE7002001B0BDE8F0
:10351000F08FA07940F08000A071022001B0BDE8DA
:10352000F08F41F0800002E0A07940F08000A071AF
:10353000012001B0BDE8F08FB0B584B00446A28888
:1035400000680D46114601F02FF908B104B0B0BD76
:10355000F5B140F2D02101A8C2F20001C4E9060190
:103560002046FFF76BFB042804BF002020610028E1
:10357000ECD12046294600F06DFB204600210025B5
:10358000FFF7C0FA042804BF2561002004B0B0BDD5
:1035900020460021FFF7AEFC04B0B0BD70B5044674
:1035A0000068A18801F000F9054608B1284670BD01
:1035B000A07981065CBF002070BD40060ED5206852
:1035C000A269407804F1240101230125FFF732FDAF
:1035D0000028EBD1A07900F0BF00A0712068E1695C
:1035E00000F09EFE00284FF00105DFD1266AF07A38
:1035F00040F02000F072E0683077E068000A7077F1
:10360000E089B077E07BF0772069B0762069000A26
:10361000F076608A3075E07C707500F019FBC6F8B2
:103620001600A07900F0DF012068A171057101F09A
:103630007DF80546284670BDB0B596B0159015A822
:103640000CA90122FEF7C4FE08B116B0B0BD684651
:10365000129040F2D020C2F20000159913900CA8ED
:1036600000F0F6F90028F0D1119941B1C87A00F0C4
:103670000100434280F0010C03F0070002E0062045
:103680004FF0000C0B7D4D7D8C7E1B04CA7E43EAFF
:1036900005632344BCF1000F43EA02241ED0C87A1C
:1036A000C00601D4002019E0022C01D2022015E04E
:1036B00003AD0CA92846242200F018FE284602215A
:1036C0000594FFF717FC48B903A8FFF7B7FA0146BE
:1036D000002808BF0721081F18BF08460028B4D1DA
:1036E0000CA8FFF7D9FB0028AFD124B10C982146D4
:1036F00000F07AFF00E000200028A6D10C9801F02D
:1037000015F816B0B0BD00002DE9F04F81B00446A9
:103710000F460068A188164600229A461A6001F0FA
:1037200043F810B101B0BDE8F08FA079010600F1B7
:10373000B780800703D4072001B0BDE8F08FE068B0
:10374000711EC043814280F09A8004F124081EE07B
:10375000C4F81890A06839466FF35F20C0F5007573
:103760002044B54288BF354624302A4600F0BEFDCD
:10377000A07940F04000A071A0682F442844A060C8
:10378000DAF80000761B2844CAF8000077D0A06859
:10379000C105DFD122689178FF3101EA50295FEA43
:1037A000096113D120B161691046FEF787FF06E079
:1037B000206920B910460021FEF780FF2061411CDE
:1037C00059D000285BD0012866D06061A0794006FE
:1037D0000CD52068A269407841460123FFF72AFCF6
:1037E000A179002860D101F0BF00A071256861694E
:1037F0002846FEF7FBFE00284ED05FFA89F1002232
:10380000B2EB562F00EB010923D04FEA562BAB78D1
:1038100001EB0B0268789A4288BFA3EB010B5FFAB9
:103820008BF339464A46FFF705FC20BBA069A0EBA5
:10383000090058450AD207EB402140464FF4007278
:1038400000F054FDA07900F0BF00A0714FEA4B25B5
:1038500092E7A06948453FF47BAFD4E90201884272
:10386000BFF476AF687841464A460123FFF7C4FBB0
:1038700000283FF46DAFA07940F0800016E0D4E955
:103880000201884288BFE060A07940F02000A0716A
:10389000002001B0BDE8F08FA07940F08000A07159
:1038A000022001B0BDE8F08F41F08000A07101203E
:1038B00001B0BDE8F08F0000802838BF704769B1C3
:1038C000FF2884BF0020704744F63401C0F6000191
:1038D00001EB40006FF0FF01405A704744F634029C
:1038E0000021C0F6000200BF32F81130834204D03C
:1038F0007F2901F10101F7D3802101F18000C0B2DD
:103900007047000044F620420021C0F6000200BFCC
:1039100032F81130834204D00131EF2908BF7047DB
:10392000F6E744F64020C0F6000030F8110070477A
:1039300070B50C46054600F0EDFBC2B2FB2A9CBFF9
:10394000501C70BDFE2A09D0FD2A1FD0FC2A29D1A7
:103950002846214600F0DEFBFD3070BD284621469A
:1039600000F0D8FB06462846214600F0D3FB0004B1
:1039700000EB06662846214600F0CCFB06EB00264D
:103980002846214600F0C6FB304470BD284621463B
:1039900000F0C0FB06462846214600F0BBFB00EBCA
:1039A000062070BD03A0A321FCF718FC4FF0FF30E8
:1039B00070BD00BF45514C20666F6C6C6F776564BD
:1039C00020627920756E6578706563746564206225
:1039D000797465202530327820253032780A00004D
:1039E0002DE9F0410D264B730F23564344F627086B
:1039F0004FF6FF7CA1F80B300023A6F10D0E4C1CF6
:103A0000C0F6000800264B83664518F803701CBFFB
:103A100030F81E600EF1010E002E03F10103CE55A9
:103A20004FEA162508BF66460D2BE555ECD16645D5
:103A300004D142F040020A70BDE8F08130F81E0067
:103A4000002808BF42F040020A70BDE8F081000083
:103A5000B0B582B00A7804465C2A019101D02F2AC1
:103A600001D1481C019000250198A560007820280C
:103A700006D220460021FFF73DFA656102B0B0BDD5
:103A800001A92046FEF770FE08B102B0B0BD01AD3D
:103A90002046FEF7D5FFA169C97AB8B948071ED4F8
:103AA0006069C17AC9061DD5017D427D837E090406
:103AB000C07E41EA0261194441EA0020A06020462C
:103AC0002946FEF751FE0028E2D0DEE70428DCD1CB
:103AD00048074FF0040058BF052002B0B0BD0020D9
:103AE00002B0B0BD052002B0B0BD000010B5044664
:103AF000C0B2FEF7C5F9204610BD000070B582B017
:103B000016460B221D46044600F0F0FB062D0CD392
:103B1000B01E00BF30F8022FA9B2EB03468843EA7B
:103B20005101002E01EB0205F4D10721684600BFC8
:103B300005F00F0202F13003392BC5F30B1588BFD6
:103B400002F137034354002DA1F10101F0D17E228F
:103B500042544FF0000249B10B4600BFA65C202E34
:103B600004D0013B02F10102F8D10A4607299ABFAD
:103B7000435C01312023A3540132082AF6D302B05A
:103B800070BD0000F0B581B0022931D305468069CF
:103B90000C4688422CD9287803282CD0022845D0FE
:103BA00001284AD1286A04EB540700EB5721284624
:103BB00000F0B6FB002840D17E1C6FF35F27296A16
:103BC000E81990F8307001EB5621284600F0A8FB68
:103BD00098BB6FF35F26A81990F83000E20747EA18
:103BE000002108466FF31F3018BF080901B0F0BD6F
:103BF000012001B0F0BD286A00EBD411284600F086
:103C00008FFBD0B904F07F0005EB800090F83230D4
:103C100090F8301090F8312090F833001B0460F3D6
:103C20001B6343EA0220084401B0F0BD286A00EBA0
:103C30001421284600F074FB18B14FF0FF3001B09A
:103C4000F0BDE0B205EB4000008E01B0F0BD000019
:103C5000002070472DE9F04702698A46002A01F1E9
:103C6000090148D04269002692F80CC00CF0080502
:103C70000FE000BFE527A7F14103DBB21A2B3B465B
:103C800038BF2033002D08BF3B468B550136082E28
:103C900004D0975D052FEDD0202FECD1137A0AEBDD
:103CA00006010931202B1AD02E2301F8013B0CF01C
:103CB000100C02F108060023F75C202F0ED0A7F1AC
:103CC0004104E4B23D461A2C38BF2035BCF1000F48
:103CD00008BF3D46CD540133032BEDD11944D37AAF
:103CE0008AF80830D369CAF80030138BAAF8043078
:103CF000D28AAAF8062000220A70DAF818505DB3BA
:103D0000DAF81C10002908BFBDE8F08701694FF000
:103D10000008F1B1018C4FF6FF72914219D0C169D0
:103D20000888B0B101F10209002700BF80B200216C
:103D30000026FFF7C1FD68B1DAF81C1001398F4287
:103D400007D2E85539F817007E1C00283746EDD118
:103D500000E0002605F80680BDE8F08780B5016820
:103D6000416840F6D802C2F200021160006880F398
:103D700008881068804780BD84B02DE9F04F81B07D
:103D8000CDE90A014FF0FF300D930C90129018907E
:103D90002098DDE922780AAC249904F1180504F191
:103DA000300600284FF00000CDE90E70CDE91480F8
:103DB000CDE91A1020D0616DF1B1236D3846002194
:103DC00002229847616D38468847236DE065384682
:103DD000002100229847236D404600210222984787
:103DE000616D40468847E16D236D0844E0654046BB
:103DF00000210022984700E0A06544F6B41B4FF074
:103E00000108C0F6000B0FF2E8194FF0000A00BFDE
:103E10002046294600F07EF9A72840F096802046EB
:103E2000294600F077F90146A23804281BD8DFE8BC
:103E300000F00C2459036800204621462A463346E8
:103E4000CDF800A000F0E6FAE2E720462946FFF7A9
:103E50006FFD471C5ED041422046012200F03CF934
:103E6000002FD5D1ABE0481C40F08D8020464FF0AC
:103E7000FF31012200F030F9CAE720462946FFF75A
:103E800057FD411C00F08D800128C1DBA0F1010825
:103E90002046214600F03EF9074610F1020F0DDCE6
:103EA00048463946FCF79AF96169E26A636C5846FC
:103EB000FCF794F9B7F1FF3F08DA0CE038462146E9
:103EC000324600F05BF9B7F1FF3F04DBB8F1000FB9
:103ED000A8F10108DCD1B7F1FF3F4FF00108BFF6B0
:103EE00097AF6EE020462946FFF722FD471C1ED003
:103EF00001462046012200F0EFF8002F7FF488AF42
:103F000021E0204621462A463346CDF8008000F0C5
:103F100081FA7DE731A0FCF7FDFA6169E26A636C22
:103F20005846FCF75BF9002F7FF472AF47E026A0FC
:103F3000FCF7F0FA6169E26A636C5846FCF74EF9E7
:103F4000002F7FF465AF012018E00146013005D154
:103F50002046314600F07AF800200FE044F60220B7
:103F6000C0F60000FCF73AF96169E26A636C44F656
:103F7000B410C0F60000FCF731F9012001B0BDE833
:103F8000F04F04B070472AA0FCF728F96169E26A93
:103F9000636C44F6B410C0F60000FCF71FF9012072
:103FA000ECE71EA0FCF7B6FA6169E26A636C44F6BE
:103FB000B410C0F60000FCF711F90120DEE7012083
:103FC000DCE70120DAE700BF44454C206C656E67F2
:103FD000746820696E76616C69640000424B5420FD
:103FE0006C656E67746820696E76616C6964000048
:103FF00066726561642072657475726E65642025F1
:10400000642C206275742065787065637465642023
:104010006368617261637465720A000045514C20E7
:104020006C656E67746820696E76616C6964000007
:10403000556E737570706F72746564206F70657201
:1040400061746F7220253032780A0000F0B581B0BB
:104050000C4649686369A268B3FBF1F7054607FBA4
:104060001136974218BF12F101000AD05143204681
:10407000002200F031F82168E2682846234600F06B
:1040800031F86068002200FB07F1204600F024F8B8
:10409000216828463246234600F024F8A96D09B16C
:1040A0006420884701B0F0BDF0B581B01C461546CC
:1040B0000646036DD4E904020F46114600229847D4
:1040C000B66C2369384601212A46B047616901442C
:1040D000616101B0F0BD0000002A1CBF42691144BB
:1040E00041617047F0B581B01C4615460646036D28
:1040F000D4E904020F46114600229847F66C236962
:10410000384601212A46B04761690844606101B020
:10411000F0BD0000F0B581B04E69002E25D40C46EC
:104120000546D1E90101B6FBF0F78F420DD007FB40
:1041300000F120460022FFF7CFFFD4E90012284605
:104140002346FFF7B1FFC4E902706068E268B6FB7E
:10415000F0F101FB106090420AD2216800220D5C50
:10416000711C2046FFF7B8FF04E04FF0FF3501E077
:104170004FF0FF35284601B0F0BD00002DE9F041B9
:104180005769002F48BFBDE8F0810E468046D2E94E
:1041900001011446B7FBF0F58D4225D04A1C13D01F
:1041A000414320460022FFF797FF2168E26830462E
:1041B0002346FFF797FFB16D31B16420F26D78436C
:1041C00090FBF2F0C0B288476068002200FB05F166
:1041D0002046FFF781FFD4E9001230462346FFF75F
:1041E00063FF6068C4E9025060682268B7FBF0F1C1
:1041F00001FB1070791C02F8008020460022FFF7B6
:104200006BFFBDE8F0810000C8B0FDF7EFFD4FF493
:104210001650FEF7BFFB4FF41650FCF753FF482033
:10422000FCF7D6FDFDF736FAFDF758FC1FA0FCF7AA
:1042300071F940F6DC0440F2C8080DF18C0942F631
:104240001D25C2F20004C2F200081AA7C0F600053C
:1042500009F1100603E000BF0120FCF7D1FD204664
:10426000FCF760FF0028F7D020880028F4D04046F3
:104270004946FCF785FC01463846FBF7AFFF684628
:1042800080223146219551F8043B043A40F8043B22
:10429000F9D111F8012B23AB00F8012B11F8012BF8
:1042A00000F8012B0FCBFCF725FED5E768656C6C99
:1042B0006F0000000A2D2853697A65202020203ADB
:1042C000202564292D0A0000002300BF0B2B09D0F4
:1042D00010F803C0CA5C0133BCEB02021CBF1046DD
:1042E0007047F3E70022104670470000002A08BF1D
:1042F00070470139013800BF11F8013F013A00F859
:10430000013FF9D170470000002A08BF704780B50F
:10431000CBB211461A46FCF777F9BDE880407047EA
:104320002DE9F041C66A8E4202D10020BDE8F0813D
:10433000044600790D4618B3607804F13008414610
:10434000324601230127FEF775FE10B13846BDE85D
:10435000F081D4E9070100220844864222710FD27D
:10436000E778022F0CD300BFE16960780E44414624
:1043700032460123FEF75EFE013FF8B20128F3D872
:10438000002DD2D0607804F130012A4601230127A4
:10439000FEF732FE002804BFE56200273846BDE87C
:1043A000F0810000B0B50A780D2302F03F025A43B5
:1043B00044F6270EA2F10D0C01220023C0F6000ED8
:1043C0004FF6FF7407E000BFA5424FF000021CD17A
:1043D00001330D2B0DD01EF80350002A4D5BF3D096
:1043E000BCF1FE0F13D820F81C500CF1010C2A462A
:1043F000EEE7097849065CBF0120B0BD0022BCF1A0
:10440000FE0F9CBF20F81C2001221046B0BD0020EA
:10441000B0BD00002DE9F04381B0DDF82090984652
:1044200015460E4607460AE030464FF0FF3101229E
:104430000124FFF751FE44F0020002284CD1384617
:104440002946FFF767FEA72810D0411CECD039465B
:104450004246FFF793FEB9F1000F1CD03046012110
:104460000122FFF739FE0224E5E700BF384629465E
:10447000FFF750FEA72810D004460130D4D0A4F195
:10448000A200042814D828466FF001010122FFF78A
:1044900023FE0324CFE70224CDE7A7203946424676
:1044A000FFF76CFEB9F1000F14D0304601210EE089
:1044B000A72039464246FFF761FE2046394642466C
:1044C000FFF75CFEB9F1000F04D030460221012253
:1044D000FFF702FE0024AEE701B0BDE8F083000064
:1044E0002DE9F041022917D3044680690E4688421F
:1044F00012D920781546032812D0022819D0012895
:1045000020D1206A06EB560700EB57212046FFF723
:1045100007FFC8B101264EE002263046BDE8F08113
:10452000206A00EBD6112046FFF7FAFEB8B101264B
:1045300041E0206A00EB16212046FFF7F1FE20B390
:10454000012638E0022636E038466FF35F2020442B
:1045500016F0010800F130001DD1E9B220E006F0AC
:104560007F0004EB800090F833102A0A01F0F0017C
:1045700045EA016180F831202A0C090E80F830509C
:1045800080F8322080F8331003E0F0B204EB4000F2
:10459000058600260FE0017801F00F0165F30B118D
:1045A0000170206A0137012600EB57212046267151
:1045B000FFF7B6FE20B1012020713046BDE8F08142
:1045C0006FF35F27E019B8F1000F00F1300007D159
:1045D0000178C5F3032201F0F00111440170D8E71E
:1045E000C5F307110170D4E7F0B581B0022923D3D8
:1045F000044680690D4688421ED9A069A84218D990
:10460000012700BF20462946FFF7BCFA06460130C5
:10461000032814D3204629460022FFF761FF88B9FA
:104620002069354601301CBF20616771A069864250
:10463000E8D3002001B0F0BD022001B0F0BD02A11E
:1046400051F8200001B0F0BD0100000000000000A2
:10465000020000002DE9F041ADF50A7D0E46196813
:1046600001AF15468046384601221C46FEF7C0FDC4
:10467000D4E901106E434A19824288BF461A38466F
:10468000FEF7FAFC6B46384641463246FEF790FE8E
:104690003846FEF7E7FC30460DF50A7DBDE8F081AF
:1046A00082688A4232BF4FF0FF304160002070477D
:1046B0002DE9F041ADF50A7D0E46196801AF1546AA
:1046C0008046384612221C46FEF792FDD4E90110BE
:1046D0006E434A19824288BF461A3846FEF7CCFC20
:1046E0006B46384641463246FFF70EF83846FEF72D
:1046F000B9FC30460DF50A7DBDE8F081002814BFF5
:1047000040684FF0FF30704700224FF0FF3100BF8C
:10471000D2B200EB010C530843EAC2129CF80130FC
:1047200001310A291A44F3D1D0B2704770B5002183
:104730000446FFF7F5FD00281CBF012070BD20785E
:10474000032827D1607928B304F1300500262846D4
:1047500000214FF40072E662FFF7D6FD4AF65520BD
:10476000A4F82E0245F25220C4F26110206347F2F1
:104770007220C6F24110C4F81402D4E90310626931
:10478000C4F818026078C4F81C1229460123FEF709
:1047900051FC6671607800210022FEF709FC0028B8
:1047A00018BF012070BD000080B568B102785AB111
:1047B000C2888A4208D14078FEF736FC00F001003A
:1047C000404200F0030080BD092080BD30380A2837
:1047D00001D2012070470020704730313233343528
:1047E000363738394142434445464030580030312D
:1047F0003233343536373839616263646566403048
:104800007800040000080000000000000002000121
:104810000000100204060800000000010203040169
:104820000203040607080901030507090E10121404
:1048300016181C1EC700FC00E900E200E400E000BE
:10484000E500E700EA00EB00E800EF00EE00EC0016
:10485000C400C500C900E600C600F400F600F2007E
:10486000FB00F900FF00D600DC00A200A300A500B9
:10487000A7209201E100ED00F300FA00F100D10061
:10488000AA00BA00BF001023AC00BD00BC00A1000C
:10489000AB00BB0091259225932502252425612597
:1048A0006225562555256325512557255D255C250F
:1048B0005B251025142534252C251C2500253C2599
:1048C0005E255F255A2554256925662560255025D6
:1048D0006C256725682564256525592558255225A9
:1048E00053256B256A2518250C25882584258C25BC
:1048F00090258025B103DF009303C003A303C30306
:10490000B500C403A6039803A903B4031E22C6037B
:10491000B50329226122B1006522642220232123CC
:10492000F7004822B0001922B7001A227F20B200F7
:10493000A025A000809A90418E418F804545454931
:1049400049498E8F9092924F994F555559999A9BFC
:104950009C9D9E9F41494F55A5A5A6A7A8A9AAAB76
:10496000AC21AEAFB0B1B2B3B4B5B6B7B8B9BABB9B
:10497000BCBDBEBFC0C1C2C3C4C5C6C7C8C9CACBFF
:10498000CCCDCECFD0D1D2D3D4D5D6D7D8D9DADBEF
:10499000DCDDDEDFE0E1E2E3E4E5E6E7E8E9EAEBDF
:1049A000ECEDEEEFF0F1F2F3F4F5F6F7F8F9FAFBCF
:1049B000FCFDFEFF506F736974696F6E7320617246
:1049C000652C20736F757263653D256C6420706182
:1049D0007463683D256C64206E65773D256C640AC0
:1049E000004B696368207468756F632066696C6545
:1049F000202573206C6120256C64206279746573B6
:104A00000A004578706563746564204553432062ED
:104A1000757420676F7420253032780A00737472C1
:104A2000696E67206C656E202020203A2025640A7C
:104A300000636D6420202020203A2025780A0000A1
:104A40004100420043004400450046004700480042
:104A500049004A004B004C004D004E004F005000F2
:104A600051005200530054005500560057005800A2
:104A700059005A002100E0FFE1FFE5FFE2FFE3FFFC
:104A8000C000C100C200C300C400C500C600C7000A
:104A9000C800C900CA00CB00CC00CD00CE00CF00BA
:104AA000D000D100D200D300D400D500D600D80069
:104AB000D900DA00DB00DC00DD00DE007801000157
:104AC00002010401060108010A010C010E01100196
:104AD00012011401160118011A011C011E01200106
:104AE00022012401260128012A012C012E01300176
:104AF00032013401360139013B013D013F014101E1
:104B00004301450147014A014C014E015001520148
:104B10005401560158015A015C015E0160016201B5
:104B20006401660168016A016C016E017001720125
:104B30007401760179017B017D019101910392035A
:104B400093039403950396039703980399039A0399
:104B50009B039C039D039E039F03A003A103A30348
:104B6000A403A503A603A703A803A903AA0310048B
:104B70001104120413041404150416041704180471
:104B800019041A041B041C041D041E041F04200421
:104B900021042204230424042504260427042804D1
:104BA00029042A042B042C042D042E042F040104B0
:104BB00002040304040405040604070408040904A9
:104BC0000A040B040C040E040F046021612162210D
:104BD00063216421652166216721682169216A2199
:104BE0006B216C216D216E216F2121FF22FF23FF9C
:104BF00024FF25FF26FF27FF28FF29FF2AFF2BFF81
:104C00002CFF2DFF2EFF2FFF30FF31FF32FF33FF30
:104C100034FF35FF36FF37FF38FF39FF3AFF00001A
:104C20006100620063006400650066006700680060
:104C300069006A006B006C006D006E006F00700010
:104C400071007200730074007500760077007800C0
:104C500079007A00A100A200A300A500AC00AF007B
:104C6000E000E100E200E300E400E500E600E70028
:104C7000E800E900EA00EB00EC00ED00EE00EF00D8
:104C8000F000F100F200F300F400F500F600F80087
:104C9000F900FA00FB00FC00FD00FE00FF0001012E
:104CA00003010501070109010B010D010F011101AC
:104CB00013011501170119011B011D011F0121011C
:104CC00023012501270129012B012D012F0131018C
:104CD0003301350137013A013C013E0140014201F7
:104CE0004401460148014B014D014F01510153015F
:104CF0005501570159015B015D015F0161016301CC
:104D00006501670169016B016D016F01710173013B
:104D1000750177017A017C017E019201B103B20332
:104D2000B303B403B503B603B703B803B903BA03B7
:104D3000BB03BC03BD03BE03BF03C003C103C30366
:104D4000C403C503C603C703C803C903CA033004A9
:104D5000310432043304340435043604370438048F
:104D600039043A043B043C043D043E043F0440043F
:104D700041044204430444044504460447044804EF
:104D800049044A044B044C044D044E044F0451049E
:104D90005204530454045504560457045804590447
:104DA0005A045B045C045E045F047021712172216B
:104DB00073217421752176217721782179217A2137
:104DC0007B217C217D217E217F2141FF42FF43FF0A
:104DD00044FF45FF46FF47FF48FF49FF4AFF4BFF9F
:104DE0004CFF4DFF4EFF4FFF50FF51FF52FF53FF4F
:104DF00054FF55FF56FF57FF58FF59FF5AFF000059
:104E0000204E000800000020680000002801000873
:104E1000884E000868000020B840000044010008E7
:104E200000A24A04D81A0020001000000000000070
:104E3000000000000000000000000000D82A002050
:104E40000010000000000000000000000000000052
:104E500000000000E008002000100000000000003A
:104E6000000000000000000000000000554600089F
:104E7000B1460008A1460008FD46000800000000F9
:084E800000000000FFFFFFFF2E
:04000005080000ED02
:00000001FF
