:020000040800F2
:10600000D00D002099610008A1610008A36100087B
:10601000A5610008A7610008A96100080000000050
:10602000000000000000000000000000AB6100085C
:10603000AD61000800000000AF610008B161000818
:10604000B3610008B3610008B3610008B3610008E0
:10605000B3610008B3610008B3610008B3610008D0
:10606000B3610008B3610008B3610008B3610008C0
:10607000B3610008B3610008B3610008B3610008B0
:10608000B3610008B3610008B3610008B3610008A0
:10609000B3610008B3610008B3610008B361000890
:1060A000B3610008B3610008B3610008B361000880
:1060B000B3610008B361000800000000B36100088C
:1060C000B36100080000000000000000B361000898
:1060D0000000000015780008B3610008000000000F
:1060E000B3610008B3610008B361000800F002F872
:1060F00000F042F80AA090E8000C82448344AAF120
:106100000107DA4501D100F037F8AFF2090EBAE81D
:106110000F0013F0010F18BFFB1A43F001031847DB
:1061200058A0000078A00000103A24BF78C878C1B9
:10613000FAD8520724BF30C830C144BF04680C608D
:10614000704700000023002400250026103A28BFD5
:1061500078C1FBD8520728BF30C148BF0B607047D9
:10616000642900F0A380732900F0A8810020704703
:106170001FB51FBD10B510BD00F0ECF91146FFF7BB
:10618000F7FF03F0EBF800F00AFA03B4FFF7F2FFB1
:1061900003BC00F011FA0000094880470948004795
:1061A000FEE7FEE7FEE7FEE7FEE7FEE7FEE7FEE7C7
:1061B000FEE7FEE704480549054A064B7047000024
:1061C00079770008ED600008D0070020D00D00208E
:1061D000D0090020D00900200FB4044910B503AA4B
:1061E000029800F06FF910BC5DF814FB2400002049
:1061F0002DE9F0410E460446002020622046E16869
:10620000884730B3252805D0D4E901219047206A7A
:10621000401CF2E7E168204600278847050018D0B7
:10622000A5F14100192802D820354FF40067324605
:10623000294620462760FFF793FF40B1012804D08C
:10624000F61D26F007060836D8E7361DD6E728469D
:10625000DAE7206ABDE8F08170B50C460546012AF0
:1062600005D02878800600D5EA69002302E00123E2
:1062700005E05B1C934202D2E05C0028F9D1A869DA
:10628000E618C01AA861286A184428622846AFF3A5
:10629000008004E0D5E9012114F8010B9047B442D5
:1062A000F8D32846AFF3008070BD00002DE9F0411F
:1062B0000646002410687529314616A510D0AFF3A4
:1062C0000080002802DA404213A507E031688A07FF
:1062D00001D512A502E0490704D511A5012401E06A
:1062E000AFF3008000210A2206F1240709E0B0FB89
:1062F000F2FCB0FBF2F302FB1C003030785418467D
:10630000491C0028F3D123462A463046BDE8F04117
:1063100000F050B8000000002D0000002B0000002D
:1063200020000000032A40F2308010F0030C00F03F
:10633000158011F8013BBCF1020F624498BF11F8BF
:1063400001CB00F8013B38BF11F8013BA2F1040278
:1063500098BF00F801CB38BF00F8013B11F00303F0
:1063600000F0C280083AC0F0088051F8043B083AB7
:1063700051F804CBA0E80810F5E7121D5CBF51F8F6
:10638000043B40F8043BAFF30080D20724BF11F870
:10639000013B11F801CB48BF11F8012B24BF00F8D5
:1063A000013B00F801CB48BF00F8012B7047704754
:1063B000704770472DE9F0470D46994692460446CE
:1063C00000F124080168880604D5E06921F0100175
:1063D000216000E00120A84201DD471B00E000270A
:1063E000A1697A1902EB0900081AA0612078C00699
:1063F00002D42046AFF30080002608E0D4E9012152
:106400001AF806009047206A401C761C20624E4510
:10641000F4DB2078C0060AD52046AFF3008006E002
:10642000D4E9012130209047206A401C2062381EA8
:10643000A7F10107F4DC07E0D4E9012118F8050011
:106440009047206A401C2062281EA5F10105F3DC5C
:106450002046AFF300802078000602D50220BDE878
:10646000F0870120FBE7000001694A1C02610878FF
:10647000704700B58FB0CDE9013100210591054984
:106480007944CDE9031011466846FFF7B1FE0FB01D
:1064900000BD0000E5FFFFFF10B5436913B1AFF386
:1064A000008001E0FFF7D8FE012010BD127800F156
:1064B00024010A7000224A700122EDE711684FF0B2
:1064C000FF32E9E7074B70B50D467B44FFF7D1FF7C
:1064D0000446284600F03AF810B14FF0FF3070BD86
:1064E000204670BDED2C000010B5203AC0F00B80A6
:1064F000B1E81850203AA0E81850B1E81850A0E8C8
:106500001850BFF4F5AF5FEA027C24BFB1E8185021
:10651000A0E8185044BF18C918C0BDE810405FEA91
:10652000827C24BF51F8043B40F8043B08BF70470D
:10653000D20728BF31F8023B48BF11F8012B28BF12
:1065400020F8023B48BF00F8012B7047007B00F0A9
:1065500080007047754600F02BF8AE46050069468E
:10656000534620F00700854618B020B5FFF722FEFD
:10657000BDE820404FF000064FF000074FF0000844
:106580004FF0000B21F00701AC46ACE8C009ACE8C5
:10659000C009ACE8C009ACE8C0098D46704710B529
:1065A0000446AFF300802046BDE81040FFF7EDBD84
:1065B000004870477007002001491820ABBEFEE775
:1065C000260002007047000070B505460C46012009
:1065D000224908600020224908602248008825548A
:1065E00020480088401C1F4908801F48007820B1BF
:1065F000012810D002282ED11BE01A48008802285A
:1066000008D12078A52802D000F05EF802E0012031
:10661000154908701FE013480088042808D1E17864
:10662000A07800F029F81149088002200E4908706E
:1066300011E00C4801880D480088001D814209D1F5
:1066400001200B4908700748008800B209490880FA
:1066500000F03AF800BF00BF70BD0000400000200D
:106660003C00002038000020440000203A000020B8
:10667000360000203400002008B502468DF80020C6
:106680008DF80110BDF8000008BD30B502460B467C
:106690004FF6FF700021002400BF12E0555C6840F7
:1066A00008240AE000F0010525B140104AF2010576
:1066B000684000E04010651EACB2002CF2D14D1CC9
:1066C000A9B29942EADB30BD00200549088005499E
:1066D0000880054908600549086005490870704749
:1066E000380000203A0000203C000020400000203C
:1066F000440000202DE9F04104460D4600272646BF
:106700007288521E331D995C7288921E985CFFF746
:10671000B3FFA6F8900030782870707868707088A1
:1067200068806888821E311D281DFFF7FBFDB6F8C2
:106730009000A5F890006888801C87B22878A5286A
:1067400003D04FF0FF30BDE8F081F9B22046FFF7EB
:106750009CFFB5F89010884202D04FF0FF30F2E76E
:10676000B81C00B2EFE700004FF0E021096921F00A
:1067700004014FF0E0221161C21700EB5272C2F324
:10678000C702074B1A701946097801EB4102C2EBA8
:10679000C1114FF6FF7202EAC101024A118070472F
:1067A000000000200200002001460D4A12884A43E2
:1067B0004FF0E0235A6100229A6101221A6100BF62
:1067C0004FF0E022106900F001021AB100F48032AB
:1067D000002AF5D000224FF0E0231A619A61704739
:1067E0000200002010B50121102000F0B9FD0121A8
:1067F000082000F0B5FD4FF4005009490880102032
:10680000C87003208870074800F010F80120044980
:1068100008802820C870044800F008F810BD000067
:106820000800002000100140000C01402DE9F0415B
:10683000024600250026002000230024002791F8AE
:1068400003C00CF00F0591F803C00CF0100CBCF164
:10685000000F03D091F802C04CEA050591F800C082
:10686000BCF1000F31D0146800202BE04FF0010C78
:106870000CFA00F3B1F800C00CEA03069E4220D1E6
:1068800083004FF00F0C0CFA03F7BC4305FA03FC2E
:106890004CEA040491F803C0BCF1280F06D14FF074
:1068A000010C0CFA00FCC2F814C00AE091F803C015
:1068B000BCF1480F05D14FF0010C0CFA00FCC2F8F6
:1068C00010C0401C0828D1D31460B1F800C0BCF13E
:1068D000FF0F34DD546800202EE000F1080C4FF06B
:1068E000010808FA0CF3B1F800C00CEA03069E4256
:1068F00021D183004FF00F0C0CFA03F7BC4305FACB
:1069000003FC4CEA040491F803C0BCF1280F05D144
:1069100000F1080C08FA0CF8C2F8148091F803C0D2
:10692000BCF1480F07D100F1080C4FF0010808FA3C
:106930000CF8C2F81080401C0828CED35460BDE883
:10694000F0810AB1016100E04161704710B5044671
:1069500000F042FF07480078012809D100200649CD
:10696000086004490870054800882080012010BD97
:106970000020FCE73600002040000020340000200A
:1069800030B588B00446FF220021092000F068FCE1
:10699000C5B215B1284608B030BD0122102104A8A7
:1069A00000F022FC08B10120F5E7FF2200210A20B7
:1069B00000F056FCC5B20DB12846ECE701221021CB
:1069C000684600F011FC08B10220E4E79DF81000D1
:1069D000800920709DF81000C0F3830060709DF85E
:1069E000100000F00300A0709DF81100E0709DF809
:1069F000120020719DF8130060719DF814000001D1
:106A0000E080E0889DF8151040EA1110E0809DF8C4
:106A1000150000F00F0020729DF81600C00960728A
:106A20009DF81600C0F38010A0729DF81600C0F308
:106A30004010E0729DF81600C0F300102073002093
:106A400060739DF816008007000D206120699DF895
:106A5000171040EA8100206120699DF8181040EA73
:106A6000911020619DF81800C0F3C20020759DF8B8
:106A7000180000F0070060759DF819004009A07526
:106A80009DF81900C0F38200E0759DF81900800799
:106A9000400F2076207E9DF81A1040EAD110207613
:106AA0009DF81A00C0F3840060769DF81A008007F4
:106AB000C00EA076A07E9DF81B1040EA5110A07673
:106AC0009DF81B0000F01F00E0769DF81C00C00937
:106AD00020779DF81C00C0F3411060779DF81C00E2
:106AE000C0F38200A0779DF81C008007000FE077BC
:106AF000E07F9DF81D1040EA9110E0779DF81D00A1
:106B0000C0F3401084F82000002084F821009DF894
:106B10001D0000F0010084F822009DF81E00C0094D
:106B200084F823009DF81E00C0F3801084F8240030
:106B30009DF81E00C0F3401084F825009DF81E004B
:106B4000C0F3001084F826009DF81E00C0F38100F9
:106B500084F827009DF81E0000F0030084F8280048
:106B60009DF81F00400884F82900012084F82A00BD
:106B700094F84E00042808D19DF818000002206106
:106B800020699DF81910084420612069C0046064E0
:106B90004FF40070A0649DF8000084F82C009DF86C
:106BA00001000102E185E08D9DF802100843E085B7
:106BB0009DF8030001062163206B9DF8041040EA54
:106BC00001412163206B9DF8051040EA01212163FA
:106BD000206B9DF80610084320639DF807103420B1
:106BE00001559DF80810352001559DF80900010652
:106BF000A163A06B9DF80A1040EA0141A163A06B5C
:106C00009DF80B1040EA0121A163A06B9DF80C10C8
:106C10000843A0633C20005D9DF80D1040EA11116F
:106C20003C2001559DF80D000007010DE187E08F24
:106C30009DF80E100843E0879DF80F0041084020A2
:106C400001550121412001550020A4E67CB500201A
:106C500000900190002401E0601C84B2FF2CFBDD59
:106C6000002404E0FF2000F065FB601C84B20A2CC5
:106C7000F8DB00240BE095220021084600F0F0FA32
:106C8000C5B2012D01D1002405E0601C84B240F69C
:106C9000FF708442EFDB00BF40F6FF70844201D1F9
:106CA00001207CBD87224FF4D571082000F010FB35
:106CB000C5B2052D5CD10120704981F84E0010202D
:106CC0006F490860FF2000F035FB002414E000222B
:106CD0001146372000F0C4FAC5B2012D01D0284674
:106CE000DFE700221146292000F0BAFAC5B20DB93B
:106CF000002405E0601C84B240F6FF708442E6DBAD
:106D000000BF40F6FF7084421BD100240AE000223D
:106D10001146012000F0A4FAC5B20DB9002405E027
:106D2000601C84B240F6FF708442F0DB00BF40F686
:106D3000FF70844201D10220B3E700204F4981F85F
:106D40004E00012000F000F9012200213B2000F05C
:106D500087FAC5B20DB12846A3E7FF224FF40071B0
:106D6000102000F07DFAC5B2002D7DD0284698E7AE
:106D7000012D79D1FF2000F0DDFAC0B28DF80000BE
:106D8000FF2000F0D7FAC0B28DF80100FF2000F01C
:106D9000D1FAC0B28DF80200FF2000F0CBFAC0B2E9
:106DA0008DF80300102036490860FF2000F0C2FA79
:106DB0009DF8020001285FD19DF80300AA285BD14D
:106DC000002415E000221146372000F049FAC5B230
:106DD000012D01D0284664E700224FF08041292090
:106DE00000F03EFAC5B20DB9002405E0601C84B283
:106DF00040F6FF708442E5DB00BF40F6FF7084423E
:106E000001D103204DE7002211463A2000F060FA3C
:106E1000C5B20DB1284644E7FF2000F08BFAC0B29E
:106E20008DF80000FF2000F085FAC0B28DF8010057
:106E3000FF2000F07FFAC0B28DF80200FF2000F0C2
:106E400079FAC0B28DF8030010200D490860FF20C8
:106E500000F070FA9DF8000000F0400028B1042016
:106E6000064981F84E0004E006E00220034981F85B
:106E70004E00012000F068F8002012E718050020FD
:106E8000100801402DE9F04105460E4617461B4803
:106E900090F84E00042800D06D02002229461220EE
:106EA00000F0DEF900F0FF08B8F1000F02D0012079
:106EB000BDE8F081002412E006EB442000224FF4EC
:106EC000007100F091F948B1002211460C2000F049
:106ED000C7F910200A4908600220E9E7641CBC4297
:106EE000EAD3002211460C2000F0BAF91020044920
:106EF0000860FF2000F01EFA0020D9E718050020E6
:106F00001008014070B504460E460E4890F84E0039
:106F1000042800D0640200222146112000F0A0F9CC
:106F2000C5B20DB1012070BD01225102304600F002
:106F30005BF9C5B2002211460C2000F091F92846F9
:106F4000F1E700001805002010B586B004460020C7
:106F5000ADF804004FF48270ADF806000020ADF8E3
:106F600008000220ADF80A000120ADF80C00400234
:106F7000ADF80E000020ADF812000720ADF81400A7
:106F80001CB93820ADF8100002E01020ADF8100058
:106F900001A9024800F00BFB06B010BD0030014013
:106FA00008B50121080300F0DBF901210D2000F0F4
:106FB000D7F9E020ADF8000003208DF8020018207A
:106FC0008DF8030069460E48FFF730FC1020ADF83D
:106FD000000003208DF8020010208DF803006946A0
:106FE0000748FFF723FC10200549103108600020F6
:106FF000FFF7AAFF0121034800F0CDFA08BD000009
:1070000000080140003001402DE9F04705460E46DA
:107010001746414890F84E00042800D06D023E48C3
:1070200090F84E0020B100223946172000F018F9E0
:1070300000222946192000F013F9C4B214B101202E
:10704000BDE8F087102035490860FF2000F072F994
:107050004FF000083AE0FC2000F06CF94FF0000916
:1070600007E016F8010B00F065F909F101001FFABD
:1070700080F9B9F5007FF4DBFF2000F05BF9FF2019
:1070800000F058F9FF2000F055F9C4B204F01F00D9
:10709000052805D010202149091F08600220CFE7EC
:1070A0004FF0000A0BE050460AF1010AB0F5802FBC
:1070B00005D110201949091F08600320C0E7FF20EF
:1070C00000F038F9FF28EED108F10108B845C2D325
:1070D000FD2000F02FF9C4B20CB90420B0E74FF046
:1070E000000A0BE050460AF1010AB0F5802F05D1E5
:1070F00010200A49091F08600520A1E7FF2000F0C1
:1071000019F9FF28EED110200449091F0860FF205B
:1071100000F010F9002093E7180500201408014042
:107120002DE9F04104460D462D4890F84E00042804
:1071300000D0640200222146182000F091F8C6B267
:1071400016B10120BDE8F081102026490860FF201B
:1071500000F0F0F8FF2000F0EDF8FF2000F0EAF872
:10716000FE2000F0E7F8002705E015F8010B00F01D
:10717000E1F8781C87B2B7F5007FF6DBFF2000F05E
:10718000D9F8FF2000F0D6F8FF2000F0D3F8C6B2FF
:1071900006F01F00052805D010201249091F0860BD
:1071A0000220CFE74FF000080BE0404608F101084D
:1071B000B0F5802F05D110200A49091F086003206F
:1071C000C0E7FF2000F0B6F80028EED010200549F7
:1071D000091F0860FF2000F0ADF80020B2E70000B2
:1071E000180500201408014070B503460C461546EA
:1071F00010201A490860002209E0FF2000F09AF8E8
:10720000C6B2FE2E01D1002204E0501C82B2B2F5BB
:10721000FA6FF2DB00BFB2F5FA6F05D110200F490B
:10722000091F0860012070BD002205E0FF2000F06A
:1072300081F89854501C82B2A242F7DBFF2000F084
:1072400079F8FF2000F076F835B110200349091FC6
:107250000860FF2000F06EF80020E4E71408014009
:1072600070B504460B461546FF2000F063F8102069
:107270001649086044F0400000F05CF8180E00F079
:1072800059F8C3F3074000F055F8C3F3072000F0A6
:1072900051F8D8B200F04EF8284600F04BF800261E
:1072A00008E0FF2000F046F8C2B2FF2A00D003E059
:1072B000701CC6B2C82EF4DB00BF10200349091FA2
:1072C0000860FF2000F036F8104670BD1408014039
:1072D00070B504460B461546FF2000F02BF8102031
:1072E0001349086044F0400000F024F8180E00F044
:1072F00021F8C3F3074000F01DF8C3F3072000F0A6
:1073000019F8D8B200F016F8284600F013F8002655
:1073100008E0FF2000F00EF8C2B2FF2A00D003E020
:10732000701CC6B2C82EF4DB00BF104670BD000052
:1073300014080140014600BF0848008900F002001F
:107340000028F9D00548818100BF0448008900F079
:1073500001000028F9D001488089704700300140C1
:1073600029B1064A92690243044B9A6104E0034A38
:1073700092698243014B9A617047000000100240FD
:1073800030B500210022002400232D4D6D6805F04A
:107390000C0121B1042905D0082923D105E0294D8C
:1073A000056022E0274D05601FE0254D6D6805F45E
:1073B0007012234D6D6805F48034022505EB92426E
:1073C0001CB9214D554305600BE01D4D6D6805F45A
:1073D00000351DB11C4D5543056002E0194D554364
:1073E000056002E0174D056000BF00BF144D6D68D9
:1073F00005F0F0010909154D6B5C0568DD4045603D
:107400000F4D6D6805F4E061090A104D6B5C45682D
:10741000DD4085600A4D6D6805F46051C90A0B4D69
:107420006B5C4568DD40C560054D6D6805F4404105
:10743000890B074D6B5CC568B5FBF3F5056130BD85
:107440000010024000127A0000093D004E000020AA
:107450005E00002010B50749002001F0A9FB064995
:1074600008700846007820B10846017803A0FEF7AE
:10747000B3FE10BDE8010020450000206D6F756E61
:10748000742066696C6573797374656D203020664D
:1074900061696C6564203A2025640A0D00000000D3
:1074A0001CB5044601AA6946204601F01FFA0F499F
:1074B000087008460078A0B921460DA0FEF78CFEA2
:1074C00001988069801E019B9B785843C10A0198EE
:1074D0008078009B5843C20A0BA0FEF77DFE012076
:1074E0001CBD15A0FEF778FE0020F9E7450000203E
:1074F0000A0D6765742025732064726976652073B0
:10750000706163652E0A0D002564204D4220746F62
:1075100074616C2064726976652073706163652E96
:107520000D0A2564204D4220617661696C61626CB0
:10753000652E0D0A000000000A0D47657420746F67
:1075400074616C2064726976652073706163652074
:107550006661696C64210A0D00000000F0B5ADF5AC
:107560000B7D04460E4617461D461222214602A8F0
:1075700001F034FB294602A801F042FA01AB3A4679
:10758000314602A801F040FC02A801F0A4F90198DC
:107590000DF50B7DF0BD21B1028842F04002028062
:1075A00004E002884FF6BF731A400280704710B59E
:1075B0000022028802F441520B884C8823438C88B5
:1075C0002343CC8823430C8923434C8923438C8950
:1075D0002343CC8923431A430280838B4FF2FF74E9
:1075E000234083830B8A038210BD10B500F002F89C
:1075F00010BD00000CB500200190009033480068D9
:1076000040F480303149086000BF3048006800F421
:10761000003000900198401C0190009818B9019822
:10762000B0F5A06FF1D12948006800F4003010B126
:107630000120009001E0002000900098012843D133
:107640002348006840F0100021490860084600689F
:1076500020F0030008600846006840F0020008605F
:107660001A4840681949486008464068486008461A
:10767000406840F4806048600846406820F47C1010
:1076800048600846406840F4E810486008460068D2
:1076900040F08070086000BF0C48006800F0007087
:1076A0000028F9D00948406820F0030007494860E5
:1076B0000846406840F00200486000BF0348406848
:1076C00000F00C000828F9D10CBD000000100240A9
:1076D0000020024010B5002100200022214B5B68F1
:1076E00003F00C0121B1042906D0082928D107E0B4
:1076F0001D4B1E4C236027E01B4B1C4C236023E0DA
:10770000184B5B6803F47010164B5B6803F480320F
:10771000022303EB904022B9154B4343134C2360E3
:107720000DE0104B5B6803F4003323B1104B43436F
:107730000E4C236003E00C4B43430C4C236003E0EE
:10774000094B0A4C236000BF00BF064B5B68C3F3C4
:107750000313084CE15C054B1B68CB40034C2360D2
:1077600010BD00000010024000127A0064000020EA
:1077700000093D006800002010B51248006840F084
:10778000010010490860084640680F4908400D494B
:107790004860084600680D4908400A4908600846E4
:1077A000006820F4802008600846406820F4FE004D
:1077B00048604FF41F008860FFF717FF0448054931
:1077C000086010BD001002400000FFF8FFFFF6FE49
:1077D0000060000808ED00E010B50B4800680128C3
:1077E0000ED10A480068642804DB0020084908809C
:1077F000FEF76AFF05480068401C0449086001E084
:10780000FEF762FF10BD0000400000203C00002099
:107810003400002010B540F22551094800F03CF832
:1078200038B1074800F0F4F8C4B206492046FEF724
:10783000CBFE40F22551024800F006F810BD0000D2
:10784000003801404001002010B50022002340F61E
:107850006A14A14200D100BF0A1201249440A3B2CD
:10786000DC43048010BD21B1828942F40052828140
:1078700004E082894DF6FF731A4082817047024608
:107880000020B1F5007F00D100BF13880B400BB181
:10789000012000E00020704770B50246002400235C
:1078A0000025002040F66A16B14200D100BFC1F3A6
:1078B000421501F01F03012606FA03F3012D02D140
:1078C0009689334006E0022D02D1168A334001E04A
:1078D000968A33400C12012606FA04F416883440C6
:1078E00013B10CB1012000E0002070BDF0B50346DB
:1078F000002400260025002040F66A17B94200D176
:1079000000BF1846C1F3421401F01F06012707FA11
:1079100006F5012C01D10C3004E0022C01D110300D
:1079200000E014301AB107682F43076002E00768CF
:10793000AF430760F0BD00002DE9F04786B0054673
:107940000E460024A24600BFA1460027B08900B120
:1079500000BF2F462C8A4CF6FF700440F088044389
:107960002C82AC894EF6F3100440B088318908436C
:10797000718908430443AC81AC8A4FF6FF40044050
:10798000B0890443AC8201A8FFF7FAFC1F48874284
:1079900002D1DDF810A001E0DDF80CA0A88900F408
:1079A000004040B10AEBCA0000EB0A103168490000
:1079B000B0FBF1F807E00AEBCA0000EB0A103168EF
:1079C0008900B0FBF1F86420B8FBF0F00401200955
:1079D000642101FB1089A88900F4004040B13220E5
:1079E00000EBC900B0FBF1F000F00700044308E031
:1079F000322000EB09106421B0FBF1F000F00F0021
:107A000004432C8106B0BDE8F08700000038014037
:107A100001468888C0F308007047C1F308028280DD
:107A20007047000070B504460D46607801232A4671
:107A300004F1300100F0E6FE08B1032070BD94F8B7
:107A40002E1294F82F0241EA00204AF6552188426E
:107A500001D00220F2E794F86900010694F868006A
:107A600041EA004194F8670041EA002094F866106A
:107A7000084320F07F400E49884201D10020DDE715
:107A800094F88500010694F8840041EA004194F8D6
:107A9000830041EA002094F88210084320F07F40E0
:107AA0000349884201D10020C8E70120C6E7000051
:107AB00046415400024600E0521C107810B1107884
:107AC0008842F9D1107870472DE9F74F88B00898AF
:107AD00000680190019800783038079007980928CD
:107AE0000AD8019840783A2806D10198801C019064
:107AF00008990198086001E000200790079818B1E4
:107B00000B200BB0BDE8F08FD049079851F820400A
:107B1000099804600CB90C20F3E7207878B16078FC
:107B200000F09DFE804608F0010040B90A9820B19F
:107B300008F0040008B10A20E3E70020E1E7002094
:107B4000207007986070607800F0EDFD804608F0C6
:107B5000010008B10320D4E70A9820B108F004001E
:107B600008B10A20CDE74FF0000B59462046FFF739
:107B700059FF054600BF012D21D14FF0000ABAF18F
:107B8000000F03D0AAF1010000F0FF0A4FF4DF70EC
:107B900000EB0A1104F130000F18387978B1F87A47
:107BA0000106B87A41EA0041787A41EA0020397A40
:107BB00040EA010B59462046FFF734FF0546032DE6
:107BC00001D101209DE70DB10D209AE73B20015D19
:107BD00094F83C0041EA0020B0F5007F01D00D2070
:107BE0008FE74620015D94F8470041EA0029B9F18A
:107BF000000F0ED194F85700010694F8560041EAA0
:107C0000004194F8550041EA002094F8541040EAED
:107C10000109C4F81C904020065DE670012E03D0D7
:107C2000022E01D00D206CE709FB06F93D20005D16
:107C30000646A07016B1701E304008B10D2060E7F6
:107C40004120015D94F8420041EA00202081207A21
:107C500000F00F0008B10D2053E74320015D94F8B8
:107C6000440041EA00200690069870B994F8530049
:107C7000010694F8520041EA004194F8510041EAAB
:107C8000002094F85010084306903E20015D94F8BF
:107C90003F0041EA00200290029808B90D2030E729
:107CA00002984844218900EB11100590DDE9050197
:107CB000814201D20D2024E7DDE90510401AA178A8
:107CC000B0FBF1F00490049808B90D2019E70125E4
:107CD00040F6F6710498884200D302254FF6F671FB
:107CE0000498884200D303250498801CA06105985D
:107CF0005844A062029858442062032D16D120896E
:107D000008B10D20FDE694F85F00010694F85E00CE
:107D100041EA004194F85D0041EA002094F85C10CB
:107D200008436062A0698000039014E0208908B9CC
:107D30000D20E6E6206A48446062022D02D1A06967
:107D4000400007E0207E00F00100A16901EB410145
:107D500000EB51000390E169039800F2FF10B1EBD2
:107D6000502F01D20D20CCE64FF0FF3020610020D3
:107D7000E060032D5CD1607194F8601094F86100AC
:107D800041EA0020584460616078012304F1300129
:107D9000626900F037FDE8BB94F82E1294F82F02C8
:107DA00041EA00204AF65521884241D13320005D46
:107DB00001063220005D41EA00413120005D41EAC8
:107DC000002094F8301008432149884230D194F8BB
:107DD0001702010694F8160241EA004194F81502D0
:107DE00041EA002094F8141208431A4988421FD12E
:107DF00094F81F02010694F81E0241EA004194F82B
:107E00001D0241EA002094F81C120843E06094F837
:107E10001B0200E00CE0010694F81A0241EA00415E
:107E200094F8190241EA002094F8181208432061DE
:107E3000257009480088401C80B207490880E0800E
:107E40000020E062207100BF5BE6000048000020D7
:107E500052526141727241614C0000200246891EFB
:107E60009069801E884201D8002070479378906AFC
:107E700001FB0300F9E700002DE9F04705460C4639
:107E8000207820F04000401E00EB800101EBC0068E
:107E900000274FF0010800BF1A48C05D205C194957
:107EA000C95D2144497840EA0129B8F1000F10D09A
:107EB000484601F0D7F88046FF2E07D23146761C9F
:107EC00035F8110001F0CEF8404508D00020BDE89B
:107ED000F0874FF6FF70814501D00020F7E7781C4E
:107EE00007460D28D8D3207800F0400038B1B8F10B
:107EF000000F04D035F8160008B10020E7E7012094
:107F0000E5E70000E80001082DE9F047044689464E
:107F1000B9F1000F06D1E76817B1A069B84211D8CE
:107F200001270FE04946204601F0A3F90646022E3C
:107F300002D20120BDE8F087A069B04201D93046E5
:107F4000F8E74F463D4600BF6D1CA069A84204D823
:107F50000225BD4201D90020ECE72946204601F068
:107F600088F9064606B909E0701C08B1012E01D156
:107F70003046DFE7BD42E7D10020DBE700BF6FF00E
:107F800070422946204601F0F6FA8046B8F1000F0B
:107F900008D1B9F1000F05D02A464946204601F024
:107FA000EAFA8046B8F1000F09D1E5602069401C6B
:107FB00068B12069401E20610120607107E0B8F1BE
:107FC000010F02D14FF0FF3000E0012005462846A6
:107FD000B0E700002DE9F34F83B082460498D0F853
:107FE00000B001E00BF1010B9BF800002F28F9D045
:107FF0009BF800005C28F5D0DAF81C9000252E468E
:1080000000BF3046761C1BF80040202C03DB2F2CD1
:1080100001D05C2C00D11CE0FF2D03D3062005B05D
:10802000BDE8F08FE4B20121204600F0F5FF0446E0
:108030000CB90620F3E7802C06DA21466BA0FFF787
:1080400039FD08B10620EAE728466D1C29F81040E2
:10805000D7E700BF0BEB060104980160202C01DA82
:10806000042000E00020074608E0681E39F81040B0
:10807000202C02D02E2C00D002E06D1E002DF4D159
:1080800000BF0DB90620CAE7002029F815000B2211
:108090002021DAF8180001F02BFA002600E0761C07
:1080A00039F816002028FAD039F816002E28F6D014
:1080B0000EB147F0030700E06D1E25B1681E39F8C8
:1080C00010002E28F8D14FF00008CDF808800820C5
:1080D000019000BF3046761C39F8104004B955E0D5
:1080E000202C03D02E2C04D1AE4202D047F003073F
:1080F000F0E7DDE90110884201D2AE4216D10198C5
:108100000B2802D147F0030740E0AE4201D047F010
:108110000307AE4200D939E02E46082002900B201A
:1081200001904FEA88604FEA1068D3E7802C0BDBA0
:108130000021204600F070FF04461CB1A4F180002D
:108140002D490C5C47F0020700BF24B121462BA04B
:10815000FFF7B0FC18B15F2447F003070FE0412C94
:1081600004DB5A2C02DC48F0020808E0612C06DB34
:108170007A2C04DC48F00108A4F1200084B2DAF87B
:1081800018300298411C02911C54A3E700BFDAF892
:1081900018000078E52803D10520DAF818100870D7
:1081A0000198082803D14FEA88604FEA106808F068
:1081B0000C000C2803D008F00300032801D147F07D
:1081C000020707F0020058B908F00300012801D1A6
:1081D00047F0100708F00C00042801D147F0080709
:1081E000DAF81800C772002019E70000222A3A3C8A
:1081F0003E3F7C7F00000000F50001082B2C3B3D3A
:108200005B5D000010B50446012144F20500FFF754
:10821000A7F84FF400701F4908801820C870032089
:1082200088701D48FEF702FB4FF4806019490880F2
:108230000420C870032088701748FEF7F7FA012160
:108240001648FFF710FB1648046000201449888088
:10825000C8800C2048810020888108810F48FFF7E2
:108260006BFB012240F225510C48FFF73FFB252014
:1082700000280DDB00BF00BF00F01F02012191406C
:108280004209920002F1E022C2F8001100BF00BFD3
:1082900000BF10BD30000020000801400038014040
:1082A000D801002010B5044603E0207800F00EF855
:1082B000641C20780028F8D110BD000010B50248D9
:1082C000FFF7F0FF10BD00007800002010B5044655
:1082D00021460548FFF7A1FB00BF80210248FFF7B8
:1082E000CEFA0028F9D010BD0038014005480078CA
:1082F000012804D1002003490870012070470020A4
:10830000FCE70000280000202DE9F047044600218A
:10831000204600F0BAF9074617B13846BDE8F087A5
:108320004FF0FF09CA4600BF2169206801F0EAF852
:10833000074607B154E065692E780EB904274FE06F
:10834000E87A00F03F08E52E05D008F0080028B1D3
:10835000B8F10F0F02D04FF0FF093AE0B8F10F0F5C
:108360001CD1E069A0B306F0400030B195F80DA033
:1083700026F04006B146E08820844E450AD1687B4D
:10838000504507D12946E069FFF776FD10B1A9F104
:10839000010000E0FF2000F0FF091AE0B9F1000F32
:1083A00005D1284601F0B6F9504500D118E04FF04C
:1083B000FF094FF6FF702084A069C07A00F0010029
:1083C00030B90B222846A16901F072F800B907E024
:1083D000FFE70021204600F006F80746002FA3D053
:1083E00000BF38469AE72DE9F0410446884600BFB1
:1083F000E088401C86B20EB1206910B90420BDE8A7
:10840000F08106F00F0000286FD12069401C206128
:10841000E06828B920680089B04266DC0420EEE7F5
:1084200020688078401E00EA161000285DD1E168BF
:10843000206800F01EFF0546012D01D80220DEE76E
:10844000681C08B90120DAE720688069A84246D88C
:10845000B8F1000F01D10420D1E7E1682068FFF7EF
:1084600053FD05460DB90720C9E7012D01D10220B2
:10847000C5E7681C08B90120C1E70021206801F0A8
:1084800041F808B10120BAE7216801F130004FF44A
:108490000072002101F02CF829462068FFF7DEFC6D
:1084A0002168C862002710E00120216808710021BE
:1084B000206801F027F808B10120A0E72068C06A11
:1084C000401C2168C862781CC7B220688078B84216
:1084D000EADC2068C06AC01B2168C86200BFE56092
:1084E00029462068FFF7BAFC2061E680206830301A
:1084F00006F00F0100EB4110606100207FE72DE9DD
:10850000F04F85B00446D4F81880D4F81CB00C2283
:10851000414601A800F0DFFF00BF9DF80F0000F00A
:10852000010030B3002088F80B00E06101270DE066
:108530003B465A4601A9404600F047FE2046FFF759
:10854000E3FE054605B103E0781C87B2642FEFDB3C
:1085500000BF642F03D1072005B0BDE8F08F042DC4
:1085600001D02846F8E79DF80F0088F80B00C4F802
:108570001CB09DF80F0000F0020070B1002601E071
:10858000701C86B23BF816000028F9D106F11900DC
:108590000D2190FBF1F086B200E00126002120467B
:1085A00000F073F805460DB12846D5E700200746D0
:1085B000049000BF2169206800F0A4FF054605B1C2
:1085C00019E0606990F80090B9F1E50F02D0B9F1B7
:1085D000000F08D10FB9E0880490781C80B20746DC
:1085E000B04201D107E0002701212046FFF7FBFE42
:1085F0000546002DDED000BF4DBB012E27DD2046F5
:10860000049900F042F805460DBBA06901F082F81C
:108610000090701E86B200BF2169206800F072FFD2
:10862000054605B112E0F2B26169E069009B00F015
:1086300035FD01202168087100212046FFF7D3FE97
:1086400005461DB9701E80B2061EE5D100BFD5B922
:108650002169206800F056FF0546A5B9D4F814A09A
:1086600020220021504600F043FF0B225046A16912
:1086700000F031FFA069C07A00F018008AF80C0001
:10868000012021680871284666E72DE9F04104467B
:108690000E46E680A568012D03D020688069A842B7
:1086A00002D80220BDE8F0812DB9206800780328A7
:1086B00001D12068456A65B9E56020680089B0424B
:1086C00001DC0220EEE72068406A00EB1610206112
:1086D00020E020688078070112E02946206800F039
:1086E000C8FD0546681C08B90120DBE7022D03D34D
:1086F00020688069A84201D80220D3E7F01B86B227
:10870000BE42EADAE56029462068FFF7A7FB00EBE6
:10871000161020612068303006F00F0100EB411088
:1087200060610020BEE770B5054635B1012D0CD063
:10873000022D0CD0032D0ED10BE0FEF787FA044674
:108740000CB9002070BD0120FCE70020FAE70020F2
:10875000F8E70020F6E70120F4E7000070B50546D1
:108760000C46164645BB2648FEF70AF90F2C22D2C6
:10877000DFE804F0080A211321191A1B21211C1D0E
:108780001E1F2000002070BD1D48406C1C49896CD4
:10879000B0FBF1F030600020F5E71948B0F8480070
:1087A00030800020EFE706E005E004E003E002E0AF
:1087B00001E000E000BF20E0012D1CD10F2C19D2F8
:1087C000DFE804F0080A0C0E181011121818131420
:1087D000151617000020D6E70020D4E70020D2E7C6
:1087E0000020D0E706E005E004E003E002E001E05D
:1087F00000E000BF01E00420C5E70420C3E700005B
:10880000180500202DE9F0410646884617461C460B
:1088100014B90420BDE8F08116B1012E1DD116E077
:10882000012C09D141463846FEF76CFB05460DB9CF
:108830000020EFE70120EDE7224641463846FEF7EB
:1088400021FB05460DB90020E4E70120E2E7012CF9
:1088500001D10020DEE70020DCE70120DAE7014655
:1088600021B1012904D0022906D103E0002070477C
:108870000020FCE70020FAE70120F8E72DE9F041AD
:108880000646884617461C4614B90420BDE8F08108
:1088900016B1012E1DD116E0012C09D141463846F2
:1088A000FEF73EFC05460DB90020EFE70120EDE79D
:1088B000224641463846FEF7A7FB05460DB9002083
:1088C000E4E70120E2E7012C01D10020DEE70020EF
:1088D000DCE70120DAE770B50446204600F038FAFC
:1088E00005460DB900202060284670BD2DE9F74FE0
:1088F00082B08B4614460022214602A8FFF7E4F816
:1089000001900198002877D1206801698069801E54
:10891000814204D820680069CBF800006CE0206830
:1089200090F800A00026BAF1010F1DD1022700BF68
:108930003946206800F09DFC804608F1010010B91E
:10894000012001900FE0B8F1010F02D10220019047
:1089500009E0B8F1000F00D1761C781C07462168A9
:1089600089698842E4D33DE0206887692068006A0D
:1089700000904FF00009002500BFB9F1000F0FD1A2
:10898000009A531C11460093206800F0BBFD019033
:10899000019800B125E0206800F130054FF400791E
:1089A000BAF1020F09D12878697840EA012000B9AC
:1089B000761CAD1CA9F1020910E0E8780006A97840
:1089C00040EA0140697840EA01202978084320F014
:1089D000704000B9761C2D1DA9F10409781E071EF0
:1089E000CBD100BF20680661BAF1030F02D101208C
:1089F00021684871CBF80060019805B0BDE8F08FA0
:108A00002DE9F04704460E46A188206800F0F7FEE5
:108A10008246BAF1000F02D05046BDE8F087A07937
:108A200000F0800008B10220F7E7E068B04204D20D
:108A3000A07900F0020000B9E668D4F808904FF081
:108A40000008C4F80880002E77D02068807847029C
:108A5000B9F1000F11D0701EB0FBF7F1A9F10100C0
:108A6000B0FBF7F0814208D3A9F10100791E8843D9
:108A7000A060A068361A656918E02569ADB90021C3
:108A80002068FFF741FA0546012D05D1A07940F095
:108A90008000A0710220C0E7681C28B9A07940F0CE
:108AA0008000A0710120B8E725616561002D44D0E8
:108AB00029E0A07900F0020038B129462068FFF7CC
:108AC00023FA054635B93E461FE02946206800F0E6
:108AD000D0FB0546681C28B9A07940F08000A07141
:108AE00001209AE7012D03D920688069A84205D8A2
:108AF000A07940F08000A07102208EE76561A06837
:108B00003844A060F61BBE42D3D800BFA0683044F2
:108B1000A060C6F3080068B129462068FFF79EF9F7
:108B20008046B8F1000F06D1A07940F08000A07116
:108B3000022072E701E008EB56282089C0F3080004
:108B400050B3A069404527D0A07900F0400090B113
:108B500021684878012304F12401A269FFF78EFE01
:108B600028B1A07940F08000A071012055E7A079DC
:108B700020F04000A071216848780123424604F1AA
:108B80002401FFF73FFE28B1A07940F08000A071DA
:108B9000012042E7C4F81880D4E90201884205D9CF
:108BA000A068E060A07940F02000A071504634E752
:108BB0000246012A01DB0B207047074850F822309B
:108BC0000BB10020187009B100200870024840F86D
:108BD00022100020F0E70000480000202DE9F743B4
:108BE0008CB0054616460020286006F01F0626F0C9
:108BF000010203A90DA8FEF767FF0746CDF824D0B0
:108C000052480A9027B903A80D9900F087FA074641
:108C1000089C0FB904B9062706F01C00002858D09C
:108C20004FB1042F03D103A8FFF769FC074646F0B4
:108C30000806089C09E0E07A00F0110008B1072757
:108C400003E006F0040000B10827002F40D106F031
:108C5000080000283CD000F07EFB804684F80E809F
:108C60004FEA1821E1734FEA184121744FEA186165
:108C700061740020E072207700216177A177E177AD
:108C8000A17EE07E41EA0021227D607D42EA002053
:108C900041EA00490020A0760021E1762075617547
:108CA000012003990871B9F1000F11D00398D0F891
:108CB0002C804946039800F0F9FC074647B9A9F112
:108CC00001000399C8604146039800F01BFC074669
:108CD0000EE06FB9E07A00F0100008B1042707E059
:108CE00006F0020020B1E07A00F0010000B1072791
:108CF00047B906F0080008B146F020060398C06A9C
:108D0000E8612C62F7B9AE71A17EE07E41EA0021F4
:108D1000227D607D42EA002041EA00402861E07F38
:108D20000106A07F41EA0041607F41EA0020217FE7
:108D30000843E8600020A860A861039828600398B1
:108D4000C088A88038460FB0BDE8F08370050020C9
:108D50002DE9F0410446A188206800F050FD074647
:108D6000002F4FD1A07900F0200000284AD0A07930
:108D700000F0400078B121684878012304F1240113
:108D8000A269FFF77BFD10B10120BDE8F081A07959
:108D900020F04000A071E169206800F0B3FB0746B5
:108DA000002F2FD1256AE87A40F02000E872207B5E
:108DB0002877A089010A6977E068010CA977E06843
:108DC000010EE977207CA876208A010AE9762069DD
:108DD000000C28752069010E697500F0BCFA064682
:108DE000AE75310AE975310C2976310E6976A079B4
:108DF00020F02000A071012021680871206800F097
:108E000099FC07463846C0E72DE9FF4F83B004467A
:108E100015469B46049801900020CBF80000A188DD
:108E2000206800F0ECFC0290029818B1029807B09C
:108E3000BDE8F08FA07900F0800008B10220F6E7CD
:108E4000A07900F0020008B90720F0E7E0682844A4
:108E5000E168884200D20025CDE02089C0F30800F7
:108E6000002877D120688078401EA16800EA512050
:108E700000F0FF0ABAF1000F2AD1A06858B9D4F85F
:108E80001080B8F1000F0BD100212068FFF73CF8EB
:108E90008046206104E061692068FFF735F880466C
:108EA000B8F1000F00D1A9E0B8F1010F05D1A07908
:108EB00040F08000A0710220B9E708F1010028B954
:108EC000A07940F08000A0710120B0E7C4F81480C0
:108ED000A07900F0400090B121684878012304F1A6
:108EE0002401A269FFF7CAFC28B1A07940F08000F4
:108EF000A07101209BE7A07920F04000A07161697A
:108F00002068FEF7ABFF06462EB9A07940F080003E
:108F1000A07102208BE756444FEA5529B9F1000FA2
:108F20002FD00AEB090021688978884203D920688C
:108F30008078A0EB0A0909F0FF03216848783246DF
:108F40000199FFF79BFC30B1A07940F08000A0713F
:108F500001206CE72CE0A069801B48450ED2A06977
:108F6000801B019A02EB40214FF4007204F12400AF
:108F700000F0B1FAA07920F04000A0714FEA492733
:108F80002DE0A069B04212D0D4E9020188420ED28D
:108F9000216848780123324604F12401FFF732FCAE
:108FA00028B1A07940F08000A07101203FE7A661C0
:108FB0002089C0F30800C0F50077AF4200D92F46E2
:108FC0002189C1F3080204F1240150183A4601999D
:108FD00000F081FAA07940F04000A07100BF019834
:108FE00038440190A0683844A060DBF800003844A1
:108FF000CBF80000ED1B002D7FF42FAF00BFD4E9AC
:109000000201884201D9A068E060A07940F0200008
:10901000A07100200BE7000010B50246802A01DA9B
:1090200010461BE051B1FF2A01DD002304E0A2F14C
:1090300080030B4C34F8133018460FE0002007E093
:10904000074B33F81030934200D103E0431C98B231
:109050008028F5DB00BF00F18003D8B210BD00000E
:1090600028FC00080246002100E0491C094830F8AD
:10907000110020B1074830F811009042F5D10548A1
:1090800030F8110018B1044830F81100704710464C
:10909000FCE7000028FD000808FF0008F0B50446C2
:1090A0001D464D730F27CF7200270F738F76BC4676
:1090B00081F81BC0571E07EB870C0CEBC706002777
:1090C00038463B4600BF4FF6FF77B84203D03746DD
:1090D000761C34F81700DFF840C01CF803C001F814
:1090E0000C000712DFF830C01CF803C08C448CF869
:1090F000017008B94FF6FF705F1C3B460D2FE2D39D
:109100004FF6FF77B84202D034F816700FB942F02C
:1091100040020A70F0BD0000E80001082DE9F341AB
:109120000446019800782F2803D0019800785C2825
:1091300002D10198401C01900020A06001980078A5
:10914000202807D200212046FFF79FFA064600207C
:1091500060612FE000BF01A92046FEF73BFF0646F5
:1091600006B126E02046FFF7CFF80646A069C77A89
:1091700046B1042E00D01CE000BF07F0040000B987
:10918000052616E007F0040000B112E06569E87AF0
:1091900000F0100008B905260BE0A97EE87E41EA40
:1091A00000212A7D687D42EA002041EA0040A0605B
:1091B000D1E700BF3046BDE8FC8170B504460D46DE
:1091C000E0B2FFF783F8204670BD2DE9FC478046EA
:1091D0008A4617461C460B225146404600F07BF952
:1091E000052C0ADD00BF601000EBC43137F8022BFC
:1091F000881884B238880028F5D1072500BF20469A
:10920000E11704EB11710911A4EB0111303101F0E8
:10921000FF09B9F1390F03DD09F1070000F0FF097B
:1092200028466D1E0DF800902046E11704EB1171E1
:10923000C1F30F14002CE2D17E200DF805000026AA
:1092400000E0761CAE4203D218F806002028F8D1C0
:1092500000BF082D04D228466D1C1DF8000000E058
:1092600020203146761C08F80100082EF1D3BDE815
:10927000FC872DE9F04105460C46022C02D3A86973
:10928000A04202D80120BDE8F0812878012804D04E
:1092900002282CD003285AD13DE0274607EB570778
:1092A000286A00EB5721284600F02CF900B14EE067
:1092B000C7F3080105F1300010F801807F1C286A0F
:1092C00000EB5721284600F01DF900B13FE0C7F33D
:1092D000080105F13000405C48EA002804F0010074
:1092E00010B14FEA1810CEE7C8F30B00CBE7286A9D
:1092F00000EB1421284600F005F900B127E040F208
:10930000FF1000EA440105F130000E183078717842
:1093100040EA0120B7E7286A00EBD411284600F0A4
:10932000F1F800B113E040F2FF1000EA840105F10A
:1093300030000E18F0780006B17840EA01407178EC
:1093400040EA01203178084320F070409BE700BFDD
:109350004FF0FF3097E7002070470000A6B000BF35
:10936000FEF7B8F94820FDF7FFF9FDF73BFAFDF7E6
:1093700017FEFEF76FF84FF41650FEF743FF32A0CA
:10938000FEF78EF8002343F69822324932A0FEF70A
:10939000E5F858E0FEF7AAFF012804D132A0FEF755
:1093A00081FFFEF78BFF32480068B0F57A7F14D357
:1093B00030A0FEF777FF304802784FF400512F4875
:1093C000FDF7BFFA2C48007808B9012000E0002022
:1093D0002949087000202649086025480068401C7B
:1093E000234908602648FDF7B1FA48B324480088AD
:1093F000002825DD01A92348FDF77CF90446214614
:1094000021A0FCF7E9FE9DF80500012817D123A053
:10941000FEF748FF6420FDF7C7F900BFBFF34F8F89
:109420002148006800F4E06020490843001D1E49FF
:109430000860BFF34F8F00BF00BF00BFFDE700BF54
:109440000120FDF7B1F9A5E7707469742E62696EA9
:10945000000000002898000861727261795F7465ED
:1094600073742E74787400000A3C2D2D3E0A00009F
:10947000180000200A310A001C00002000100140E2
:109480001E000020400100200A2D2853697A652023
:109490002020203A202564292D0A00000A526573F5
:1094A0006574206E6F770A000CED00E00000FA058D
:1094B000F0B503461C460D46002000BF161EA2F163
:1094C000010207D014F8017B15F801CBA7EB0C06BD
:1094D000301EF3D0F0BD70B503460C4603E014F81F
:1094E000015B03F8015B151EA2F10102F7D170BD0B
:1094F00030B5034601E003F8011B141EA2F101027E
:10950000F9D130BD2DE9F04104460D46E66AAE4280
:109510002FD0207908B360780123324604F130015E
:10952000FFF7ACF910B10120BDE8F08100202071F7
:10953000D4E907100844B0420FD9E7780AE0E0699F
:10954000064460780123324604F13001FFF796F9B2
:10955000781EC7B2012FF2DC00BF55B1607801233D
:109560002A4604F13001FFF74DF908B10120DBE78D
:10957000E5620020D8E72DE9F04705460E4617467C
:10958000022E02D3A869B04202D84FF002088AE046
:109590002878012804D0022841D003287DD154E046
:1095A000B14609EB5909286A00EB59212846FFF713
:1095B000A9FF8046B8F1000F00D071E0C9F308019F
:1095C00005F130000C1806F0010020B1F9B2207846
:1095D00061F31F1000E03846207009F101090120F5
:1095E0002871286A00EB59212846FFF78BFF804637
:1095F000B8F1000F00D053E0C9F3080105F13000C5
:109600000C1806F0010010B1C7F3071005E0207830
:1096100000F0F000C7F303210843207040E0286AFF
:1096200000EB16212846FFF76DFF8046B8F1000FCA
:1096300000D035E040F2FF1000EA460105F13000AD
:109640000C182770380A60702AE0286A00EBD611DF
:109650002846FFF757FF8046B8F1000F00D01FE003
:1096600040F2FF1000EA860105F130000C18E078A6
:109670000006A17840EA0140617840EA01202178A3
:10968000084300F0704007432770380A6070380CB8
:10969000A070380EE07003E0FFE74FF0020800BF53
:1096A00000BF012028714046BDE8F0872DE9F04158
:1096B00004460E46022E02D3A069B04201D802270A
:1096C00025E000271FE031462046FFF7D2FD054682
:1096D00005B91BE0012D01D1022717E0681C08B96C
:1096E000012713E0002231462046FFF744FF0746DA
:1096F00007B10BE02069401C20B12069401C2061AB
:10970000012060712E46A069B042DCD800BF384607
:10971000BDE8F08130B5014600200B2200BF4310A8
:1097200003EBC01411F8015B6319D8B2531E1A1E63
:10973000F5D130BD70B5044600212046FFF7E2FEAA
:109740000546002D59D1207803284FD16079002893
:109750004CD00020E0624FF40072002104F1300090
:10976000FFF7C6FE552184F82E12AA2184F82F1285
:10977000522084F8300052213120015561213220DD
:109780000155412133200155722184F8141284F8C7
:109790001512412184F81612612184F81712217CD8
:1097A00084F81812208A010A84F819122069010C21
:1097B00084F81A122069010E84F81B12217B84F8A8
:1097C0001C12A089010A84F81D12E068010C84F8BB
:1097D0001E12E068010E84F81F126078012304F164
:1097E00030016269FFF74AF800206071607800225A
:1097F0001146FEF7B3FF00B10125284670BD70B5D4
:1098000004460D4624B1207810B1E088A84201D06A
:10981000092070BD6078FFF722F800F0010008B160
:109820000320F6E70020F4E7FFFFFFFFFFFFFFFF45
:10983000FFFFFFFFFFFFFFFFFFFFFFFFFFFFFFFF38
:10984000FFFFFFFFFFFFFFFFFFFFFFFFFFFFFFFF28
:10985000FFFFFFFFFFFFFEFFFFFFFFFFFFFFDFFF39
:10986000FFFFFFFFFFFFFFFFFFFFFFFFFFFFFFFF08
:10987000FFFFFFFFFFFFFFFFFFFFFFFFFFFFFFFFF8
:10988000FFFFFFFFFFFFFFFFFFFFFFF7FFFFFFFFF0
:10989000FFFFFFFFFFFFFFFFFFFFFFFFFFFFFFFFD8
:1098A000FFFFFFFFFFFFFEFFFFFFFFFFFFFFFFFFC9
:1098B000FFFFFFFFFFFFFFFFFFFFFFFFFFFFFFFFB8
:1098C000FFFFFFFFFFFFFFFFFFFFFFFFFFFFFFFFA8
:1098D000FFFFFFFFFFFFFFFFFFFFFFFFFFFFFFFF98
:1098E000FFFFFFFFFFFFFFFFFFFFFFFFFFFFFFFF88
:1098F000FFFFFFFFFEF7FFFFFFFFDEFFFFFFFFFFA2
:10990000FFFFFFFFFFFFFFFFFFFFDFFFFFFFFFFF87
:10991000DFFFFFFFFFFFDEF7FFFFFFFFFFFFBEFFE1
:10992000FFFFFFFFDFFFFFFFFFFFFFFFFFFFFFFF67
:10993000FFFFFFFFDFFFFFFFFFFFDFFFFFFFFFFF77
:10994000FFFFFFFFFFFFFFFFFFFFFFFFFFFFFFFF27
:10995000FFFFFFFFFFFFFFFFFFFFFFFFFFFFFFFF17
:10996000FFFFFFFFFFFFFFFFFFFFFFFFFFFFFFFF07
:10997000FFFFFFFFFFFFFFFFFFFFFFFFFFFFFFFFF7
:10998000FFFFFFFFFFFFFFFFDFFFFFFFFFFFFFFF07
:10999000DFFFFFFFFFFFFFFFFFFFFFFFBEF7DFFF60
:1099A000FFFFFFFFFFFFFFFFFFFFFFFFFFFFFFFFC7
:1099B000FFFFFFFFFFFFFFFFFFFFFFFFFFFFFFFFB7
:1099C000FFFFFFFFFFFFFFFFFFFFFFFFDFFFFFFFC7
:1099D000FFFFDFFFFFFFFFFFFFFFFFFFFFFFFFFFB7
:1099E000FFFFFFFFDFFFDFFFFFFFFFFFFFFFFFFFC7
:1099F000FFFFFFFFFFFFFFFFFFFFFFFFFFFFFFFF77
:109A0000FFFFFFFFFFFFFFFFFFFFFFFFFFFFFFFF66
:109A1000FFFFFFFFFFFFFFFFFFFFFFFFFFFFFFFF56
:109A2000FFFFFFFFFFFFFFFFFFFFFFFFFFFFFFFF46
:109A3000FFFFFFFFDFFFFFFFDFF7FFFFFFFFFFFF7E
:109A4000FFFFFFFFFEFFFFFFFFFF7DEF17C6708CDC
:109A50004C6BA95A474A274A474A474AA95A4B6B6F
:109A6000508CF6BD7CEFFEFFDEFFFEFFFFFFFFFF29
:109A7000FFFFFFFFDFFFDFFFFFFFFFFFFFFFFFFF36
:109A8000FFFFFFFFFFFFFFFFFFFFFFFFFFFFFFFFE6
:109A9000FFFFFFFFFFFFFFFFFFFFFFFFFFFFFFFFD6
:109AA000FFFFFFFFFFFFFFFFFFFFFFFFFFFFFFFFC6
:109AB000FFFFFFFFFFFFFFFFFFFFFFFFFFFFFFFFB6
:109AC000FFFFFFFFFFFFFFFFDEF7FFFFFFFFFFFFCF
:109AD000FFFFDFFFFFFFDFFFFFFFFFFFFFFFFFFFD6
:109AE000FFFF78CEAD736429000000002000400025
:109AF0002000200040082008200020002000200036
:109B0000400020002000200043298D7358CEFFFF25
:109B1000FFFFFFFFFFFFFFFFFFFFFFFFDFFFFFFF75
:109B2000FFFFFFFFFFFFDFF7FFFFFFFFFFFFFFFF6D
:109B3000FFFFFFFFFFFFFFFFFFFFFFFFFFFFFFFF35
:109B4000FFFFFFFFFFFFFFFFFFFFFFFFFFFFFFFF25
:109B5000FFFFFFFFFFFFFFFFFFFFFFFFFFFFFFFF15
:109B6000FFFFFFFFFFFFFFFFFFFFFFFFFFFFFFFF05
:109B7000FFFFDFFFFFFFFFFFDFFFDFFF78CE685251
:109B80002000200060084000600860084008A01025
:109B90006029404AC05A00630063C05A404A80317D
:109BA000C01040084008400840086008200020001D
:109BB000684A78CEFEFFDEFFFFFFFFFFFFFFFFFFDB
:109BC000FFFFFFFFFFFFFFFFFFFFFFFFFFFFFFFFA5
:109BD000FFFFFFFFFFFFFFFFFFFFFFFFFFFFFFFF95
:109BE000FFFFFFFFFFFFFFFFFFFFFFFFFFFFFFFF85
:109BF000FFFFFFFFFFFFFFFFFFFFFFFFFFFFFFFF75
:109C0000FFFFFFFFFFFFFFFFFFFFFFFFFFFFFFFF64
:109C1000BFF7FFFFDEFFFFFF719440080000200840
:109C200040104010C020E062C39C88D68BF78AF7B2
:109C3000A9FFA9FF87FFA7FFA7FF87FFA8FF89F755
:109C40008AF78BF788DEE3A40063C0204010401041
:109C5000200800004008708CFFFFDFF7FFFFBFF710
:109C6000FFFFFFFFFFFFFFFFFFFFFFFFFFFFFFFF04
:109C7000FFFFFFFFFFFFFFFFFFFFFFFFFFFFFFFFF4
:109C8000FFFFFFFFFFFFFFFFFFFFFFFFFFFFFFFFE4
:109C9000FFFFFFFFFFFFFFFFFFFFFFFFFFFFFFFFD4
:109CA000FFFFFFFFFFFFFFFFFFFFFFFFFFFFFFFFC4
:109CB000FFFFFFFFAD7B2008000840104010A020F0
:109CC000C58B2CDE2DFF29F746F743F742F762F7E5
:109CD00082FF82FFA1FFC1FFC1FFA1FFA2FFA2FF80
:109CE00062FF63F764F745F749F78DFF6CDEC58BBC
:109CF000C0284010401000000000AE7BFFFFFFFFB7
:109D0000DFFFFFFFFFFFFFFFFFFFFFFFFFFFFFFF83
:109D1000FFFFFFFFFFFFFFFFFFFFFFFFFFFFFFFF53
:109D2000FFFFFFFFFFFFFFFFFFFFFFFFFFFFFFFF43
:109D3000FFFFFFFFFFFFFFFFFFFFFFFFFFFFFFFF33
:109D4000FFFFFFFFBFFFFFFFFFFFFFFFFFFFFFFF63
:109D5000F3A400082008000840188062A8D5EAFE95
:109D6000C7F6C6F6C4EE03F701F720F761FF81FFDF
:109D7000A1FFA1FFC0FFC1FFC1FFC1FFC1FFC1FF24
:109D8000A1FF81FF61FF21F722F704EFE6F6C8F695
:109D90000BFFE8D5A06A4018201000080000B29C14
:109DA000FFFFFFFFFFFFFFFFFFFFDFFFFFFFFFFFE3
:109DB000FFFFFFFFFFFFFFFFFFFFFFFFFFFFFFFFB3
:109DC000FFFFFFFFFFFFFFFFFFFFFFFFFFFFFFFFA3
:109DD000FFFFFFFFFFFFFFFFFFFFFFFFFFFFDFFFB3
:109DE000FFFFDEFFFFFFDFFFFFFFFFFFBEFF0329D7
:109DF00000082010201880628BEE88EEA5F6C3F6CE
:109E0000A1F6C0F601F782FFA1FFC1FFA0FFC0FFCE
:109E1000C0FFC0FFC0FFC0FFC0FFC0FFA0FFA0FF8A
:109E2000A0FFA0FFA0FFA1FF81FF41FF01F7A1F666
:109E3000A2F6A5F688F68CEE806A4018201000087D
:109E4000E2207DF7FFFFFFFFFFFFFFFFDFFFFFFFC8
:109E5000FFFFFFFFFFFFDFFFFFFFFFFFFFFFFFFF32
:109E6000FFFFFFFFFFFFFFFFFFFFFFFFFFFFFFFF02
:109E7000FFFFFFFFFFFFFFFFFFFFFFFFDEFFFFFF13
:109E8000FFFFFFFFDFFFFFFFDFFFD3A4000000089D
:109E90002010A049E9DD88F644EE62EE60E6E1EECE
:109EA000A2FFC2FFA2FFA1FFA1FFA0FFA0FFA0FF92
:109EB000A0FFA0FFA0FFA0FFA0FFA0FFA0FF80FFCA
:109EC00080FF60FF60FF60FF61FF61FFA1FFA2FFF5
:109ED00001FF61EE63F644F687FE08E60052401883
:109EE00020100008B29CDFFFDFFFFFFFFFFFFFFF36
:109EF000FFFFFFFFFFFFFFFFFFFFFFFFFFFFFFFF72
:109F0000FFFFFFFFFFFFFFFFFFFFFFFFFFFFFFFF61
:109F1000FFFFFFFFFFFFFFFFDFFFFFFFFFFFFFFF71
:109F2000DEFFDEFFFFFFDFFF695A000800100018A8
:109F3000A7AC6AEE45EE41EE80EE42FFA2FFC1FF04
:109F4000C1FFA0FFA0FFC1FFA0FFA0FFA0FFA0FFD7
:109F5000A0FFA0FFA0FFA0FFA0FFA0FFA0FFA0FF09
:109F600080FF80FF80FF60FF60FF60FF60FF40FFB9
:109F700040FF83FF43FF40EE41F643EE68EEC7B477
:109F80000010201000082852FFFFBEFFFFFFFFFF58
:109F9000FFFFFFFFFFFFDFFFFFFFFFFFFFFFFFFFF1
:109FA000FFFFFFFFFFFFFFFFFFFFFFFFFFFFFFFFC1
:109FB000FFFFFFFFFFFFFFFFFFFFFFFFDFFFFFFFD1
:109FC000FFFFFFFFBEFFC2200010201840412BEE14
:109FD00026EE23EE41E602F7C2FFC1FFE0FFE0FFFD
:109FE000E0FFE0FFC0FFC0FFC0FFA0FFA0FF80FFB9
:109FF00080FF80FF80FF80FF80FF80FF60FF60FFA9
:10A0000060FF80FF60FF80FF80FF60F780FF80FFC0
:10A0100060FF20FF41FF82FF21FF80EE42EE25EE30
:10A020004BEE8049001800084010FEFFFEFFFFFFC6
:10A03000DEFFFFFFFFFFFFFFFFFFFFFFFFFFFFFF51
:10A04000FFFFFFFFFFFFFFFFFFFFFFFFFFFFFFFF20
:10A05000FFFFFFFFFFFFFFFFDFFFFFFFFFFFFFFF30
:10A06000FEFFFEFF200800102018C27A4AEEE4E549
:10A07000E0E5C1FE62FFC2FFE1FFC0F7E0FFE0FFE5
:10A08000C0FFC0FFA0FFC0FFA0FFA0FFA0FFA0FF78
:10A0900080FF80FF61FF61FF61FF61FF61FF60FF83
:10A0A00060FF60FF60FF60FF40F760FF60FF40FF00
:10A0B00040FF60FF40FF60FF61FF82FFC0F621EEBE
:10A0C000E4E50AE64483001840100000FEFFFFFFAD
:10A0D000FFFFFFFFDFFFFFFFFFFFFFFFFFFFFFFFB0
:10A0E000FFFFFFFFFFFFFFFFFFFFFFFFFFFFFFFF80
:10A0F000FFFFFFFFFFFFFFFFFFFFFFFFFFFFDEFF91
:10A10000FEFF00080008001004A407EEC3DD00DE17
:10A1100062FF81FF80FFC1FFC1FFC1FFC0FFC0FF21
:10A12000A0FFC0FFC0FF80FF80FF80FF81FF81FF95
:10A1300061FF41FF21FF21FF00FF00FF01FF21FF21
:10A1400041FF41FF61FF61FF81FF81FF40FF20FF71
:10A1500020FF00FF00FF20FF00FF20FF61FF42FF04
:10A1600021E6E3E528EE25AC201020080000FEFFE4
:10A17000DEFFFFFFFFFFFFFFFFFFFFFFFFFFFFFF10
:10A18000FFFFFFFFFFFFFFFFFFFFFFFFFFFFFFFFDF
:10A19000FFFFFFFFFFFFFFFFFFFFDFFFDFFFFFFF0F
:10A1A00020080008201847A4E6E5C0DD61EE83FF23
:10A1B000C1FFA0FFE0FFC0FFA0FFE1FFA0FFA0FFE5
:10A1C000A0FF80FFA1FF81FF40FF20F7E0F6C0EE77
:10A1D000A0EEA0EE80EE80EE80EE80EE80EE80EECF
:10A1E00080EEA0F6C0F6E0FE00FF41FF21FF41FF38
:10A1F00020FF00FF21FF00FF20FFE0F620FF20FFEF
:10A2000063FFA2F6A0DDE7E568AC40180010000887
:10A21000FEFFDEFFFFFFFFFFFFFFFFFFFFFFFFFF70
:10A22000FFFFFFFFFFFFFFFFFFFFFFFFFFFFFFFF3E
:10A23000FFFFFFFFFFFFFFFFFFFFDFFFFFFF032920
:10A240000008201846B4A5E5C0DDE1F682FFA1FFB5
:10A25000C0FFE0FFE0FFE0FFE0FFC0FFA0FFA1FFC5
:10A2600061FF20FFC0FEA0F6A0F6A0EEC0F6E0F66B
:10A2700000F740FF40FF20FF40FF20FF00FFC0F637
:10A28000C0F680EE60EE60EE40EE60F6A1FE01FFEB
:10A2900001FF00FF00FF20FF21FF20FF20FF20FF24
:10A2A000E0FE23FFC2FEC2E5E7E546AC0018001061
:10A2B000E228DEFFFFFFFFFFFFFFFFFFFFFFDEFFE4
:10A2C000FFFFFFFFFFFFFFFFFFFFFFFFFFFFDFF7C6
:10A2D000FFFFFFFFFFFFDFFFFFFFFFFFCA62000876
:10A2E0002018648BC6ED80E5E1FE81FFC1FFC1FF50
:10A2F000C0FFE0FFE0FFC0FFA0FFC0FFA1FF20FF05
:10A30000C0EEA0EEC0F6E0F621FF61FFA2FFA1FFC4
:10A31000C1FFC0FFA1FFA1FFC1FFC1FFA1FFA2FFBD
:10A32000A2FF82FF62FFE0FEA0F660F640EE40EE84
:10A33000A0F6E0FE00FF00FF21FF00FF20FF00FF6E
:10A3400000FFE1FE02FFC3FEA1E5E7EDC6A3001892
:10A350000008CA62FFFFFFFFFFFFFFF7FEFFFFFFDE
:10A36000DEFFFFFFFFFFFFFFFFFFFFFFFFFFFFFF1E
:10A37000FFFFFFFFFFFFFFFFDFFFB5BD000800107D
:10A38000606AE8E540CD23FFA2FFC1FFC1FFC0FF27
:10A39000C0FFC0FFC0FFA0FF60FF20FFC0F6C0F6F7
:10A3A00000F760FFA0FFA1FFC1FFE1FFC1FFC0FFF9
:10A3B000E0FFE0FFC0FFE1FFE0FFE0FFA0FFC0FF24
:10A3C000A0FFA0FFE2FFC1FFC1FFA1FF20FF80F6B9
:10A3D00020EE40EE80FEC1FEE1FEE0FEE0FE00FF6A
:10A3E00020FF00FFE0FEE1FE03FF61D5C8E58172BA
:10A3F0000018001095B5FFFFFFFFFFFFFFFFDFFF15
:10A40000FFFFFFFFFFFFDFFFFFFFDFFFFFFFDFFFBC
:10A41000FFFFDFFFDFFFFFFFFFFF00082018C0384E
:10A42000A8DD81D503FF62FFC1FFE1FFC0FFC0FFD0
:10A43000C0FFC0FF80FF40FFE0F6C0F6E0F640FF3F
:10A44000A1FFC1FFC0FFE0FFC0FFE1FFE0FFE0FFB1
:10A45000E0FFE0FFC0FFC0FFE0FFE0FFE0FFC0FF64
:10A46000E0FFE1FFC0FFE0FFE0FFC0FFA1FFA2FFB0
:10A4700041FF80F620EE20F6A0FEE1FEE0FE00FFA8
:10A48000E0FE00FFE0FEE0FEC0FEC3FE62DD88DD10
:10A49000C03800180008FFFFFFFFDFFFDFFFFFFFEE
:10A4A000DFFFFFFFDFFFFFFFFFFFFFFFFFFFFFFFFC
:10A4B000FFFFFFFFFFFFDFFFC741000820208ADD0D
:10A4C00062D5A2F6A3FFE1FFE1FFE0FFC0FFC0FFFE
:10A4D000A1FF60FF20FFE0F600F761FFA2FFA1FFF0
:10A4E000A0FFA0FFC0FFC0FFC0FFA0FFA0FFC0FFF4
:10A4F000A0FFC0FFC1FFA0FFA0FFC0FFE0FFA0FFC3
:10A50000A0FFC0FFC0FFC0FFA0FFC0FF80FF61FF32
:10A5100081FFA2FF21FF80F620F620F6A1FEC1FEFA
:10A52000E0FEE0FE00FFE0FEE0FEE1FE83FE63DD14
:10A530006ADD00200008E739DFFFDFFFFFFFFFFFD4
:10A54000FFFFFFFFFFFFFFFFDFFFDFFFFFFFFFFF5B
:10A55000FFFFFFFFDEFF99D600082018629364DD3D
:10A5600021E662FFA1FFC0FFE0FFE0FFC0FFC1FFE7
:10A5700060FF00F7E0F640FF81FFA1FFA1FFA0FF11
:10A58000A0FFC0FFC0FFC0FFC0FFA0FFC0FFC0FF13
:10A59000C0FFC1FF82FF82FFC2FF80FFC0FFE0FF5C
:10A5A000A0FFC0FFC0FFC0FFC0FFA0FFA0FFC1FF12
:10A5B000E1FFC1FF81FF41FFA0FE00EE00F680FE3B
:10A5C000E0FEE0FEE0FEC0FEC0FEA0FEA1FE22F620
:10A5D00046E5649B0010000879D6DFFFFFFFDFFF30
:10A5E000DFF7FFFFFFFFFFFFFFFFFFFFFFFFFFF7AB
:10A5F000FFFFFFFFFFFF80100010803087DDC1E507
:10A6000084FFC2FFA0FFE0FFC0FFC0FFA0FF60FF0C
:10A6100020FF00F740FFA1FFA0FFA0FFA0FFE0FF89
:10A62000E0FFA0FF60FF80FF80FFA0FFC1FF80FF71
:10A63000A1FFC3FF64FFC6FF84FFA3FF61FF81FF8B
:10A64000A1FFA0FFC0FFA0FFA0FFA0FFC0FFC0FFB1
:10A65000C0FFC0FFA0FFA1FFC2FF21FF40EE40EE00
:10A6600060F6E0FEC0FEC0FEC0FEA0FEC1FEC3FE5E
:10A67000A2ED87E5C03800088110FFFFFFFFFFFF54
:10A68000FFFFFFFFFFFFFFFFFFFFFFFFFFFFFFFFDA
:10A69000FFFFDEFFD6BD20080018A7BC83DDE2FE69
:10A6A000A2FFC1FFC1FFC0FFC0FFC1FF80FF00F7D5
:10A6B00020F780FFA0FFA0FFA0FFC0FFC0FFA0FF0A
:10A6C000A0FFA0FFA0FF80FF80FFA0FFA1FF82F7F7
:10A6D000E7FF27E722AD809C63B568F7A6FF83FFFD
:10A6E000A2FF80FFA0FFA0FFA0FFC0FFC0FFA0FF50
:10A6F000A0FFC0FFC0FF80FF60F7A2FF42FF60EE37
:10A7000040F680FEA0FEA0FE80FEC0FEA0FEC1FEC0
:10A7100062FE63DD68B420180008D6BDFEFFFEFFB0
:10A72000DFFFFFFFFFFFFFFFFFFFFFFFFFFFFFFF59
:10A73000FFFFFFFFC21820082049A7DD42E6C3FF44
:10A74000C1FFC0FFC1FFA1FFC1FF60FF20F740F7BD
:10A7500080FF80FF80FFA0FFA0FFA0FFA0FFA0FF61
:10A76000A0FFA0FFA0FF80FFA0FF80F7A1F7C6FF1A
:10A7700045A58010C018A018C020E02029EF85FF53
:10A7800081FFA1FF80FF60FF80FF80FFA0FFA0FF8F
:10A79000A0FFA0FFA0FFA0FFA0FF81FF61FF42FF7D
:10A7A00040F620F661FEA2FEA0FEC0FEE0FEC0FE66
:10A7B000A2FE04F688E520410010E320FEFFFEFF24
:10A7C000DFFFFFFFFFFFFFFFDFFFFFFFFFFFFFFFD9
:10A7D000DEFFBADE0000201045ACA3DD64FFC1FF40
:10A7E000E1FFE1FFA1FFA1FF60FF40F740F760FF3D
:10A7F000A0FF80FF80FF80FF80FFA0FF80FFA0FF01
:10A80000A0FFA0FFA0FFA0FF80FFC1FFA3F7C9F733
:10A81000E0180021E3200421E3200029A05AC8FF0A
:10A8200063F781FF81FF61FF61FF81FFA1FF60F797
:10A83000A1FF60FF80FFA0FFA0FF80FF80FF61FFFE
:10A8400042FF00EE20F661FEA0FEA0FEE0FEA0FEAC
:10A85000C1FE84FE85E525B400100008FADEFFFF86
:10A86000FFFFFFFFDFFFDFFFFFFFFFFFFFFFFFFF38
:10A87000FFFF685220106020A8DD84F6C3FFC0FFF0
:10A88000E0FFC0FFA1FF80FF40F740F760FF80FFBF
:10A8900080FF80FF80FF80FF80FF80FF80FF80FFC0
:10A8A00080FF80FF80FF80FF81FF62FF43F7ABF7EF
:10A8B000202101210321E420E3180021801086D605
:10A8C000A5F7A3F7A4FF63FF83FF83FF62FF82FF67
:10A8D00061FF61FFA2FF81FF80FFA0FF80FF60FF9B
:10A8E00041FF42FF00EE20F6A0FEC0FEA0FEC0FE2B
:10A8F000C0FEA2FE04F6C9E560280008CA62FFFF98
:10A90000FFFFDFFFFFFFDFFFFFFFFFFFFFFFDFFFB7
:10A91000DFFF00080010037BA4D585FFA1FFE0FF47
:10A92000C0FFA0FFC0FF60F740FF60FF60FF80FF37
:10A9300080FF60FF60FF80FF80FF80FF80FF80FF5F
:10A9400080FF80FF80FF81FF62FF64FF89FF6EF759
:10A950000021E118E31804210321C010EDBD8FF799
:10A960002AE744CEA2BD8AF789F7A8FF47F7C5EECC
:10A9700087FF87FF47F787FF62F7C0FFA0FFA0FFB1
:10A9800060FF61FFE0FE20EE60F6C1FEA0FEC0FEAB
:10A99000C0FEA0FE83FEA6E5A37A20180008DEFF15
:10A9A000FFFFFFFFDFFFFFFFFFFFDFFFFFFFFFFFF7
:10A9B000F8C52010002008C5A5EE83FFC1FFC0FF29
:10A9C000C0FFC0FF80FF60F760FF80FF60FF60FF97
:10A9D00060FF61FF80FF80FF80FF80FF80FFA0FF9E
:10A9E00080FF60FF60FF62FF44FF89FF0294A15A6D
:10A9F000002123210321E2180319A0106FADC35ACF
:10AA00004008C0182029C041216B6594E06AE062CB
:10AA1000EEE6817BD0E6E06286F781F780FF80FF7B
:10AA200080FF60FFA1FF60EE40EE61FEA1FE80FEB0
:10AA3000C0FEA0FE62FE26F609CD2020000858CEFA
:10AA4000FFFFFFFFDEFFFFFFFFFFFFFFFFFFDEFF58
:10AA50002C630008C030A7DD86FF81FFC1FFC0FF67
:10AA6000A0FFA0FF40F760FF60FF60FF60FF60FF96
:10AA700060FF61FF60FF60FF60FF80FF80FF80FF7D
:10AA800060FF60FF41FF63FF89FF4073A020C0208B
:10AA90000121E318E3200321E21821218010C020C6
:10AAA000E02080182229E020C020C020C020002102
:10AAB000A01800218018C02060B501EF80F780FF4A
:10AAC00080FF60FF20FF62FF40EE40F660FE80FEE8
:10AAD000A0FEA0FE61FE86FEA8DDA03000102C6B5B
:10AAE000FFFFFEFFFFFFFFFFFFFFDEFFFFFFFFFF98
:10AAF00081084010807226EE64FFC2FFC0FFC0FFD5
:10AB000080FF80FF20FF60FF40FF40FF60FF60FF8D
:10AB100080FF80FF60FF60FF60FF40FF40FF60FF3D
:10AB200040FF40FF61FF65FF86BDC0180029E2209D
:10AB3000E320E318E320E32002298018014A867B02
:10AB4000C87BA55AA0182229012100290021C0187C
:10AB5000A05A206BE06A2073605A20CE82FF60FF0B
:10AB600060FF40FF61FF41FFA0FE40F600FE60FE77
:10AB700080FE80FEA1FE63FEE6ED606A2010C31831
:10AB8000DEFFFFFFDFFFFFFFDFFFFFFFFFFFFEFF37
:10AB900020004010019CE6FE83FFC1FFE0FFA0FF04
:10ABA00080FF40FF60FF40FF40FF40FF60FF60FF0D
:10ABB00060FF60FF60FF60FF40FF40FF40FF40FF1D
:10ABC00040FF40FF81FF87FF8173C0180121E32010
:10ABD0000421C418E420E328A018CEA436EF51D6EF
:10ABE000C8832029212901210129C0204029C25AD6
:10ABF0004EEF8BF78BFF89FF88FF25FF42FF60FF39
:10AC000040FF40FF41FF21FF21FF40F620FE40FEB4
:10AC100080FE80FE80FE82FE25F602A40010210048
:10AC2000DFFFFFFFFFFFFFFFDFFFFFFFFFFFDAD6C2
:10AC30000000401084C564FF82FFC1FFC0FFC0FF59
:10AC400060FF60FF40FF40FF40FF40FF40FF40FFCC
:10AC500060FF60FF40FF40FF20FF20FF41FF41FFFA
:10AC600040FF40FF62FF68FFE062E0200129032906
:10AC7000C3200421E3200321A018096B8652801011
:10AC8000C018E0202021C018A020A039004A50F7A9
:10AC900028EF44F764FF43F743FF42FF21FF20FF03
:10ACA00040FF40FF40FF40FF20FFC0FE20FE20FE8F
:10ACB00080FE80FE40FE82FE44FE25CD2018000866
:10ACC000DADEFFFFFFFFFFFFFFFFDFFFFFFF34A51F
:10ACD0000000401045DE83FFA1FFC0FFC0FFC0FFA2
:10ACE00060FF60FF40FF40FF40FF40FF40FF40FF2C
:10ACF00040FF40FF40FF20FF20FF20FF20FF40FFDC
:10AD000060FF60FF42FF69FF6052E020E220E32025
:10AD1000E328E428E32003210221C018C018E02022
:10AD2000202900290021A47B048CCFEE60188CDE42
:10AD300046F720F761FF40F740FF20FF20FF20FF8C
:10AD400040FF40FF40FF40FF20FF00FF20F620FEB5
:10AD500060FE80FE60FE61FE63FEC6E5001800082E
:10AD600054ADFFFFDFFFFFFFDFFFDFFFFFFFEE7BE5
:10AD70000000E02007EF83FFA1FFA0FFA0FFA0FFDE
:10AD800060FF60FF40FF40FF40FF40FF20FF20FFCB
:10AD900040FF40FF40FF20FF20FF20FF40FF40FF1B
:10ADA00040FF40FF22F78AFF8039E220E320E420C1
:10ADB000E428E420E31803210229A018C018002188
:10ADC000801840524BF768FF47F78BFFE049C06A95
:10ADD00086FF40FF20F760FF40FF20FF20FF20FF9D
:10ADE00040FF40FF20FF20FF20FF21FF40FE20FE0C
:10ADF00060FE60FE81FE41FE63FE27EE80200008BB
:10AE00000F84FFFFDFFFFFFFDFFFFFFFFFFF0B638D
:10AE10000000803969FF82FFA1FFA0FFA0FFA0FF13
:10AE200060FF40FF20FF40FF40FF20FF20FF20FF8A
:10AE300040FF40FF40FF40FF20FF20FF40FF40FF5A
:10AE400040FF40FF02F78BFFC020E320E420C42036
:10AE5000E420E320032101218018A783E58B2073E0
:10AE600046BD4AFF45FF22F741F744F769E68028CF
:10AE7000A2EE61FF40FF40FF20FF20FF20FF20FFE8
:10AE800040FF40FF20FF20FF00FF21FF80FE20FE4B
:10AE900040FE60FE81FE41FE62FE48F64039000839
:10AEA0004C6BFFFFFFFFDFFFFFFFFFFFFFFF684A65
:10AEB0002000E04189FF82FFA0FFA0FFA0FF80FFEC
:10AEC00060FF40FF20FF20FF20FF20FF20FF20FF2A
:10AED00020FF20FF20FF20FF20FF20FF40FF40FF3A
:10AEE00020FF21FF23FFE9EE6018E320E420E320A8
:10AEF000E31803192421E018805A6DFF29F767FF32
:10AF000025FF24FF01FF21FF61FF21F704F766FF02
:10AF100022FF00FF20FF21FF21FF20FF20FF20FF55
:10AF200020FF20FF20FF20FF20FF00FFC0FE40F693
:10AF300040FE60FE60FE61FE62FE88F6A0490008E9
:10AF40008952FFFFFFFFFFFFFFFFFFFFFFFF484AA0
:10AF50002008204A88FF82FFA0FFA0FFA0FF60FF1B
:10AF600060FF20FF20FF20FF20FF00FF00FF00FF09
:10AF700020FF20FF20FF20FF20FF20FF20FF20FFD9
:10AF800020FF21FF25FF65BD8018E320E32003217A
:10AF9000031923190219C018229448FF23F701FF4F
:10AFA00001FFE0FE00FF20FF00FF20FF01FF22FF66
:10AFB00001FF00FF00FF00FF01FF01FF00FF20FF76
:10AFC00020FF20FF20FF20FF20FF00FFE0FE40F6D3
:10AFD00040FE60FE40FE61FE62FE88F6E051000821
:10AFE000474AFFFFFFFFFFFFFFFFFFFFFFFF685222
:10AFF0002008A05A88FFA2FFA0FF80FFA0FF60FFEB
:10B0000040FF00FF20FF20FF00FF00FF00FF00FFC8
:10B0100000FF20FF20FF20FF20FF20FF00FF01FF97
:10B0200001FF02FF26FF0094C0200321E32004213A
:10B0300003210321011940290BF7E4F6E1FE20FF6B
:10B04000E0FE21FF20FF00FF20FF00FF00FFE0FEE9
:10B0500000FF00FF20FF00FF01FF01FF00FF00FFD6
:10B0600000FF00FF00FF00FF00FFE0FEE0FE60F6D3
:10B0700040FE40FE60FE61FE61FE87F6405A000819
:10B08000684AFFFFFFFFDFFFFFFFFFFFFFFF474AA9
:10B090002008A05AA8FFA2FFA0FFA0FFA0FF60FF0A
:10B0A00041FF00FF20FF00FF00FF00FF00FF00FF47
:10B0B00000FF00FF00FF20FF00FF20FF01FF01FF56
:10B0C00001FFE3FE28FF4073E0200221E320E4209B
:10B0D0000421E3180119E0416EFFC5F602FF00FFED
:10B0E00021FFE0FE20FF20FF00FFE0FE00FFE0FE6A
:10B0F00000FFE0FEE0FE00FF00FF00FF00FF00FF9A
:10B1000000FF00FF00FF00FF00FF00FFE0FE80FEE9
:10B1100060FE40FE61FE61FE61F6A7F6405A20081F
:10B12000474AFFFFFFFFFFFFFFFFFFFFFFFF475201
:10B130004008C05AA8F7A2FFA0FFA0FFA0FF80FF11
:10B1400041FFE0FE00FF00FF00FF00FFE0FEE0FE29
:10B1500000FF00FF00FF00FF00FF00FFE1FEC1FE57
:10B1600001FFE3FE29FF4073E0180321E420C4201F
:10B17000C4200429022140316BBDEBF604F700FF27
:10B1800000FF20FF00F720FF00FFE0FEE0FEE0FEF2
:10B1900000FF00FF00FF00FF00FF00FF00FF00FFB7
:10B1A000E0FEE0FEE0FEE0FEE0FEE0FE00FF80FEEE
:10B1B00040FE40FE40FE61FE61FEA7FE405A2008B0
:10B1C000474AFFFFFFFFFFFFFFFFFFFFFFFF485260
:10B1D00020080063A8FFA2FFA0FFA0FFA0FF80FF40
:10B1E00041FF00F700FF00FFE0FEE0FEE0FEE0FEB2
:10B1F000E0FE00FF00FFE0FE00FFC0F601FFE1FE01
:10B20000E1FEC3F608F7238CE0180221E3200429AD
:10B21000E428C320E32001296018828349FFE3F674
:10B2200001FFE0FE00FFE0FE00FFE0FEE0FEE0FECA
:10B23000E0FEE0FE00FF00FF00FF00FF00FF00FF58
:10B24000E0FEE0FEE0FEE0FEE0FEE0FEE0FE80FE6E
:10B2500040FE40FE40FE61FE61FE87F6606220080F
:10B26000674AFFFFFFFFDFFFFFFFFFFFFFFF484AC7
:10B270002000C05AA8FFA2FFA0FFA0FFA0FF80FFF0
:10B2800061FFE0F6E0FEE0FEE0FEE0FEE0FEE0FE54
:10B29000E0FEE0FEE0FEE0FEE0FEE0FE01FFE1FE9B
:10B2A000E0FEE3FE2AF7406BC0184329E320E320C9
:10B2B000E3200321E3180221E128602003942AFF00
:10B2C000E3FE01FFE1FEE1FEE0FEE0FEE0FEE0FE67
:10B2D000E0FE00FF00FF00FFE0FEE0FEE0FEE0FE1B
:10B2E000E0FEE0FEE0FEE0FEE0FEE0FEE0FE80FECE
:10B2F00040FE40FE40FE41FE61F667EE405A2008E7
:10B30000274AFFFFDFFFFFFFFFFFFFFFFFFFA95AF5
:10B310004008604AA8F7A2FF80FF80FFA0FF80FFDF
:10B3200061FFE0F6E0FEE0FEE0FEE0FEE0FEE0FEB3
:10B33000E0FEE0FEE0FEE0FEE0FE00FFE0FEE0FEFC
:10B34000E0FEE4F62BF760310021E2180321C32070
:10B350000329E220E31823210321E028602026C5E9
:10B3600005FFC0FEA0FE01FFE0FEE0FEE0FEE0FE05
:10B37000E0FEE0FEE0FEE0FEE0FEE0FEE0FEE0FEDD
:10B38000E0FEC0FEE0FEE0FEE0FEC0FEC0FE80FE8D
:10B3900060FE40FE40FE41FE41F687F6E0490008AF
:10B3A000484AFFFFFFFFFFFFFFFFFFFFDFFF6C7358
:10B3B0002000E03989F782FF81FF80FF80FFA0FF36
:10B3C00081FF00F7C0FEC0FEC0FEC0FEE0FEE0FE52
:10B3D000E0FEC0FEC0FEC0FEE0FEE0FEC0FEE0FEFD
:10B3E000C0FEC5F6E9CDA0180129E320C320E3285B
:10B3F000A01801290321E418C3180229E028003904
:10B40000E7FEE2FE01FFE0FEE0FEE0FEC0FEC0FE61
:10B41000E0FEE0FEE0FEE0FEC0FEC0FEE0FEE0FE7C
:10B42000C0FEC0FEE0FEE0FEE0FEC0FEC1FE60FE2B
:10B4300060FE40FE20FE41FE21F688F660390008DD
:10B440000B63FFFFFFFFFFFFFFFFFFFFFFFF308CDE
:10B4500000002021A9FF82FF81FF80FF80FFA0FF65
:10B4600081FF00F7C0FEC0FEC0FEC0FEC0FEC0FEF1
:10B47000C0FEC0FEC0FEC0FEE0FEC0F6E0FEE1FE83
:10B48000C1FEE7FE627BC020E220E320E320A02093
:10B490000A94E0280121E32024210321C020E03088
:10B4A000A9FEA3FEC1FEE0FEC0FEC0FEC0FEC0FEBF
:10B4B000C0FEE0FEC0FEC0FEA0FEC0FEC0FEC0FE9C
:10B4C000C0FEC0FEC0FEC0FEE0FEA0FEA1FE60FE0B
:10B4D00060FE40FE20FE21FE42F6A9F6A0200008F4
:10B4E000EF83FFFFFFFFFFFFFFFFFFFFFFFF75ADD4
:10B4F0000000600889F782FF81FF60FF80FFA0FFE6
:10B50000A1FF00F7C0FEA0FEC0FEC0FEC0FEC0FE50
:10B51000C0FEC0FEC0FEC0FEE0FEC0FEE0FEC1FEFA
:10B52000C3FEC9F64039E120E220022900290029A2
:10B5300030F70CD6801801210219021901210031BF
:10B540006CF687FEE3FEC0F6C0FEC0FEA0FEA0FEC5
:10B55000C0FEC0FEC0FEC0FEA0FEC0FEC0FEC0FE1B
:10B56000C0FEC0FEC0FEC0FEC0FEA0FEA1FE60FE8A
:10B5700060FE40FE20FE21FE42F668EE201000082C
:10B5800034ADFFFFFEFFFFF7DFFFFFFFDFFF1BE72D
:10B590002000600829EF83FF82FF60FF80FFA0FF8B
:10B5A000A1FF00F7C0FEA0FEC0FEC0FEC0FEC0FEB0
:10B5B000A0FEA0FEA0FEA0FEC0FEC0FEA0FEA1FE5A
:10B5C000C5FE29E660180229E2200129A018A7A4D7
:10B5D000EAF6A9EEEBD5801800210119E120C02878
:10B5E0000039ACF6A5F6C2FEA1FEA0FEA0FEA0FEAC
:10B5F000C0FEC0FEA0FEA0FEA0FEA0FEC0FEC0FEDB
:10B60000C0FEC0FEC0FEC0FEC0FEA0FEA1FE60FEE9
:10B6100040FE40FE20FE21FE43F6E7DD4010000024
:10B62000BADEFFFFFFFFFFF7DFFFDFFFFFFFFFFFD8
:10B630002000400064B586FF42FF81FF60F7C0FF35
:10B64000C1FF40FFA0FEA0FEC0FEA0FEA0FEA0FE27
:10B65000A0FEC0FEC0FEA0FEA0FEA0FEA0FEA2FEB8
:10B66000A7F6039CA0200229E228E0280031CCEEB6
:10B67000A6EEA4EEE7FEC8D5A018E02001292131EE
:10B68000C0206039C9F683F6A1FEA0FE80FEA0FEB0
:10B69000A0FEC0FEC0FEC0FEA0FEA0FEA0FEA0FE5A
:10B6A000A0FEA0FEC0FEA0FEC0FE80FE60FE60FE0A
:10B6B00040FE00FE21FE22F645F643A400082008C5
:10B6C000FFFFDFFFFFFFFFFFDFFFBFFFFFFFFFFF0A
:10B6D00003196008606B89FF64FF61FF80FFA0FFB2
:10B6E000C0FFA1FFC0FEA0FEA0FEA0FE80FE81FE66
:10B6F000A0FEA0FEA0FEA0FE60FE80FEA1FE83F6DE
:10B70000EBFE0052E020E220E228C028A18BC8F620
:10B71000A3F6A2FEA3FEC7FEABCD6018C028E120B1
:10B720000121A018219CC6FEA2FEA0FE80FE80FE84
:10B7300080FEA0FEA0FEA0FEA0FEA0FEA0FEA0FE39
:10B74000A0FEA0FEA0FEA0FEA0FE80FE80FE60FE89
:10B7500020FE20FE21FE03F648F6A06A4010C21823
:10B76000DFFFFFFFDFFFFFFFFFFFFFFFDEFFFFFF4A
:10B77000AD73400820218DFF45FF41FF60FF80FF32
:10B78000E0FFC1FFC0F6A0FEA0FE80FE60FE61FEED
:10B7900080FE80FE80FEA0FEC0FEA0FEA1FEA5F6FB
:10B7A000ADEEA02000210221E120A02089EEC4FE00
:10B7B00061F6A1FE61FE64FEC8F669C5A0200229FB
:10B7C0000221E020205AEAF6A3F6A0FEA0FE80FEA9
:10B7D00080FE80FEA0FEA0FEA0FEA0FE80FE80FEF9
:10B7E00080FEA0FEA0FEA0FE80FEA0FE60FE80FE09
:10B7F00040FE20FE00FE24F68BF6A02820088E7363
:10B80000DFFFBFFFFFFFFFFFFFFFFFFFFFFFFFFFA8
:10B81000B9D600004008AEE647FF61FF60FF60F761
:10B82000C0FFC1FF20FFC0F6A0FEA0FE60FE60FECC
:10B8300080FE80FE81FEA1FEA0FE81F684F60BFF55
:10B84000E16AE02001210121E020A162E8FE61F629
:10B85000A1FE80FE61FE82FE84F6A9EEC0200229D0
:10B86000E22021290031ABEEA4EEC0F6A0FE80FE5E
:10B8700061FE61FE80FE80FE80FE80FE80FE80FE16
:10B8800080FE80FE80FE80FE80FEA0FE60FE60FEE8
:10B8900060FE20FE21FE25F6AACD6018000859CED4
:10B8A000FFFFFFFFDFFFDFFFFFFFDFF7FFFFDFFF30
:10B8B000FFFF20004008A47B68FF41FF80FF60FF7E
:10B8C000A0FFC1FFA1FFE0F6A0F6A0FE80FE80FE73
:10B8D00080FEA0FE80FE80F680FE64FE6AF680494F
:10B8E000A0180121E1200029801889C565F682FE93
:10B8F00060FE60FEA1FE60FE82F6E8F6C041E02038
:10B900000221E020C028A8CD84EEA0FE80FE80FEAB
:10B9100060FE60FE60FE80FE80FE80FE80FE80FE97
:10B9200080FE80FE80FE80FEA0FE80FE80FE40FE47
:10B9300020FE40FE22FE47F6037300082008FFFFAA
:10B94000FFFFFFFFFFFFFFFFFFF7FFFFBFFFDFFF6F
:10B95000FFFF0B630000C018ABFF43FF41FF60FF18
:10B9600060F7C1FFC1FF20F780F680FE80FEA0FED9
:10B9700080FE80FE80FE61FE62FE88FE67B4802845
:10B980000229E2180229E028C049CBF664F661FEDC
:10B9900081FE80FE60FE80FE60F6E7FE827BA018DE
:10B9A000E12022318020C6B484F680FE81FE60FE54
:10B9B00060FE60FE60FE80FE80FE80FE80FE80FEF7
:10B9C00060FE60FE81FE80FEA0FE80FE81FE40FEE5
:10B9D00000FE21FE03F68BFE201820082C6BDFFFF3
:10B9E000FFFFFFFFFFFFFFFFFFF7FFFFFFFFDFFF8F
:10B9F000FFFF1BE74000400887BD68FF22FF40FFB4
:10BA000040F780FFC0FFC1FFC0F660F660FE80FE19
:10BA100060FE60FE81FE63FE46FE88DD6028E12850
:10BA2000022902298018A028C6DDA5FE82FE60FE3C
:10BA300080FE60FE60FE80FE81FE65EE47BD8018E0
:10BA40000031E030802843AC64FE61FE61FE61FE9F
:10BA500060FE60FE60FE80FE80FE80FE80FE80FE56
:10BA600060FE60FE80FE80FEA1FEA1FE40FE20FE84
:10BA700020FEE1FD06F665B400102008FBE6FFFF9E
:10BA8000FFFFFFFFDEFFFFFFFFF7FFFFDEFFDFFF30
:10BA9000FFFFFFFF23216008A0396CFF44FF40FF38
:10BAA00060FF40FF80FFA1FF61FFA0F640F680FE2F
:10BAB00060FE60FE61FE43F648F6A0300031E228E9
:10BAC000801860186062E9DD85FE21F641FE81FE86
:10BAD00080FE60FE60FE40FE40FE64FE69EEE072A5
