:020000040800F2
:106000003008002089610008916100089361000850
:106010009561000897610008996100080000000080
:106020000000000000000000000000009B6100086C
:106030009D610008000000009F610008A161000848
:10604000A3610008A3610008A3610008A361000820
:10605000A3610008A3610008A3610008A361000810
:10606000A3610008A3610008A3610008A361000800
:10607000A3610008A3610008A3610008A3610008F0
:10608000A3610008A3610008A3610008A3610008E0
:10609000A3610008A3610008A3610008A3610008D0
:1060A000A3610008A3610008A3610008A3610008C0
:1060B000A3610008A361000800000000A3610008BC
:1060C000A36100080000000000000000A3610008B8
:1060D00000000000F9670008A3610008000000004C
:1060E000A3610008A3610008A361000800F002F8A2
:1060F00000F03AF80AA090E8000C82448344AAF128
:106100000107DA4501D100F02FF8AFF2090EBAE825
:106110000F0013F0010F18BFFB1A43F001031847DB
:10612000740A0000940A0000103A24BF78C878C1AD
:10613000FAD8520724BF30C830C144BF04680C608D
:10614000704700000023002400250026103A28BFD5
:1061500078C1FBD8520728BF30C148BF0B607047D9
:106160001FB51FBD10B510BD00F031F81146FFF787
:10617000F7FF00F0CBFC00F04FF803B4FFF7F2FF9D
:1061800003BC00F057F80000094880470948004761
:10619000FEE7FEE7FEE7FEE7FEE7FEE7FEE7FEE7D7
:1061A000FEE7FEE704480549054A064B7047000034
:1061B00099670008ED6000083002002030080020D8
:1061C0003004002030040020704770477047754647
:1061D00000F02CF8AE4605006946534620F0070053
:1061E000854618B020B5FFF7DDFFBDE820404FF031
:1061F00000064FF000074FF000084FF0000B21F0B1
:106200000701AC46ACE8C009ACE8C009ACE8C0097D
:10621000ACE8C0098D46704710B50446AFF3008066
:106220002046BDE81040FFF7A8BF000000487047B7
:10623000CC01002001491820ABBEFEE72600020079
:106240007047000070B505460C46012022490860E1
:1062500000202249086022480088255420480088F0
:10626000401C1F4908801F48007820B1012810D029
:1062700002282ED11BE01A480088022808D1207875
:10628000A52802D000F040F802E00120154908706E
:106290001FE013480088042808D1E178A07800F0B6
:1062A00029F81149088002200E49087011E00C48B5
:1062B00001880D480088001D814209D101200B4949
:1062C00008700748008800B20949088000F01CF8EF
:1062D00000BF00BF70BD00002C000020280000207F
:1062E0002400002030000020260000202200002092
:1062F0002000002008B502468DF800208DF801101E
:10630000BDF8000008BD00000020054908800549CF
:10631000088005490860054908600549087070470C
:106320002400002026000020280000202C0000204F
:10633000300000204FF0E021096921F004014FF006
:10634000E0221161C21700EB5272C2F3C702074B81
:106350001A701946097801EB4102C2EBC1114FF6E0
:10636000FF7202EAC101024A11807047000000205A
:106370000200002001460D4A12884A434FF0E023F4
:106380005A6100229A6101221A6100BF4FF0E02297
:10639000106900F001021AB100F48032002AF5D031
:1063A00000224FF0E0231A619A617047020000203A
:1063B00010B50121102000F0AFF80121082000F0F5
:1063C000ABF84FF40050094908801020C870032032
:1063D0008870074800F010F8012004490880282040
:1063E000C870044800F008F810BD00000400002048
:1063F00000100140000C01402DE9F041024600254B
:106400000026002000230024002791F803C00CF090
:106410000F0591F803C00CF0100CBCF1000F03D075
:1064200091F802C04CEA050591F800C0BCF1000FDC
:1064300031D0146800202BE04FF0010C0CFA00F36F
:10644000B1F800C00CEA03069E4220D183004FF051
:106450000F0C0CFA03F7BC4305FA03FC4CEA0404E6
:1064600091F803C0BCF1280F06D14FF0010C0CFAD3
:1064700000FCC2F814C00AE091F803C0BCF1480F58
:1064800005D14FF0010C0CFA00FCC2F810C0401C02
:106490000828D1D31460B1F800C0BCF1FF0F34DD7F
:1064A000546800202EE000F1080C4FF0010808FAB3
:1064B0000CF3B1F800C00CEA03069E4221D1830020
:1064C0004FF00F0C0CFA03F7BC4305FA03FC4CEA3F
:1064D000040491F803C0BCF1280F05D100F1080CA9
:1064E00008FA0CF8C2F8148091F803C0BCF1480F08
:1064F00007D100F1080C4FF0010808FA0CF8C2F8B7
:106500001080401C0828CED35460BDE8F0810AB149
:10651000016100E04161704729B1064A9269024376
:10652000044B9A6104E0034A92698243014B9A61E9
:10653000704700000010024030B500210022002406
:1065400000232D4D6D6805F00C0121B1042905D003
:10655000082923D105E0294D056022E0274D05607B
:106560001FE0254D6D6805F47012234D6D6805F42C
:106570008034022505EB92421CB9214D554305603C
:106580000BE01D4D6D6805F400351DB11C4D5543E4
:10659000056002E0194D5543056002E0174D0560A6
:1065A00000BF00BF144D6D6805F0F0010909154DDD
:1065B0006B5C0568DD4045600F4D6D6805F4E0617A
:1065C000090A104D6B5C4568DD4085600A4D6D68B9
:1065D00005F46051C90A0B4D6B5C4568DD40C56030
:1065E000054D6D6805F44041890B074D6B5CC5682E
:1065F000B5FBF3F5056130BD0010024000127A00D2
:1066000000093D00310000204100002010B500F0DD
:1066100001F810BD0CB500200190009033480068CF
:1066200040F480303149086000BF3048006800F411
:10663000003000900198401C0190009818B9019812
:10664000B0F5A06FF1D12948006800F4003010B116
:106650000120009001E0002000900098012843D123
:106660002348006840F0100021490860084600688F
:1066700020F0030008600846006840F0020008604F
:106680001A4840681949486008464068486008460A
:10669000406840F4806048600846406820F47C1000
:1066A00048600846406840F4E810486008460068C2
:1066B00040F08070086000BF0C48006800F0007077
:1066C0000028F9D00948406820F0030007494860D5
:1066D0000846406840F00200486000BF0348406838
:1066E00000F00C000828F9D10CBD00000010024099
:1066F0000020024010B5002100200022214B5B68E1
:1067000003F00C0121B1042906D0082928D107E0A3
:106710001D4B1E4C236027E01B4B1C4C236023E0C9
:10672000184B5B6803F47010164B5B6803F48032FF
:10673000022303EB904022B9154B4343134C2360D3
:106740000DE0104B5B6803F4003323B1104B43435F
:106750000E4C236003E00C4B43430C4C236003E0DE
:10676000094B0A4C236000BF00BF064B5B68C3F3B4
:106770000313084CE15C054B1B68CB40034C2360C2
:1067800010BD00000010024000127A0048000020F6
:1067900000093D004C00002010B51248006840F090
:1067A000010010490860084640680F4908400D493B
:1067B0004860084600680D4908400A4908600846D4
:1067C000006820F4802008600846406820F4FE003D
:1067D00048604FF41F008860FFF718FF0448054920
:1067E000086010BD001002400000FFF8FFFFF6FE39
:1067F0000060000808ED00E010B540F2255109489E
:1068000000F03CF838B1074800F0F4F8C4B206498B
:106810002046FFF717FD40F22551024800F006F828
:1068200010BD0000003801402401002010B50022F6
:10683000002340F66A14A14200D100BF0A120124CD
:106840009440A3B2DC43048010BD21B1828942F49C
:106850000052828104E082894DF6FF731A408281E2
:10686000704702460020B1F5007F00D100BF1388B9
:106870000B400BB1012000E00020704770B50246CC
:10688000002400230025002040F66A16B14200D102
:1068900000BFC1F3421501F01F03012606FA03F3FE
:1068A000012D02D19689334006E0022D02D1168ACD
:1068B000334001E0968A33400C12012606FA04F4B4
:1068C0001688344013B10CB1012000E0002070BDE7
:1068D000F0B50346002400260025002040F66A1784
:1068E000B94200D100BF1846C1F3421401F01F069F
:1068F000012707FA06F5012C01D10C3004E0022C27
:1069000001D1103000E014301AB107682F4307603E
:1069100002E00768AF430760F0BD00002DE9F047D3
:1069200086B005460E460024A24600BFA1460027B9
:10693000B08900B100BF2F462C8A4CF6FF7004408E
:10694000F08804432C82AC894EF6F3100440B088E2
:1069500031890843718908430443AC81AC8A4FF6FE
:10696000FF400440B0890443AC8201A8FFF7E4FD76
:106970001F48874202D1DDF810A001E0DDF80CA02D
:10698000A88900F4004040B10AEBCA0000EB0A10ED
:1069900031684900B0FBF1F807E00AEBCA0000EBF0
:1069A0000A1031688900B0FBF1F86420B8FBF0F000
:1069B00004012009642101FB1089A88900F400402A
:1069C00040B1322000EBC900B0FBF1F000F007004D
:1069D000044308E0322000EB09106421B0FBF1F021
:1069E00000F00F0004432C8106B0BDE8F0870000E2
:1069F0000038014001468888C0F308007047C1F3A1
:106A0000080282807047000010B50446012144F25C
:106A10000500FFF781FD4FF400701F490880182022
:106A2000C870032088701D48FFF7E6FC4FF48060B3
:106A3000194908800420C870032088701748FFF7A0
:106A4000DBFC01211648FFF700FF16480460002018
:106A500014498880C8800C204881002088810881E2
:106A60000F48FFF75BFF012240F225510C48FFF76A
:106A70002FFF252000280DDB00BF00BF00F01F0204
:106A8000012191404209920002F1E022C2F8001176
:106A900000BF00BF00BF10BD1C0000200008014067
:106AA00000380140BC01002010B5044603E0207806
:106AB00000F00EF8641C20780028F8D110BD00000A
:106AC00010B50248FFF7F0FF10BD00005C00002089
:106AD00010B5044621460548FFF791FF00BF80210D
:106AE0000248FFF7BEFE0028F9D010BD0038014073
:106AF00005480078012804D10020034908700120CE
:106B000070470020FCE7000014000020FFF7F2FDB2
:106B10004820FFF70FFCFFF74BFC4FF41650FFF730
:106B200073FF2AE0FFF7E4FF012804D113A0FFF769
:106B3000BBFFFFF7C5FF13480068B0F57A7F14D399
:106B400011A0FFF7B1FF114802784FF4005110482F
:106B5000FFF7DDFC0D48007808B9012000E00020B7
:106B60000A49087000200749086006480068401C70
:106B7000044908600120FFF7FDFBD3E70A3C2D2DF7
:106B80003E0A0000080000200A310A000C00002024
:106B900000100140B46B0008000000205C00000001
:106BA00028610008106C00085C000020D407000079
:106BB0004461000800000000000000000000000028
:106BC00000000000000000000000000000000000C5
:106BD00000000000000000000000000000000000B5
:106BE0000000000000000000000102030401020395
:106BF00004060708090204060800000000A24A046F
:106C0000000000000000000001020304060708095C
:040000050800618905
:00000001FF
