:020000040800F2
:10600000680B002091610008996100089B610008FD
:106010009D6100089F610008A16100080000000068
:10602000000000000000000000000000A361000864
:10603000A561000800000000A7610008A961000830
:10604000AB610008AB610008AB610008AB61000800
:10605000AB610008AB610008AB610008AB610008F0
:10606000AB610008AB610008AB610008AB610008E0
:10607000AB610008AB610008AB610008AB610008D0
:10608000AB610008AB610008AB610008AB610008C0
:10609000AB610008AB610008AB610008AB610008B0
:1060A000AB610008AB610008AB610008AB610008A0
:1060B000AB610008AB61000800000000AB610008A4
:1060C000AB6100080000000000000000AB610008A8
:1060D00000000000756D0008AB61000800000000C2
:1060E000AB610008AB610008AB61000800F002F88A
:1060F00000F03FF80AA090E8000C82448344AAF123
:106100000107DA4501D100F034F8AFF2090EBAE820
:106110000F0013F0010F18BFFB1A43F001031847DB
:10612000C4100000E4100000103A24BF78C878C101
:10613000FAD8520724BF30C830C144BF04680C608D
:10614000704700000023002400250026103A28BFD5
:1061500078C1FBD8520728BF30C148BF0B607047D9
:10616000642900F07580002070471FB51FBD10B571
:1061700010BD00F0ABF91146FFF7F7FF00F0A2FFEA
:1061800000F0C9F903B4FFF7F2FF03BC00F0D0F947
:106190000948804709480047FEE7FEE7FEE7FEE7BB
:1061A000FEE7FEE7FEE7FEE7FEE7FEE704480549F7
:1061B000054A064B70470000D96C0008ED600008E6
:1061C00068050020680B0020680700206807002091
:1061D0000FB4044910B503AA029800F02FF910BCBF
:1061E0005DF814FB140000202DE9F0410E46044632
:1061F000002020622046E168884730B3252805D07A
:10620000D4E901219047206A401CF2E7E16820466A
:1062100000278847050018D0A5F14100192802D8A9
:1062200020354FF400673246294620462760FFF7A5
:1062300097FF40B1012804D0F61D26F00706083666
:10624000D8E7361DD6E72846DAE7206ABDE8F081B0
:106250002DE9F0410646002410687529314616A53F
:1062600010D0AFF30080002802DA404213A507E007
:1062700031688A0701D512A502E0490704D511A5A6
:10628000012401E0AFF3008000210A2206F1240777
:1062900009E0B0FBF2FCB0FBF2F302FB1C00303073
:1062A00078541846491C0028F3D123462A46304624
:1062B000BDE8F04100F050B8000000002D000000E3
:1062C0002B00000020000000032A40F2308010F074
:1062D000030C00F0158011F8013BBCF1020F624481
:1062E00098BF11F801CB00F8013B38BF11F8013B12
:1062F000A2F1040298BF00F801CB38BF00F8013BBF
:1063000011F0030300F0AC80083AC0F0088051F8A7
:10631000043B083A51F804CBA0E80810F5E7121D39
:106320005CBF51F8043B40F8043BAFF30080D20758
:1063300024BF11F8013B11F801CB48BF11F8012B24
:1063400024BF00F8013B00F801CB48BF00F8012B47
:1063500070477047704770472DE9F0470D469946E2
:106360009246044600F124080168880604D5E069D5
:1063700021F01001216000E00120A84201DD471B4F
:1063800000E00027A1697A1902EB0900081AA06150
:106390002078C00602D42046AFF30080002608E033
:1063A000D4E901211AF806009047206A401C761CA7
:1063B00020624E45F4DB2078C0060AD52046AFF3B4
:1063C000008006E0D4E9012130209047206A401C7B
:1063D0002062381EA7F10107F4DC07E0D4E90121AF
:1063E00018F805009047206A401C2062281EA5F17D
:1063F0000105F3DC2046AFF300802078000602D5CB
:106400000220BDE8F0870120FBE7000001694A1C7B
:1064100002610878704700B58FB0CDE901310021E5
:10642000059105497944CDE9031011466846FFF707
:10643000DBFE0FB000BD0000E5FFFFFF074B70B5AE
:106440000D467B44FFF7E7FF0446284600F03AF884
:1064500010B14FF0FF3070BD204670BD6F0C0000D2
:1064600010B5203AC0F00B80B1E81850203AA0E8EF
:106470001850B1E81850A0E81850BFF4F5AF5FEA23
:10648000027C24BFB1E81850A0E8185044BF18C9D6
:1064900018C0BDE810405FEA827C24BF51F8043B7D
:1064A00040F8043B08BF7047D20728BF31F8023BD1
:1064B00048BF11F8012B28BF20F8023B48BF00F865
:1064C000012B7047007B00F080007047754600F09C
:1064D0002BF8AE4605006946534620F00700854676
:1064E00018B020B5FFF762FEBDE820404FF000066F
:1064F0004FF000074FF000084FF0000B21F00701AC
:10650000AC46ACE8C009ACE8C009ACE8C009ACE8EE
:10651000C0098D46704710B50446AFF30080204691
:10652000BDE81040FFF72EBE004870470805002068
:1065300001491820ABBEFEE72600020070470000AC
:1065400070B505460C46012022490860002022490A
:10655000086022480088255420480088401C1F49B4
:1065600008801F48007820B1012810D002282ED1C1
:106570001BE01A480088022808D12078A52802D0FC
:1065800000F05EF802E00120154908701FE0134892
:106590000088042808D1E178A07800F029F8114992
:1065A000088002200E49087011E00C4801880D484F
:1065B0000088001D814209D101200B49087007485D
:1065C000008800B20949088000F03AF800BF00BF17
:1065D00070BD0000300000202C00002028000020AA
:1065E000340000202A000020260000202400002083
:1065F00008B502468DF800208DF80110BDF80000A6
:1066000008BD30B502460B464FF6FF70002100244E
:1066100000BF12E0555C684008240AE000F0010564
:1066200025B140104AF20105684000E04010651EA7
:10663000ACB2002CF2D14D1CA9B29942EADB30BDBC
:10664000002005490880054908800549086005497A
:106650000860054908707047280000202A000020C3
:106660002C00002030000020340000202DE9F041F3
:1066700004460D46002726467288521E331D995C3B
:106680007288921E985CFFF7B3FFA6F890003078EE
:10669000287070786870708868806888821E311DE4
:1066A000281DFFF711FEB6F89000A5F89000688845
:1066B000801C87B22878A52803D04FF0FF30BDE8B2
:1066C000F081F9B22046FFF79CFFB5F890108842A0
:1066D00002D04FF0FF30F2E7B81C00B2EFE7000045
:1066E0004FF0E021096921F004014FF0E02211612F
:1066F000C21700EB5272C2F3C702074B1A70194659
:10670000097801EB4102C2EBC1114FF6FF7202EAB8
:10671000C101024A118070470000002002000020E1
:1067200001460D4A12884A434FF0E0235A61002285
:106730009A6101221A6100BF4FF0E022106900F057
:1067400001021AB100F48032002AF5D000224FF085
:10675000E0231A619A6170470200002010B5012100
:10676000102000F029F90121082000F025F94FF44C
:106770000050094908801020C8700320887007481D
:1067800000F010F80120044908802820C87004484F
:1067900000F008F810BD00000400002000100140C7
:1067A000000C01402DE9F0410246002500260020A2
:1067B00000230024002791F803C00CF00F0591F886
:1067C00003C00CF0100CBCF1000F03D091F802C014
:1067D0004CEA050591F800C0BCF1000F31D01468F7
:1067E00000202BE04FF0010C0CFA00F3B1F800C0D0
:1067F0000CEA03069E4220D183004FF00F0C0CFAE6
:1068000003F7BC4305FA03FC4CEA040491F803C007
:10681000BCF1280F06D14FF0010C0CFA00FCC2F8B5
:1068200014C00AE091F803C0BCF1480F05D14FF045
:10683000010C0CFA00FCC2F810C0401C0828D1D38F
:106840001460B1F800C0BCF1FF0F34DD54680020C3
:106850002EE000F1080C4FF0010808FA0CF3B1F833
:1068600000C00CEA03069E4221D183004FF00F0CBA
:106870000CFA03F7BC4305FA03FC4CEA040491F854
:1068800003C0BCF1280F05D100F1080C08FA0CF880
:10689000C2F8148091F803C0BCF1480F07D100F191
:1068A000080C4FF0010808FA0CF8C2F81080401CE0
:1068B0000828CED35460BDE8F0810AB1016100E040
:1068C0004161704710B5044600F036FA0748007879
:1068D000012809D1002006490860044908700548CC
:1068E00000882080012010BD0020FCE72600002049
:1068F000300000202400002010B586B0044600209F
:10690000ADF804004FF48270ADF806000020ADF839
:1069100008000220ADF80A000120ADF80C0040028A
:10692000ADF80E000020ADF812000720ADF81400FD
:106930001CB93820ADF8100002E01020ADF81000AE
:1069400001A9024800F0E4F806B010BD0030014093
:1069500008B50121080300F02FF801210D2000F0F7
:106960002BF8E020ADF8000003208DF8020018207D
:106970008DF8030069460E48FFF714FF1020ADF8AC
:10698000000003208DF8020010208DF803006946F6
:106990000748FFF707FF1020054910310860002065
:1069A000FFF7AAFF0121034800F0A6F808BD000088
:1069B000000801400030014029B1064A92690243B3
:1069C000044B9A6104E0034A92698243014B9A6145
:1069D000704700000010024030B500210022002462
:1069E00000232D4D6D6805F00C0121B1042905D05F
:1069F000082923D105E0294D056022E0274D0560D7
:106A00001FE0254D6D6805F47012234D6D6805F487
:106A10008034022505EB92421CB9214D5543056097
:106A20000BE01D4D6D6805F400351DB11C4D55433F
:106A3000056002E0194D5543056002E0174D056001
:106A400000BF00BF144D6D6805F0F0010909154D38
:106A50006B5C0568DD4045600F4D6D6805F4E061D5
:106A6000090A104D6B5C4568DD4085600A4D6D6814
:106A700005F46051C90A0B4D6B5C4568DD40C5608B
:106A8000054D6D6805F44041890B074D6B5CC56889
:106A9000B5FBF3F5056130BD0010024000127A002D
:106AA00000093D003E0000204E00002010B50749BF
:106AB000002000F0E9FA064908700846007820B185
:106AC0000846017803A0FFF783FB10BDD801002022
:106AD000350000206D6F756E742066696C65737982
:106AE0007374656D2030206661696C6564203A209E
:106AF00025640A0D0000000021B1028842F0400226
:106B0000028004E002884FF6BF731A40028070478B
:106B100010B50022028802F441520B884C882343AE
:106B20008C882343CC8823430C8923434C892343FB
:106B30008C892343CC8923431A430280838B4FF2F1
:106B4000FF74234083830B8A038210BD10B500F0CD
:106B500001F810BD0CB5002001900090334800688A
:106B600040F480303149086000BF3048006800F4CC
:106B7000003000900198401C0190009818B90198CD
:106B8000B0F5A06FF1D12948006800F4003010B1D1
:106B90000120009001E0002000900098012843D1DE
:106BA0002348006840F0100021490860084600684A
:106BB00020F0030008600846006840F0020008600A
:106BC0001A484068194948600846406848600846C5
:106BD000406840F4806048600846406820F47C10BB
:106BE00048600846406840F4E8104860084600687D
:106BF00040F08070086000BF0C48006800F0007032
:106C00000028F9D00948406820F00300074948608F
:106C10000846406840F00200486000BF03484068F2
:106C200000F00C000828F9D10CBD00000010024053
:106C30000020024010B5002100200022214B5B689B
:106C400003F00C0121B1042906D0082928D107E05E
:106C50001D4B1E4C236027E01B4B1C4C236023E084
:106C6000184B5B6803F47010164B5B6803F48032BA
:106C7000022303EB904022B9154B4343134C23608E
:106C80000DE0104B5B6803F4003323B1104B43431A
:106C90000E4C236003E00C4B43430C4C236003E099
:106CA000094B0A4C236000BF00BF064B5B68C3F36F
:106CB0000313084CE15C054B1B68CB40034C23607D
:106CC00010BD00000010024000127A0054000020A5
:106CD00000093D005800002010B51248006840F03F
:106CE000010010490860084640680F4908400D49F6
:106CF0004860084600680D4908400A49086008468F
:106D0000006820F4802008600846406820F4FE00F7
:106D100048604FF41F008860FFF718FF04480549DA
:106D2000086010BD001002400000FFF8FFFFF6FEF3
:106D30000060000808ED00E010B50B48006801286D
:106D40000ED10A480068642804DB00200849088046
:106D5000FFF776FC05480068401C0449086001E024
:106D6000FFF76EFC10BD0000300000202C0000205A
:106D70002400002010B540F22551094800F03CF8ED
:106D800038B1074800F0F4F8C4B206492046FFF7CE
:106D9000D7FB40F22551024800F006F810BD000074
:106DA000003801403001002010B50022002340F6D9
:106DB0006A14A14200D100BF0A1201249440A3B278
:106DC000DC43048010BD21B1828942F400528281EB
:106DD00004E082894DF6FF731A40828170470246B3
:106DE0000020B1F5007F00D100BF13880B400BB12C
:106DF000012000E00020704770B502460024002307
:106E00000025002040F66A16B14200D100BFC1F350
:106E1000421501F01F03012606FA03F3012D02D1EA
:106E20009689334006E0022D02D1168A334001E0F4
:106E3000968A33400C12012606FA04F41688344070
:106E400013B10CB1012000E0002070BDF0B5034685
:106E5000002400260025002040F66A17B94200D120
:106E600000BF1846C1F3421401F01F06012707FABC
:106E700006F5012C01D10C3004E0022C01D11030B8
:106E800000E014301AB107682F43076002E007687A
:106E9000AF430760F0BD00002DE9F04786B005461E
:106EA0000E460024A24600BFA1460027B08900B1CB
:106EB00000BF2F462C8A4CF6FF700440F088044334
:106EC0002C82AC894EF6F3100440B0883189084317
:106ED000718908430443AC81AC8A4FF6FF400440FB
:106EE000B0890443AC8201A8FFF776FD1F488742B2
:106EF00002D1DDF810A001E0DDF80CA0A88900F4B3
:106F0000004040B10AEBCA0000EB0A1031684900AA
:106F1000B0FBF1F807E00AEBCA0000EB0A10316899
:106F20008900B0FBF1F86420B8FBF0F004012009FF
:106F3000642101FB1089A88900F4004040B132208F
:106F400000EBC900B0FBF1F000F00700044308E0DB
:106F5000322000EB09106421B0FBF1F000F00F00CB
:106F600004432C8106B0BDE8F087000000380140E2
:106F700001468888C0F308007047C1F30802828088
:106F80007047000010B50446012144F20500FFF7E8
:106F900013FD4FF400701F4908801820C8700320AB
:106FA00088701D48FFF7FEFB4FF480601949088088
:106FB0000420C870032088701748FFF7F3FB0121F5
:106FC0001648FFF700FF1648046000201449888027
:106FD000C8800C2048810020888108810F48FFF775
:106FE0005BFF012240F225510C48FFF72FFF2520BF
:106FF00000280DDB00BF00BF00F01F0201219140FF
:107000004209920002F1E022C2F8001100BF00BF65
:1070100000BF10BD200000200008014000380140E2
:10702000C801002010B5044603E0207800F00EF8F7
:10703000641C20780028F8D110BD000010B502486B
:10704000FFF7F0FF10BD00006800002010B50446F7
:1070500021460548FFF791FF00BF80210248FFF756
:10706000BEFE0028F9D010BD003801400548007868
:10707000012804D100200349087001207047002036
:10708000FCE70000180000200246012A01DB0B206B
:107090007047074850F822300BB10020187009B132
:1070A00000200870024840F822100020F0E700009D
:1070B0003800002070B504460D46E0B2FFF7C6FF69
:1070C000204670BDA6B000BFFFF7B4FD4820FFF713
:1070D00007FBFFF743FBFFF73BFCFFF7E7FC4FF431
:1070E0001650FFF74FFF58E0FFF7C0FF012804D10B
:1070F0002AA0FFF797FFFFF7A1FF2A480068B0F525
:107100007A7F14D328A0FFF78DFF284802784FF428
:1071100000512748FFF7D1FB2448007808B9012027
:1071200000E000202149087000201E4908601D4829
:107130000068401C1B4908601E48FFF7C3FB48B3AA
:107140001C480088002825DD01A91B48FFF78EFA9E
:107150000446214619A0FFF73BF89DF805000128D9
:1071600017D11BA0FFF75EFF6420FFF7D9FA00BF1D
:10717000BFF34F8F1948006800F4E06018490843D6
:10718000001D16490860BFF34F8F00BF00BF00BF4E
:10719000FDE700BF0120FFF7C3FAA5E70A3C2D2D4C
:1071A0003E0A0000080000200A320A000C000020FD
:1071B000001001400E000020300100200A2D28534D
:1071C000697A65202020203A202564292D0A0000B4
:1071D0000A5265736574206E6F770A000CED00E04B
:1071E0000000FA050472000800000020680000009A
:1071F000286100086C72000868000020000B000085
:1072000044610008000000000000000000000000D1
:107210000000000000FC0108000000000000000069
:10722000000000000000000000000000000000005E
:10723000000000000000000000000000000000004E
:10724000000000000000010203040102030406071D
:10725000080902040608000000A24A040000000019
:0C726000000000000102030406070809FA
:0400000508006191FD
:00000001FF
